{
	"contracts/contract_address_balance.sol": {
		"Deposit": {
			"abi": [
				{
					"inputs": [],
					"stateMutability": "nonpayable",
					"type": "constructor"
				},
				{
					"stateMutability": "payable",
					"type": "fallback"
				},
				{
					"inputs": [],
					"name": "getBalance",
					"outputs": [
						{
							"internalType": "uint256",
							"name": "",
							"type": "uint256"
						}
					],
					"stateMutability": "view",
					"type": "function"
				},
				{
					"inputs": [],
					"name": "owner",
					"outputs": [
						{
							"internalType": "address",
							"name": "",
							"type": "address"
						}
					],
					"stateMutability": "view",
					"type": "function"
				},
				{
					"inputs": [],
					"name": "sendEther",
					"outputs": [],
					"stateMutability": "payable",
					"type": "function"
				},
				{
					"inputs": [
						{
							"internalType": "address payable",
							"name": "recipient",
							"type": "address"
						},
						{
							"internalType": "uint256",
							"name": "amount",
							"type": "uint256"
						}
					],
					"name": "transferEther",
					"outputs": [
						{
							"internalType": "bool",
							"name": "",
							"type": "bool"
						}
					],
					"stateMutability": "nonpayable",
					"type": "function"
				},
				{
					"stateMutability": "payable",
					"type": "receive"
				}
			],
			"devdoc": {
				"kind": "dev",
				"methods": {},
				"version": 1
			},
			"evm": {
				"assembly": "    /* \"contracts/contract_address_balance.sol\":71:1974  contract Deposit{... */\n  mstore(0x40, 0x80)\n    /* \"contracts/contract_address_balance.sol\":125:173  constructor(){... */\n  callvalue\n  dup1\n  iszero\n  tag_1\n  jumpi\n  0x00\n  dup1\n  revert\ntag_1:\n  pop\n    /* \"contracts/contract_address_balance.sol\":156:166  msg.sender */\n  caller\n    /* \"contracts/contract_address_balance.sol\":148:153  owner */\n  0x00\n  dup1\n    /* \"contracts/contract_address_balance.sol\":148:166  owner = msg.sender */\n  0x0100\n  exp\n  dup2\n  sload\n  dup2\n  0xffffffffffffffffffffffffffffffffffffffff\n  mul\n  not\n  and\n  swap1\n  dup4\n  0xffffffffffffffffffffffffffffffffffffffff\n  and\n  mul\n  or\n  swap1\n  sstore\n  pop\n    /* \"contracts/contract_address_balance.sol\":71:1974  contract Deposit{... */\n  dataSize(sub_0)\n  dup1\n  dataOffset(sub_0)\n  0x00\n  codecopy\n  0x00\n  return\nstop\n\nsub_0: assembly {\n        /* \"contracts/contract_address_balance.sol\":71:1974  contract Deposit{... */\n      mstore(0x40, 0x80)\n      jumpi(tag_1, lt(calldatasize, 0x04))\n      shr(0xe0, calldataload(0x00))\n      dup1\n      0x05b1137b\n      eq\n      tag_3\n      jumpi\n      dup1\n      0x0e29df22\n      eq\n      tag_4\n      jumpi\n      dup1\n      0x12065fe0\n      eq\n      tag_5\n      jumpi\n      dup1\n      0x8da5cb5b\n      eq\n      tag_6\n      jumpi\n      jump(tag_2)\n    tag_1:\n      jumpi(tag_2, calldatasize)\n      stop\n    tag_2:\n      stop\n        /* \"contracts/contract_address_balance.sol\":1356:1972  function transferEther(address payable recipient, uint amount) public returns(bool){... */\n    tag_3:\n      callvalue\n      dup1\n      iszero\n      tag_11\n      jumpi\n      0x00\n      dup1\n      revert\n    tag_11:\n      pop\n      tag_12\n      0x04\n      dup1\n      calldatasize\n      sub\n      dup2\n      add\n      swap1\n      tag_13\n      swap2\n      swap1\n      tag_14\n      jump\t// in\n    tag_13:\n      tag_15\n      jump\t// in\n    tag_12:\n      mload(0x40)\n      tag_16\n      swap2\n      swap1\n      tag_17\n      jump\t// in\n    tag_16:\n      mload(0x40)\n      dup1\n      swap2\n      sub\n      swap1\n      return\n        /* \"contracts/contract_address_balance.sol\":926:977  function sendEther() public payable{... */\n    tag_4:\n      tag_18\n      tag_19\n      jump\t// in\n    tag_18:\n      stop\n        /* \"contracts/contract_address_balance.sol\":1035:1275  function getBalance() public view returns (uint) {... */\n    tag_5:\n      callvalue\n      dup1\n      iszero\n      tag_20\n      jumpi\n      0x00\n      dup1\n      revert\n    tag_20:\n      pop\n      tag_21\n      tag_22\n      jump\t// in\n    tag_21:\n      mload(0x40)\n      tag_23\n      swap2\n      swap1\n      tag_24\n      jump\t// in\n    tag_23:\n      mload(0x40)\n      dup1\n      swap2\n      sub\n      swap1\n      return\n        /* \"contracts/contract_address_balance.sol\":94:114  address public owner */\n    tag_6:\n      callvalue\n      dup1\n      iszero\n      tag_25\n      jumpi\n      0x00\n      dup1\n      revert\n    tag_25:\n      pop\n      tag_26\n      tag_27\n      jump\t// in\n    tag_26:\n      mload(0x40)\n      tag_28\n      swap2\n      swap1\n      tag_29\n      jump\t// in\n    tag_28:\n      mload(0x40)\n      dup1\n      swap2\n      sub\n      swap1\n      return\n        /* \"contracts/contract_address_balance.sol\":1356:1972  function transferEther(address payable recipient, uint amount) public returns(bool){... */\n    tag_15:\n        /* \"contracts/contract_address_balance.sol\":1434:1438  bool */\n      0x00\n        /* \"contracts/contract_address_balance.sol\":1565:1575  msg.sender */\n      caller\n        /* \"contracts/contract_address_balance.sol\":1556:1575  owner == msg.sender */\n      0xffffffffffffffffffffffffffffffffffffffff\n      and\n        /* \"contracts/contract_address_balance.sol\":1556:1561  owner */\n      0x00\n      dup1\n      sload\n      swap1\n      0x0100\n      exp\n      swap1\n      div\n      0xffffffffffffffffffffffffffffffffffffffff\n      and\n        /* \"contracts/contract_address_balance.sol\":1556:1575  owner == msg.sender */\n      0xffffffffffffffffffffffffffffffffffffffff\n      and\n      eq\n        /* \"contracts/contract_address_balance.sol\":1548:1620  require(owner == msg.sender, \"Transfer failed, you are not the owner!!\") */\n      tag_31\n      jumpi\n      mload(0x40)\n      0x08c379a000000000000000000000000000000000000000000000000000000000\n      dup2\n      mstore\n      0x04\n      add\n      tag_32\n      swap1\n      tag_33\n      jump\t// in\n    tag_32:\n      mload(0x40)\n      dup1\n      swap2\n      sub\n      swap1\n      revert\n    tag_31:\n        /* \"contracts/contract_address_balance.sol\":1655:1667  getBalance() */\n      tag_34\n        /* \"contracts/contract_address_balance.sol\":1655:1665  getBalance */\n      tag_22\n        /* \"contracts/contract_address_balance.sol\":1655:1667  getBalance() */\n      jump\t// in\n    tag_34:\n        /* \"contracts/contract_address_balance.sol\":1645:1651  amount */\n      dup3\n        /* \"contracts/contract_address_balance.sol\":1645:1667  amount <= getBalance() */\n      gt\n        /* \"contracts/contract_address_balance.sol\":1641:1965  if (amount <= getBalance()){... */\n      tag_35\n      jumpi\n        /* \"contracts/contract_address_balance.sol\":1858:1867  recipient */\n      dup3\n        /* \"contracts/contract_address_balance.sol\":1858:1876  recipient.transfer */\n      0xffffffffffffffffffffffffffffffffffffffff\n      and\n        /* \"contracts/contract_address_balance.sol\":1858:1884  recipient.transfer(amount) */\n      0x08fc\n        /* \"contracts/contract_address_balance.sol\":1877:1883  amount */\n      dup4\n        /* \"contracts/contract_address_balance.sol\":1858:1884  recipient.transfer(amount) */\n      swap1\n      dup2\n      iszero\n      mul\n      swap1\n      mload(0x40)\n      0x00\n      mload(0x40)\n      dup1\n      dup4\n      sub\n      dup2\n      dup6\n      dup9\n      dup9\n      call\n      swap4\n      pop\n      pop\n      pop\n      pop\n      iszero\n      dup1\n      iszero\n      tag_37\n      jumpi\n      returndatasize\n      0x00\n      dup1\n      returndatacopy\n      revert(0x00, returndatasize)\n    tag_37:\n      pop\n        /* \"contracts/contract_address_balance.sol\":1906:1910  true */\n      0x01\n        /* \"contracts/contract_address_balance.sol\":1899:1910  return true */\n      swap1\n      pop\n      jump(tag_30)\n        /* \"contracts/contract_address_balance.sol\":1641:1965  if (amount <= getBalance()){... */\n    tag_35:\n        /* \"contracts/contract_address_balance.sol\":1948:1953  false */\n      0x00\n        /* \"contracts/contract_address_balance.sol\":1941:1953  return false */\n      swap1\n      pop\n        /* \"contracts/contract_address_balance.sol\":1356:1972  function transferEther(address payable recipient, uint amount) public returns(bool){... */\n    tag_30:\n      swap3\n      swap2\n      pop\n      pop\n      jump\t// out\n        /* \"contracts/contract_address_balance.sol\":926:977  function sendEther() public payable{... */\n    tag_19:\n      jump\t// out\n        /* \"contracts/contract_address_balance.sol\":1035:1275  function getBalance() public view returns (uint) {... */\n    tag_22:\n        /* \"contracts/contract_address_balance.sol\":1078:1082  uint */\n      0x00\n        /* \"contracts/contract_address_balance.sol\":1247:1268  address(this).balance */\n      selfbalance\n        /* \"contracts/contract_address_balance.sol\":1240:1268  return address(this).balance */\n      swap1\n      pop\n        /* \"contracts/contract_address_balance.sol\":1035:1275  function getBalance() public view returns (uint) {... */\n      swap1\n      jump\t// out\n        /* \"contracts/contract_address_balance.sol\":94:114  address public owner */\n    tag_27:\n      0x00\n      dup1\n      sload\n      swap1\n      0x0100\n      exp\n      swap1\n      div\n      0xffffffffffffffffffffffffffffffffffffffff\n      and\n      dup2\n      jump\t// out\n        /* \"#utility.yul\":7:162   */\n    tag_42:\n        /* \"#utility.yul\":61:66   */\n      0x00\n        /* \"#utility.yul\":99:105   */\n      dup2\n        /* \"#utility.yul\":86:106   */\n      calldataload\n        /* \"#utility.yul\":77:106   */\n      swap1\n      pop\n        /* \"#utility.yul\":115:156   */\n      tag_44\n        /* \"#utility.yul\":150:155   */\n      dup2\n        /* \"#utility.yul\":115:156   */\n      tag_45\n      jump\t// in\n    tag_44:\n        /* \"#utility.yul\":7:162   */\n      swap3\n      swap2\n      pop\n      pop\n      jump\t// out\n        /* \"#utility.yul\":168:307   */\n    tag_46:\n        /* \"#utility.yul\":214:219   */\n      0x00\n        /* \"#utility.yul\":252:258   */\n      dup2\n        /* \"#utility.yul\":239:259   */\n      calldataload\n        /* \"#utility.yul\":230:259   */\n      swap1\n      pop\n        /* \"#utility.yul\":268:301   */\n      tag_48\n        /* \"#utility.yul\":295:300   */\n      dup2\n        /* \"#utility.yul\":268:301   */\n      tag_49\n      jump\t// in\n    tag_48:\n        /* \"#utility.yul\":168:307   */\n      swap3\n      swap2\n      pop\n      pop\n      jump\t// out\n        /* \"#utility.yul\":313:803   */\n    tag_14:\n        /* \"#utility.yul\":389:395   */\n      0x00\n        /* \"#utility.yul\":397:403   */\n      dup1\n        /* \"#utility.yul\":446:448   */\n      0x40\n        /* \"#utility.yul\":434:443   */\n      dup4\n        /* \"#utility.yul\":425:432   */\n      dup6\n        /* \"#utility.yul\":421:444   */\n      sub\n        /* \"#utility.yul\":417:449   */\n      slt\n        /* \"#utility.yul\":414:533   */\n      iszero\n      tag_51\n      jumpi\n        /* \"#utility.yul\":452:531   */\n      tag_52\n      tag_53\n      jump\t// in\n    tag_52:\n        /* \"#utility.yul\":414:533   */\n    tag_51:\n        /* \"#utility.yul\":572:573   */\n      0x00\n        /* \"#utility.yul\":597:658   */\n      tag_54\n        /* \"#utility.yul\":650:657   */\n      dup6\n        /* \"#utility.yul\":641:647   */\n      dup3\n        /* \"#utility.yul\":630:639   */\n      dup7\n        /* \"#utility.yul\":626:648   */\n      add\n        /* \"#utility.yul\":597:658   */\n      tag_42\n      jump\t// in\n    tag_54:\n        /* \"#utility.yul\":587:658   */\n      swap3\n      pop\n        /* \"#utility.yul\":543:668   */\n      pop\n        /* \"#utility.yul\":707:709   */\n      0x20\n        /* \"#utility.yul\":733:786   */\n      tag_55\n        /* \"#utility.yul\":778:785   */\n      dup6\n        /* \"#utility.yul\":769:775   */\n      dup3\n        /* \"#utility.yul\":758:767   */\n      dup7\n        /* \"#utility.yul\":754:776   */\n      add\n        /* \"#utility.yul\":733:786   */\n      tag_46\n      jump\t// in\n    tag_55:\n        /* \"#utility.yul\":723:786   */\n      swap2\n      pop\n        /* \"#utility.yul\":678:796   */\n      pop\n        /* \"#utility.yul\":313:803   */\n      swap3\n      pop\n      swap3\n      swap1\n      pop\n      jump\t// out\n        /* \"#utility.yul\":809:927   */\n    tag_56:\n        /* \"#utility.yul\":896:920   */\n      tag_58\n        /* \"#utility.yul\":914:919   */\n      dup2\n        /* \"#utility.yul\":896:920   */\n      tag_59\n      jump\t// in\n    tag_58:\n        /* \"#utility.yul\":891:894   */\n      dup3\n        /* \"#utility.yul\":884:921   */\n      mstore\n        /* \"#utility.yul\":809:927   */\n      pop\n      pop\n      jump\t// out\n        /* \"#utility.yul\":933:1042   */\n    tag_60:\n        /* \"#utility.yul\":1014:1035   */\n      tag_62\n        /* \"#utility.yul\":1029:1034   */\n      dup2\n        /* \"#utility.yul\":1014:1035   */\n      tag_63\n      jump\t// in\n    tag_62:\n        /* \"#utility.yul\":1009:1012   */\n      dup3\n        /* \"#utility.yul\":1002:1036   */\n      mstore\n        /* \"#utility.yul\":933:1042   */\n      pop\n      pop\n      jump\t// out\n        /* \"#utility.yul\":1048:1414   */\n    tag_64:\n        /* \"#utility.yul\":1190:1193   */\n      0x00\n        /* \"#utility.yul\":1211:1278   */\n      tag_66\n        /* \"#utility.yul\":1275:1277   */\n      0x28\n        /* \"#utility.yul\":1270:1273   */\n      dup4\n        /* \"#utility.yul\":1211:1278   */\n      tag_67\n      jump\t// in\n    tag_66:\n        /* \"#utility.yul\":1204:1278   */\n      swap2\n      pop\n        /* \"#utility.yul\":1287:1380   */\n      tag_68\n        /* \"#utility.yul\":1376:1379   */\n      dup3\n        /* \"#utility.yul\":1287:1380   */\n      tag_69\n      jump\t// in\n    tag_68:\n        /* \"#utility.yul\":1405:1407   */\n      0x40\n        /* \"#utility.yul\":1400:1403   */\n      dup3\n        /* \"#utility.yul\":1396:1408   */\n      add\n        /* \"#utility.yul\":1389:1408   */\n      swap1\n      pop\n        /* \"#utility.yul\":1048:1414   */\n      swap2\n      swap1\n      pop\n      jump\t// out\n        /* \"#utility.yul\":1420:1538   */\n    tag_70:\n        /* \"#utility.yul\":1507:1531   */\n      tag_72\n        /* \"#utility.yul\":1525:1530   */\n      dup2\n        /* \"#utility.yul\":1507:1531   */\n      tag_73\n      jump\t// in\n    tag_72:\n        /* \"#utility.yul\":1502:1505   */\n      dup3\n        /* \"#utility.yul\":1495:1532   */\n      mstore\n        /* \"#utility.yul\":1420:1538   */\n      pop\n      pop\n      jump\t// out\n        /* \"#utility.yul\":1544:1766   */\n    tag_29:\n        /* \"#utility.yul\":1637:1641   */\n      0x00\n        /* \"#utility.yul\":1675:1677   */\n      0x20\n        /* \"#utility.yul\":1664:1673   */\n      dup3\n        /* \"#utility.yul\":1660:1678   */\n      add\n        /* \"#utility.yul\":1652:1678   */\n      swap1\n      pop\n        /* \"#utility.yul\":1688:1759   */\n      tag_75\n        /* \"#utility.yul\":1756:1757   */\n      0x00\n        /* \"#utility.yul\":1745:1754   */\n      dup4\n        /* \"#utility.yul\":1741:1758   */\n      add\n        /* \"#utility.yul\":1732:1738   */\n      dup5\n        /* \"#utility.yul\":1688:1759   */\n      tag_56\n      jump\t// in\n    tag_75:\n        /* \"#utility.yul\":1544:1766   */\n      swap3\n      swap2\n      pop\n      pop\n      jump\t// out\n        /* \"#utility.yul\":1772:1982   */\n    tag_17:\n        /* \"#utility.yul\":1859:1863   */\n      0x00\n        /* \"#utility.yul\":1897:1899   */\n      0x20\n        /* \"#utility.yul\":1886:1895   */\n      dup3\n        /* \"#utility.yul\":1882:1900   */\n      add\n        /* \"#utility.yul\":1874:1900   */\n      swap1\n      pop\n        /* \"#utility.yul\":1910:1975   */\n      tag_77\n        /* \"#utility.yul\":1972:1973   */\n      0x00\n        /* \"#utility.yul\":1961:1970   */\n      dup4\n        /* \"#utility.yul\":1957:1974   */\n      add\n        /* \"#utility.yul\":1948:1954   */\n      dup5\n        /* \"#utility.yul\":1910:1975   */\n      tag_60\n      jump\t// in\n    tag_77:\n        /* \"#utility.yul\":1772:1982   */\n      swap3\n      swap2\n      pop\n      pop\n      jump\t// out\n        /* \"#utility.yul\":1988:2407   */\n    tag_33:\n        /* \"#utility.yul\":2154:2158   */\n      0x00\n        /* \"#utility.yul\":2192:2194   */\n      0x20\n        /* \"#utility.yul\":2181:2190   */\n      dup3\n        /* \"#utility.yul\":2177:2195   */\n      add\n        /* \"#utility.yul\":2169:2195   */\n      swap1\n      pop\n        /* \"#utility.yul\":2241:2250   */\n      dup2\n        /* \"#utility.yul\":2235:2239   */\n      dup2\n        /* \"#utility.yul\":2231:2251   */\n      sub\n        /* \"#utility.yul\":2227:2228   */\n      0x00\n        /* \"#utility.yul\":2216:2225   */\n      dup4\n        /* \"#utility.yul\":2212:2229   */\n      add\n        /* \"#utility.yul\":2205:2252   */\n      mstore\n        /* \"#utility.yul\":2269:2400   */\n      tag_79\n        /* \"#utility.yul\":2395:2399   */\n      dup2\n        /* \"#utility.yul\":2269:2400   */\n      tag_64\n      jump\t// in\n    tag_79:\n        /* \"#utility.yul\":2261:2400   */\n      swap1\n      pop\n        /* \"#utility.yul\":1988:2407   */\n      swap2\n      swap1\n      pop\n      jump\t// out\n        /* \"#utility.yul\":2413:2635   */\n    tag_24:\n        /* \"#utility.yul\":2506:2510   */\n      0x00\n        /* \"#utility.yul\":2544:2546   */\n      0x20\n        /* \"#utility.yul\":2533:2542   */\n      dup3\n        /* \"#utility.yul\":2529:2547   */\n      add\n        /* \"#utility.yul\":2521:2547   */\n      swap1\n      pop\n        /* \"#utility.yul\":2557:2628   */\n      tag_81\n        /* \"#utility.yul\":2625:2626   */\n      0x00\n        /* \"#utility.yul\":2614:2623   */\n      dup4\n        /* \"#utility.yul\":2610:2627   */\n      add\n        /* \"#utility.yul\":2601:2607   */\n      dup5\n        /* \"#utility.yul\":2557:2628   */\n      tag_70\n      jump\t// in\n    tag_81:\n        /* \"#utility.yul\":2413:2635   */\n      swap3\n      swap2\n      pop\n      pop\n      jump\t// out\n        /* \"#utility.yul\":2722:2891   */\n    tag_67:\n        /* \"#utility.yul\":2806:2817   */\n      0x00\n        /* \"#utility.yul\":2840:2846   */\n      dup3\n        /* \"#utility.yul\":2835:2838   */\n      dup3\n        /* \"#utility.yul\":2828:2847   */\n      mstore\n        /* \"#utility.yul\":2880:2884   */\n      0x20\n        /* \"#utility.yul\":2875:2878   */\n      dup3\n        /* \"#utility.yul\":2871:2885   */\n      add\n        /* \"#utility.yul\":2856:2885   */\n      swap1\n      pop\n        /* \"#utility.yul\":2722:2891   */\n      swap3\n      swap2\n      pop\n      pop\n      jump\t// out\n        /* \"#utility.yul\":2897:2993   */\n    tag_59:\n        /* \"#utility.yul\":2934:2941   */\n      0x00\n        /* \"#utility.yul\":2963:2987   */\n      tag_86\n        /* \"#utility.yul\":2981:2986   */\n      dup3\n        /* \"#utility.yul\":2963:2987   */\n      tag_87\n      jump\t// in\n    tag_86:\n        /* \"#utility.yul\":2952:2987   */\n      swap1\n      pop\n        /* \"#utility.yul\":2897:2993   */\n      swap2\n      swap1\n      pop\n      jump\t// out\n        /* \"#utility.yul\":2999:3103   */\n    tag_88:\n        /* \"#utility.yul\":3044:3051   */\n      0x00\n        /* \"#utility.yul\":3073:3097   */\n      tag_90\n        /* \"#utility.yul\":3091:3096   */\n      dup3\n        /* \"#utility.yul\":3073:3097   */\n      tag_87\n      jump\t// in\n    tag_90:\n        /* \"#utility.yul\":3062:3097   */\n      swap1\n      pop\n        /* \"#utility.yul\":2999:3103   */\n      swap2\n      swap1\n      pop\n      jump\t// out\n        /* \"#utility.yul\":3109:3199   */\n    tag_63:\n        /* \"#utility.yul\":3143:3150   */\n      0x00\n        /* \"#utility.yul\":3186:3191   */\n      dup2\n        /* \"#utility.yul\":3179:3192   */\n      iszero\n        /* \"#utility.yul\":3172:3193   */\n      iszero\n        /* \"#utility.yul\":3161:3193   */\n      swap1\n      pop\n        /* \"#utility.yul\":3109:3199   */\n      swap2\n      swap1\n      pop\n      jump\t// out\n        /* \"#utility.yul\":3205:3331   */\n    tag_87:\n        /* \"#utility.yul\":3242:3249   */\n      0x00\n        /* \"#utility.yul\":3282:3324   */\n      0xffffffffffffffffffffffffffffffffffffffff\n        /* \"#utility.yul\":3275:3280   */\n      dup3\n        /* \"#utility.yul\":3271:3325   */\n      and\n        /* \"#utility.yul\":3260:3325   */\n      swap1\n      pop\n        /* \"#utility.yul\":3205:3331   */\n      swap2\n      swap1\n      pop\n      jump\t// out\n        /* \"#utility.yul\":3337:3414   */\n    tag_73:\n        /* \"#utility.yul\":3374:3381   */\n      0x00\n        /* \"#utility.yul\":3403:3408   */\n      dup2\n        /* \"#utility.yul\":3392:3408   */\n      swap1\n      pop\n        /* \"#utility.yul\":3337:3414   */\n      swap2\n      swap1\n      pop\n      jump\t// out\n        /* \"#utility.yul\":3543:3660   */\n    tag_53:\n        /* \"#utility.yul\":3652:3653   */\n      0x00\n        /* \"#utility.yul\":3649:3650   */\n      dup1\n        /* \"#utility.yul\":3642:3654   */\n      revert\n        /* \"#utility.yul\":3666:3893   */\n    tag_69:\n        /* \"#utility.yul\":3806:3840   */\n      0x5472616e73666572206661696c65642c20796f7520617265206e6f7420746865\n        /* \"#utility.yul\":3802:3803   */\n      0x00\n        /* \"#utility.yul\":3794:3800   */\n      dup3\n        /* \"#utility.yul\":3790:3804   */\n      add\n        /* \"#utility.yul\":3783:3841   */\n      mstore\n        /* \"#utility.yul\":3875:3885   */\n      0x206f776e65722121000000000000000000000000000000000000000000000000\n        /* \"#utility.yul\":3870:3872   */\n      0x20\n        /* \"#utility.yul\":3862:3868   */\n      dup3\n        /* \"#utility.yul\":3858:3873   */\n      add\n        /* \"#utility.yul\":3851:3886   */\n      mstore\n        /* \"#utility.yul\":3666:3893   */\n      pop\n      jump\t// out\n        /* \"#utility.yul\":3899:4037   */\n    tag_45:\n        /* \"#utility.yul\":3980:4012   */\n      tag_99\n        /* \"#utility.yul\":4006:4011   */\n      dup2\n        /* \"#utility.yul\":3980:4012   */\n      tag_88\n      jump\t// in\n    tag_99:\n        /* \"#utility.yul\":3973:3978   */\n      dup2\n        /* \"#utility.yul\":3970:4013   */\n      eq\n        /* \"#utility.yul\":3960:4031   */\n      tag_100\n      jumpi\n        /* \"#utility.yul\":4027:4028   */\n      0x00\n        /* \"#utility.yul\":4024:4025   */\n      dup1\n        /* \"#utility.yul\":4017:4029   */\n      revert\n        /* \"#utility.yul\":3960:4031   */\n    tag_100:\n        /* \"#utility.yul\":3899:4037   */\n      pop\n      jump\t// out\n        /* \"#utility.yul\":4043:4165   */\n    tag_49:\n        /* \"#utility.yul\":4116:4140   */\n      tag_102\n        /* \"#utility.yul\":4134:4139   */\n      dup2\n        /* \"#utility.yul\":4116:4140   */\n      tag_73\n      jump\t// in\n    tag_102:\n        /* \"#utility.yul\":4109:4114   */\n      dup2\n        /* \"#utility.yul\":4106:4141   */\n      eq\n        /* \"#utility.yul\":4096:4159   */\n      tag_103\n      jumpi\n        /* \"#utility.yul\":4155:4156   */\n      0x00\n        /* \"#utility.yul\":4152:4153   */\n      dup1\n        /* \"#utility.yul\":4145:4157   */\n      revert\n        /* \"#utility.yul\":4096:4159   */\n    tag_103:\n        /* \"#utility.yul\":4043:4165   */\n      pop\n      jump\t// out\n\n    auxdata: 0xa264697066735822122016aa53b02b8d138abe5bd26f2a89c8889905635b62acb04ee444033f7165339164736f6c63430008070033\n}\n",
				"bytecode": {
					"linkReferences": {},
					"object": "608060405234801561001057600080fd5b50336000806101000a81548173ffffffffffffffffffffffffffffffffffffffff021916908373ffffffffffffffffffffffffffffffffffffffff16021790555061045e806100606000396000f3fe6080604052600436106100435760003560e01c806305b1137b1461004c5780630e29df221461008957806312065fe0146100935780638da5cb5b146100be5761004a565b3661004a57005b005b34801561005857600080fd5b50610073600480360381019061006e919061023a565b6100e9565b60405161008091906102e5565b60405180910390f35b6100916101e2565b005b34801561009f57600080fd5b506100a86101e4565b6040516100b59190610320565b60405180910390f35b3480156100ca57600080fd5b506100d36101ec565b6040516100e091906102ca565b60405180910390f35b60003373ffffffffffffffffffffffffffffffffffffffff1660008054906101000a900473ffffffffffffffffffffffffffffffffffffffff1673ffffffffffffffffffffffffffffffffffffffff1614610179576040517f08c379a000000000000000000000000000000000000000000000000000000000815260040161017090610300565b60405180910390fd5b6101816101e4565b82116101d7578273ffffffffffffffffffffffffffffffffffffffff166108fc839081150290604051600060405180830381858888f193505050501580156101cd573d6000803e3d6000fd5b50600190506101dc565b600090505b92915050565b565b600047905090565b60008054906101000a900473ffffffffffffffffffffffffffffffffffffffff1681565b60008135905061021f816103fa565b92915050565b60008135905061023481610411565b92915050565b60008060408385031215610251576102506103a6565b5b600061025f85828601610210565b925050602061027085828601610225565b9150509250929050565b6102838161034c565b82525050565b61029281610370565b82525050565b60006102a560288361033b565b91506102b0826103ab565b604082019050919050565b6102c48161039c565b82525050565b60006020820190506102df600083018461027a565b92915050565b60006020820190506102fa6000830184610289565b92915050565b6000602082019050818103600083015261031981610298565b9050919050565b600060208201905061033560008301846102bb565b92915050565b600082825260208201905092915050565b60006103578261037c565b9050919050565b60006103698261037c565b9050919050565b60008115159050919050565b600073ffffffffffffffffffffffffffffffffffffffff82169050919050565b6000819050919050565b600080fd5b7f5472616e73666572206661696c65642c20796f7520617265206e6f742074686560008201527f206f776e65722121000000000000000000000000000000000000000000000000602082015250565b6104038161035e565b811461040e57600080fd5b50565b61041a8161039c565b811461042557600080fd5b5056fea264697066735822122016aa53b02b8d138abe5bd26f2a89c8889905635b62acb04ee444033f7165339164736f6c63430008070033",
					"opcodes": "PUSH1 0x80 PUSH1 0x40 MSTORE CALLVALUE DUP1 ISZERO PUSH2 0x10 JUMPI PUSH1 0x0 DUP1 REVERT JUMPDEST POP CALLER PUSH1 0x0 DUP1 PUSH2 0x100 EXP DUP2 SLOAD DUP2 PUSH20 0xFFFFFFFFFFFFFFFFFFFFFFFFFFFFFFFFFFFFFFFF MUL NOT AND SWAP1 DUP4 PUSH20 0xFFFFFFFFFFFFFFFFFFFFFFFFFFFFFFFFFFFFFFFF AND MUL OR SWAP1 SSTORE POP PUSH2 0x45E DUP1 PUSH2 0x60 PUSH1 0x0 CODECOPY PUSH1 0x0 RETURN INVALID PUSH1 0x80 PUSH1 0x40 MSTORE PUSH1 0x4 CALLDATASIZE LT PUSH2 0x43 JUMPI PUSH1 0x0 CALLDATALOAD PUSH1 0xE0 SHR DUP1 PUSH4 0x5B1137B EQ PUSH2 0x4C JUMPI DUP1 PUSH4 0xE29DF22 EQ PUSH2 0x89 JUMPI DUP1 PUSH4 0x12065FE0 EQ PUSH2 0x93 JUMPI DUP1 PUSH4 0x8DA5CB5B EQ PUSH2 0xBE JUMPI PUSH2 0x4A JUMP JUMPDEST CALLDATASIZE PUSH2 0x4A JUMPI STOP JUMPDEST STOP JUMPDEST CALLVALUE DUP1 ISZERO PUSH2 0x58 JUMPI PUSH1 0x0 DUP1 REVERT JUMPDEST POP PUSH2 0x73 PUSH1 0x4 DUP1 CALLDATASIZE SUB DUP2 ADD SWAP1 PUSH2 0x6E SWAP2 SWAP1 PUSH2 0x23A JUMP JUMPDEST PUSH2 0xE9 JUMP JUMPDEST PUSH1 0x40 MLOAD PUSH2 0x80 SWAP2 SWAP1 PUSH2 0x2E5 JUMP JUMPDEST PUSH1 0x40 MLOAD DUP1 SWAP2 SUB SWAP1 RETURN JUMPDEST PUSH2 0x91 PUSH2 0x1E2 JUMP JUMPDEST STOP JUMPDEST CALLVALUE DUP1 ISZERO PUSH2 0x9F JUMPI PUSH1 0x0 DUP1 REVERT JUMPDEST POP PUSH2 0xA8 PUSH2 0x1E4 JUMP JUMPDEST PUSH1 0x40 MLOAD PUSH2 0xB5 SWAP2 SWAP1 PUSH2 0x320 JUMP JUMPDEST PUSH1 0x40 MLOAD DUP1 SWAP2 SUB SWAP1 RETURN JUMPDEST CALLVALUE DUP1 ISZERO PUSH2 0xCA JUMPI PUSH1 0x0 DUP1 REVERT JUMPDEST POP PUSH2 0xD3 PUSH2 0x1EC JUMP JUMPDEST PUSH1 0x40 MLOAD PUSH2 0xE0 SWAP2 SWAP1 PUSH2 0x2CA JUMP JUMPDEST PUSH1 0x40 MLOAD DUP1 SWAP2 SUB SWAP1 RETURN JUMPDEST PUSH1 0x0 CALLER PUSH20 0xFFFFFFFFFFFFFFFFFFFFFFFFFFFFFFFFFFFFFFFF AND PUSH1 0x0 DUP1 SLOAD SWAP1 PUSH2 0x100 EXP SWAP1 DIV PUSH20 0xFFFFFFFFFFFFFFFFFFFFFFFFFFFFFFFFFFFFFFFF AND PUSH20 0xFFFFFFFFFFFFFFFFFFFFFFFFFFFFFFFFFFFFFFFF AND EQ PUSH2 0x179 JUMPI PUSH1 0x40 MLOAD PUSH32 0x8C379A000000000000000000000000000000000000000000000000000000000 DUP2 MSTORE PUSH1 0x4 ADD PUSH2 0x170 SWAP1 PUSH2 0x300 JUMP JUMPDEST PUSH1 0x40 MLOAD DUP1 SWAP2 SUB SWAP1 REVERT JUMPDEST PUSH2 0x181 PUSH2 0x1E4 JUMP JUMPDEST DUP3 GT PUSH2 0x1D7 JUMPI DUP3 PUSH20 0xFFFFFFFFFFFFFFFFFFFFFFFFFFFFFFFFFFFFFFFF AND PUSH2 0x8FC DUP4 SWAP1 DUP2 ISZERO MUL SWAP1 PUSH1 0x40 MLOAD PUSH1 0x0 PUSH1 0x40 MLOAD DUP1 DUP4 SUB DUP2 DUP6 DUP9 DUP9 CALL SWAP4 POP POP POP POP ISZERO DUP1 ISZERO PUSH2 0x1CD JUMPI RETURNDATASIZE PUSH1 0x0 DUP1 RETURNDATACOPY RETURNDATASIZE PUSH1 0x0 REVERT JUMPDEST POP PUSH1 0x1 SWAP1 POP PUSH2 0x1DC JUMP JUMPDEST PUSH1 0x0 SWAP1 POP JUMPDEST SWAP3 SWAP2 POP POP JUMP JUMPDEST JUMP JUMPDEST PUSH1 0x0 SELFBALANCE SWAP1 POP SWAP1 JUMP JUMPDEST PUSH1 0x0 DUP1 SLOAD SWAP1 PUSH2 0x100 EXP SWAP1 DIV PUSH20 0xFFFFFFFFFFFFFFFFFFFFFFFFFFFFFFFFFFFFFFFF AND DUP2 JUMP JUMPDEST PUSH1 0x0 DUP2 CALLDATALOAD SWAP1 POP PUSH2 0x21F DUP2 PUSH2 0x3FA JUMP JUMPDEST SWAP3 SWAP2 POP POP JUMP JUMPDEST PUSH1 0x0 DUP2 CALLDATALOAD SWAP1 POP PUSH2 0x234 DUP2 PUSH2 0x411 JUMP JUMPDEST SWAP3 SWAP2 POP POP JUMP JUMPDEST PUSH1 0x0 DUP1 PUSH1 0x40 DUP4 DUP6 SUB SLT ISZERO PUSH2 0x251 JUMPI PUSH2 0x250 PUSH2 0x3A6 JUMP JUMPDEST JUMPDEST PUSH1 0x0 PUSH2 0x25F DUP6 DUP3 DUP7 ADD PUSH2 0x210 JUMP JUMPDEST SWAP3 POP POP PUSH1 0x20 PUSH2 0x270 DUP6 DUP3 DUP7 ADD PUSH2 0x225 JUMP JUMPDEST SWAP2 POP POP SWAP3 POP SWAP3 SWAP1 POP JUMP JUMPDEST PUSH2 0x283 DUP2 PUSH2 0x34C JUMP JUMPDEST DUP3 MSTORE POP POP JUMP JUMPDEST PUSH2 0x292 DUP2 PUSH2 0x370 JUMP JUMPDEST DUP3 MSTORE POP POP JUMP JUMPDEST PUSH1 0x0 PUSH2 0x2A5 PUSH1 0x28 DUP4 PUSH2 0x33B JUMP JUMPDEST SWAP2 POP PUSH2 0x2B0 DUP3 PUSH2 0x3AB JUMP JUMPDEST PUSH1 0x40 DUP3 ADD SWAP1 POP SWAP2 SWAP1 POP JUMP JUMPDEST PUSH2 0x2C4 DUP2 PUSH2 0x39C JUMP JUMPDEST DUP3 MSTORE POP POP JUMP JUMPDEST PUSH1 0x0 PUSH1 0x20 DUP3 ADD SWAP1 POP PUSH2 0x2DF PUSH1 0x0 DUP4 ADD DUP5 PUSH2 0x27A JUMP JUMPDEST SWAP3 SWAP2 POP POP JUMP JUMPDEST PUSH1 0x0 PUSH1 0x20 DUP3 ADD SWAP1 POP PUSH2 0x2FA PUSH1 0x0 DUP4 ADD DUP5 PUSH2 0x289 JUMP JUMPDEST SWAP3 SWAP2 POP POP JUMP JUMPDEST PUSH1 0x0 PUSH1 0x20 DUP3 ADD SWAP1 POP DUP2 DUP2 SUB PUSH1 0x0 DUP4 ADD MSTORE PUSH2 0x319 DUP2 PUSH2 0x298 JUMP JUMPDEST SWAP1 POP SWAP2 SWAP1 POP JUMP JUMPDEST PUSH1 0x0 PUSH1 0x20 DUP3 ADD SWAP1 POP PUSH2 0x335 PUSH1 0x0 DUP4 ADD DUP5 PUSH2 0x2BB JUMP JUMPDEST SWAP3 SWAP2 POP POP JUMP JUMPDEST PUSH1 0x0 DUP3 DUP3 MSTORE PUSH1 0x20 DUP3 ADD SWAP1 POP SWAP3 SWAP2 POP POP JUMP JUMPDEST PUSH1 0x0 PUSH2 0x357 DUP3 PUSH2 0x37C JUMP JUMPDEST SWAP1 POP SWAP2 SWAP1 POP JUMP JUMPDEST PUSH1 0x0 PUSH2 0x369 DUP3 PUSH2 0x37C JUMP JUMPDEST SWAP1 POP SWAP2 SWAP1 POP JUMP JUMPDEST PUSH1 0x0 DUP2 ISZERO ISZERO SWAP1 POP SWAP2 SWAP1 POP JUMP JUMPDEST PUSH1 0x0 PUSH20 0xFFFFFFFFFFFFFFFFFFFFFFFFFFFFFFFFFFFFFFFF DUP3 AND SWAP1 POP SWAP2 SWAP1 POP JUMP JUMPDEST PUSH1 0x0 DUP2 SWAP1 POP SWAP2 SWAP1 POP JUMP JUMPDEST PUSH1 0x0 DUP1 REVERT JUMPDEST PUSH32 0x5472616E73666572206661696C65642C20796F7520617265206E6F7420746865 PUSH1 0x0 DUP3 ADD MSTORE PUSH32 0x206F776E65722121000000000000000000000000000000000000000000000000 PUSH1 0x20 DUP3 ADD MSTORE POP JUMP JUMPDEST PUSH2 0x403 DUP2 PUSH2 0x35E JUMP JUMPDEST DUP2 EQ PUSH2 0x40E JUMPI PUSH1 0x0 DUP1 REVERT JUMPDEST POP JUMP JUMPDEST PUSH2 0x41A DUP2 PUSH2 0x39C JUMP JUMPDEST DUP2 EQ PUSH2 0x425 JUMPI PUSH1 0x0 DUP1 REVERT JUMPDEST POP JUMP INVALID LOG2 PUSH5 0x6970667358 0x22 SLT KECCAK256 AND 0xAA MSTORE8 0xB0 0x2B DUP14 SGT DUP11 0xBE JUMPDEST 0xD2 PUSH16 0x2A89C8889905635B62ACB04EE444033F PUSH18 0x65339164736F6C6343000807003300000000 "
				},
				"gasEstimates": {
					"creation": {
						"codeDepositCost": "223600",
						"executionCost": "24529",
						"totalCost": "248129"
					},
					"external": {
						"": "151",
						"getBalance()": "361",
						"owner()": "2555",
						"sendEther()": "120",
						"transferEther(address,uint256)": "infinite"
					}
				},
				"methodIdentifiers": {
					"getBalance()": "12065fe0",
					"owner()": "8da5cb5b",
					"sendEther()": "0e29df22",
					"transferEther(address,uint256)": "05b1137b"
				}
			},
			"storageLayout": {
				"storage": [
					{
						"astId": 3,
						"contract": "contracts/contract_address_balance.sol:Deposit",
						"label": "owner",
						"offset": 0,
						"slot": "0",
						"type": "t_address"
					}
				],
				"types": {
					"t_address": {
						"encoding": "inplace",
						"label": "address",
						"numberOfBytes": "20"
					}
				}
			},
			"userdoc": {
				"kind": "user",
				"methods": {},
				"version": 1
			}
		}
	}
}