{
	"contracts/state_variables.sol": {
		"Property": {
			"abi": [
				{
					"inputs": [
						{
							"internalType": "int256",
							"name": "_price",
							"type": "int256"
						},
						{
							"internalType": "string",
							"name": "_location",
							"type": "string"
						}
					],
					"stateMutability": "nonpayable",
					"type": "constructor"
				},
				{
					"inputs": [],
					"name": "getPrice",
					"outputs": [
						{
							"internalType": "int256",
							"name": "",
							"type": "int256"
						}
					],
					"stateMutability": "view",
					"type": "function"
				},
				{
					"inputs": [],
					"name": "location",
					"outputs": [
						{
							"internalType": "string",
							"name": "",
							"type": "string"
						}
					],
					"stateMutability": "view",
					"type": "function"
				},
				{
					"inputs": [],
					"name": "owner",
					"outputs": [
						{
							"internalType": "address",
							"name": "",
							"type": "address"
						}
					],
					"stateMutability": "view",
					"type": "function"
				},
				{
					"inputs": [],
					"name": "price",
					"outputs": [
						{
							"internalType": "int256",
							"name": "",
							"type": "int256"
						}
					],
					"stateMutability": "view",
					"type": "function"
				},
				{
					"inputs": [
						{
							"internalType": "int256",
							"name": "_price",
							"type": "int256"
						}
					],
					"name": "setPrice",
					"outputs": [],
					"stateMutability": "nonpayable",
					"type": "function"
				}
			],
			"devdoc": {
				"kind": "dev",
				"methods": {},
				"version": 1
			},
			"evm": {
				"assembly": "    /* \"contracts/state_variables.sol\":59:2074  contract Property{... */\n  mstore(0x40, 0xa0)\n    /* \"contracts/state_variables.sol\":512:649  constructor(int _price, string memory _location){... */\n  callvalue\n  dup1\n  iszero\n  tag_1\n  jumpi\n  0x00\n  dup1\n  revert\ntag_1:\n  pop\n  mload(0x40)\n  sub(codesize, bytecodeSize)\n  dup1\n  bytecodeSize\n  dup4\n  codecopy\n  dup2\n  dup2\n  add\n  0x40\n  mstore\n  dup2\n  add\n  swap1\n  tag_2\n  swap2\n  swap1\n  tag_3\n  jump\t// in\ntag_2:\n    /* \"contracts/state_variables.sol\":578:584  _price */\n  dup2\n    /* \"contracts/state_variables.sol\":570:575  price */\n  0x00\n    /* \"contracts/state_variables.sol\":570:584  price = _price */\n  dup2\n  swap1\n  sstore\n  pop\n    /* \"contracts/state_variables.sol\":605:614  _location */\n  dup1\n    /* \"contracts/state_variables.sol\":594:602  location */\n  0x01\n    /* \"contracts/state_variables.sol\":594:614  location = _location */\n  swap1\n  dup1\n  mload\n  swap1\n  0x20\n  add\n  swap1\n  tag_6\n  swap3\n  swap2\n  swap1\n  tag_7\n  jump\t// in\ntag_6:\n  pop\n    /* \"contracts/state_variables.sol\":632:642  msg.sender */\n  caller\n    /* \"contracts/state_variables.sol\":624:642  owner = msg.sender */\n  0xffffffffffffffffffffffffffffffffffffffff\n  and\n  0x80\n  dup2\n  0xffffffffffffffffffffffffffffffffffffffff\n  and\n  0x60\n  shl\n  dup2\n  mstore\n  pop\n  pop\n    /* \"contracts/state_variables.sol\":512:649  constructor(int _price, string memory _location){... */\n  pop\n  pop\n    /* \"contracts/state_variables.sol\":59:2074  contract Property{... */\n  jump(tag_8)\ntag_7:\n  dup3\n  dup1\n  sload\n  tag_9\n  swap1\n  tag_10\n  jump\t// in\ntag_9:\n  swap1\n  0x00\n  mstore\n  keccak256(0x00, 0x20)\n  swap1\n  0x1f\n  add\n  0x20\n  swap1\n  div\n  dup2\n  add\n  swap3\n  dup3\n  tag_12\n  jumpi\n  0x00\n  dup6\n  sstore\n  jump(tag_11)\ntag_12:\n  dup3\n  0x1f\n  lt\n  tag_13\n  jumpi\n  dup1\n  mload\n  not(0xff)\n  and\n  dup4\n  dup1\n  add\n  or\n  dup6\n  sstore\n  jump(tag_11)\ntag_13:\n  dup3\n  dup1\n  add\n  0x01\n  add\n  dup6\n  sstore\n  dup3\n  iszero\n  tag_11\n  jumpi\n  swap2\n  dup3\n  add\ntag_14:\n  dup3\n  dup2\n  gt\n  iszero\n  tag_15\n  jumpi\n  dup3\n  mload\n  dup3\n  sstore\n  swap2\n  0x20\n  add\n  swap2\n  swap1\n  0x01\n  add\n  swap1\n  jump(tag_14)\ntag_15:\ntag_11:\n  pop\n  swap1\n  pop\n  tag_16\n  swap2\n  swap1\n  tag_17\n  jump\t// in\ntag_16:\n  pop\n  swap1\n  jump\t// out\ntag_17:\ntag_18:\n  dup1\n  dup3\n  gt\n  iszero\n  tag_19\n  jumpi\n  0x00\n  dup2\n  0x00\n  swap1\n  sstore\n  pop\n  0x01\n  add\n  jump(tag_18)\ntag_19:\n  pop\n  swap1\n  jump\t// out\n    /* \"#utility.yul\":7:428   */\ntag_21:\n    /* \"#utility.yul\":96:101   */\n  0x00\n    /* \"#utility.yul\":121:187   */\n  tag_23\n    /* \"#utility.yul\":137:186   */\n  tag_24\n    /* \"#utility.yul\":179:185   */\n  dup5\n    /* \"#utility.yul\":137:186   */\n  tag_25\n  jump\t// in\ntag_24:\n    /* \"#utility.yul\":121:187   */\n  tag_26\n  jump\t// in\ntag_23:\n    /* \"#utility.yul\":112:187   */\n  swap1\n  pop\n    /* \"#utility.yul\":210:216   */\n  dup3\n    /* \"#utility.yul\":203:208   */\n  dup2\n    /* \"#utility.yul\":196:217   */\n  mstore\n    /* \"#utility.yul\":248:252   */\n  0x20\n    /* \"#utility.yul\":241:246   */\n  dup2\n    /* \"#utility.yul\":237:253   */\n  add\n    /* \"#utility.yul\":286:289   */\n  dup5\n    /* \"#utility.yul\":277:283   */\n  dup5\n    /* \"#utility.yul\":272:275   */\n  dup5\n    /* \"#utility.yul\":268:284   */\n  add\n    /* \"#utility.yul\":265:290   */\n  gt\n    /* \"#utility.yul\":262:374   */\n  iszero\n  tag_27\n  jumpi\n    /* \"#utility.yul\":293:372   */\n  tag_28\n  tag_29\n  jump\t// in\ntag_28:\n    /* \"#utility.yul\":262:374   */\ntag_27:\n    /* \"#utility.yul\":383:422   */\n  tag_30\n    /* \"#utility.yul\":415:421   */\n  dup5\n    /* \"#utility.yul\":410:413   */\n  dup3\n    /* \"#utility.yul\":405:408   */\n  dup6\n    /* \"#utility.yul\":383:422   */\n  tag_31\n  jump\t// in\ntag_30:\n    /* \"#utility.yul\":102:428   */\n  pop\n    /* \"#utility.yul\":7:428   */\n  swap4\n  swap3\n  pop\n  pop\n  pop\n  jump\t// out\n    /* \"#utility.yul\":434:575   */\ntag_32:\n    /* \"#utility.yul\":490:495   */\n  0x00\n    /* \"#utility.yul\":521:527   */\n  dup2\n    /* \"#utility.yul\":515:528   */\n  mload\n    /* \"#utility.yul\":506:528   */\n  swap1\n  pop\n    /* \"#utility.yul\":537:569   */\n  tag_34\n    /* \"#utility.yul\":563:568   */\n  dup2\n    /* \"#utility.yul\":537:569   */\n  tag_35\n  jump\t// in\ntag_34:\n    /* \"#utility.yul\":434:575   */\n  swap3\n  swap2\n  pop\n  pop\n  jump\t// out\n    /* \"#utility.yul\":595:950   */\ntag_36:\n    /* \"#utility.yul\":662:667   */\n  0x00\n    /* \"#utility.yul\":711:714   */\n  dup3\n    /* \"#utility.yul\":704:708   */\n  0x1f\n    /* \"#utility.yul\":696:702   */\n  dup4\n    /* \"#utility.yul\":692:709   */\n  add\n    /* \"#utility.yul\":688:715   */\n  slt\n    /* \"#utility.yul\":678:800   */\n  tag_38\n  jumpi\n    /* \"#utility.yul\":719:798   */\n  tag_39\n  tag_40\n  jump\t// in\ntag_39:\n    /* \"#utility.yul\":678:800   */\ntag_38:\n    /* \"#utility.yul\":829:835   */\n  dup2\n    /* \"#utility.yul\":823:836   */\n  mload\n    /* \"#utility.yul\":854:944   */\n  tag_41\n    /* \"#utility.yul\":940:943   */\n  dup5\n    /* \"#utility.yul\":932:938   */\n  dup3\n    /* \"#utility.yul\":925:929   */\n  0x20\n    /* \"#utility.yul\":917:923   */\n  dup7\n    /* \"#utility.yul\":913:930   */\n  add\n    /* \"#utility.yul\":854:944   */\n  tag_21\n  jump\t// in\ntag_41:\n    /* \"#utility.yul\":845:944   */\n  swap2\n  pop\n    /* \"#utility.yul\":668:950   */\n  pop\n    /* \"#utility.yul\":595:950   */\n  swap3\n  swap2\n  pop\n  pop\n  jump\t// out\n    /* \"#utility.yul\":956:1634   */\ntag_3:\n    /* \"#utility.yul\":1044:1050   */\n  0x00\n    /* \"#utility.yul\":1052:1058   */\n  dup1\n    /* \"#utility.yul\":1101:1103   */\n  0x40\n    /* \"#utility.yul\":1089:1098   */\n  dup4\n    /* \"#utility.yul\":1080:1087   */\n  dup6\n    /* \"#utility.yul\":1076:1099   */\n  sub\n    /* \"#utility.yul\":1072:1104   */\n  slt\n    /* \"#utility.yul\":1069:1188   */\n  iszero\n  tag_43\n  jumpi\n    /* \"#utility.yul\":1107:1186   */\n  tag_44\n  tag_45\n  jump\t// in\ntag_44:\n    /* \"#utility.yul\":1069:1188   */\ntag_43:\n    /* \"#utility.yul\":1227:1228   */\n  0x00\n    /* \"#utility.yul\":1252:1315   */\n  tag_46\n    /* \"#utility.yul\":1307:1314   */\n  dup6\n    /* \"#utility.yul\":1298:1304   */\n  dup3\n    /* \"#utility.yul\":1287:1296   */\n  dup7\n    /* \"#utility.yul\":1283:1305   */\n  add\n    /* \"#utility.yul\":1252:1315   */\n  tag_32\n  jump\t// in\ntag_46:\n    /* \"#utility.yul\":1242:1315   */\n  swap3\n  pop\n    /* \"#utility.yul\":1198:1325   */\n  pop\n    /* \"#utility.yul\":1385:1387   */\n  0x20\n    /* \"#utility.yul\":1374:1383   */\n  dup4\n    /* \"#utility.yul\":1370:1388   */\n  add\n    /* \"#utility.yul\":1364:1389   */\n  mload\n    /* \"#utility.yul\":1416:1434   */\n  0xffffffffffffffff\n    /* \"#utility.yul\":1408:1414   */\n  dup2\n    /* \"#utility.yul\":1405:1435   */\n  gt\n    /* \"#utility.yul\":1402:1519   */\n  iszero\n  tag_47\n  jumpi\n    /* \"#utility.yul\":1438:1517   */\n  tag_48\n  tag_49\n  jump\t// in\ntag_48:\n    /* \"#utility.yul\":1402:1519   */\ntag_47:\n    /* \"#utility.yul\":1543:1617   */\n  tag_50\n    /* \"#utility.yul\":1609:1616   */\n  dup6\n    /* \"#utility.yul\":1600:1606   */\n  dup3\n    /* \"#utility.yul\":1589:1598   */\n  dup7\n    /* \"#utility.yul\":1585:1607   */\n  add\n    /* \"#utility.yul\":1543:1617   */\n  tag_36\n  jump\t// in\ntag_50:\n    /* \"#utility.yul\":1533:1617   */\n  swap2\n  pop\n    /* \"#utility.yul\":1335:1627   */\n  pop\n    /* \"#utility.yul\":956:1634   */\n  swap3\n  pop\n  swap3\n  swap1\n  pop\n  jump\t// out\n    /* \"#utility.yul\":1640:1769   */\ntag_26:\n    /* \"#utility.yul\":1674:1680   */\n  0x00\n    /* \"#utility.yul\":1701:1721   */\n  tag_52\n  tag_53\n  jump\t// in\ntag_52:\n    /* \"#utility.yul\":1691:1721   */\n  swap1\n  pop\n    /* \"#utility.yul\":1730:1763   */\n  tag_54\n    /* \"#utility.yul\":1758:1762   */\n  dup3\n    /* \"#utility.yul\":1750:1756   */\n  dup3\n    /* \"#utility.yul\":1730:1763   */\n  tag_55\n  jump\t// in\ntag_54:\n    /* \"#utility.yul\":1640:1769   */\n  swap2\n  swap1\n  pop\n  jump\t// out\n    /* \"#utility.yul\":1775:1850   */\ntag_53:\n    /* \"#utility.yul\":1808:1814   */\n  0x00\n    /* \"#utility.yul\":1841:1843   */\n  0x40\n    /* \"#utility.yul\":1835:1844   */\n  mload\n    /* \"#utility.yul\":1825:1844   */\n  swap1\n  pop\n    /* \"#utility.yul\":1775:1850   */\n  swap1\n  jump\t// out\n    /* \"#utility.yul\":1856:2164   */\ntag_25:\n    /* \"#utility.yul\":1918:1922   */\n  0x00\n    /* \"#utility.yul\":2008:2026   */\n  0xffffffffffffffff\n    /* \"#utility.yul\":2000:2006   */\n  dup3\n    /* \"#utility.yul\":1997:2027   */\n  gt\n    /* \"#utility.yul\":1994:2050   */\n  iszero\n  tag_58\n  jumpi\n    /* \"#utility.yul\":2030:2048   */\n  tag_59\n  tag_60\n  jump\t// in\ntag_59:\n    /* \"#utility.yul\":1994:2050   */\ntag_58:\n    /* \"#utility.yul\":2068:2097   */\n  tag_61\n    /* \"#utility.yul\":2090:2096   */\n  dup3\n    /* \"#utility.yul\":2068:2097   */\n  tag_62\n  jump\t// in\ntag_61:\n    /* \"#utility.yul\":2060:2097   */\n  swap1\n  pop\n    /* \"#utility.yul\":2152:2156   */\n  0x20\n    /* \"#utility.yul\":2146:2150   */\n  dup2\n    /* \"#utility.yul\":2142:2157   */\n  add\n    /* \"#utility.yul\":2134:2157   */\n  swap1\n  pop\n    /* \"#utility.yul\":1856:2164   */\n  swap2\n  swap1\n  pop\n  jump\t// out\n    /* \"#utility.yul\":2170:2246   */\ntag_63:\n    /* \"#utility.yul\":2206:2213   */\n  0x00\n    /* \"#utility.yul\":2235:2240   */\n  dup2\n    /* \"#utility.yul\":2224:2240   */\n  swap1\n  pop\n    /* \"#utility.yul\":2170:2246   */\n  swap2\n  swap1\n  pop\n  jump\t// out\n    /* \"#utility.yul\":2252:2559   */\ntag_31:\n    /* \"#utility.yul\":2320:2321   */\n  0x00\n    /* \"#utility.yul\":2330:2443   */\ntag_66:\n    /* \"#utility.yul\":2344:2350   */\n  dup4\n    /* \"#utility.yul\":2341:2342   */\n  dup2\n    /* \"#utility.yul\":2338:2351   */\n  lt\n    /* \"#utility.yul\":2330:2443   */\n  iszero\n  tag_68\n  jumpi\n    /* \"#utility.yul\":2429:2430   */\n  dup1\n    /* \"#utility.yul\":2424:2427   */\n  dup3\n    /* \"#utility.yul\":2420:2431   */\n  add\n    /* \"#utility.yul\":2414:2432   */\n  mload\n    /* \"#utility.yul\":2410:2411   */\n  dup2\n    /* \"#utility.yul\":2405:2408   */\n  dup5\n    /* \"#utility.yul\":2401:2412   */\n  add\n    /* \"#utility.yul\":2394:2433   */\n  mstore\n    /* \"#utility.yul\":2366:2368   */\n  0x20\n    /* \"#utility.yul\":2363:2364   */\n  dup2\n    /* \"#utility.yul\":2359:2369   */\n  add\n    /* \"#utility.yul\":2354:2369   */\n  swap1\n  pop\n    /* \"#utility.yul\":2330:2443   */\n  jump(tag_66)\ntag_68:\n    /* \"#utility.yul\":2461:2467   */\n  dup4\n    /* \"#utility.yul\":2458:2459   */\n  dup2\n    /* \"#utility.yul\":2455:2468   */\n  gt\n    /* \"#utility.yul\":2452:2553   */\n  iszero\n  tag_69\n  jumpi\n    /* \"#utility.yul\":2541:2542   */\n  0x00\n    /* \"#utility.yul\":2532:2538   */\n  dup5\n    /* \"#utility.yul\":2527:2530   */\n  dup5\n    /* \"#utility.yul\":2523:2539   */\n  add\n    /* \"#utility.yul\":2516:2543   */\n  mstore\n    /* \"#utility.yul\":2452:2553   */\ntag_69:\n    /* \"#utility.yul\":2301:2559   */\n  pop\n    /* \"#utility.yul\":2252:2559   */\n  pop\n  pop\n  pop\n  jump\t// out\n    /* \"#utility.yul\":2565:2885   */\ntag_10:\n    /* \"#utility.yul\":2609:2615   */\n  0x00\n    /* \"#utility.yul\":2646:2647   */\n  0x02\n    /* \"#utility.yul\":2640:2644   */\n  dup3\n    /* \"#utility.yul\":2636:2648   */\n  div\n    /* \"#utility.yul\":2626:2648   */\n  swap1\n  pop\n    /* \"#utility.yul\":2693:2694   */\n  0x01\n    /* \"#utility.yul\":2687:2691   */\n  dup3\n    /* \"#utility.yul\":2683:2695   */\n  and\n    /* \"#utility.yul\":2714:2732   */\n  dup1\n    /* \"#utility.yul\":2704:2785   */\n  tag_71\n  jumpi\n    /* \"#utility.yul\":2770:2774   */\n  0x7f\n    /* \"#utility.yul\":2762:2768   */\n  dup3\n    /* \"#utility.yul\":2758:2775   */\n  and\n    /* \"#utility.yul\":2748:2775   */\n  swap2\n  pop\n    /* \"#utility.yul\":2704:2785   */\ntag_71:\n    /* \"#utility.yul\":2832:2834   */\n  0x20\n    /* \"#utility.yul\":2824:2830   */\n  dup3\n    /* \"#utility.yul\":2821:2835   */\n  lt\n    /* \"#utility.yul\":2801:2819   */\n  dup2\n    /* \"#utility.yul\":2798:2836   */\n  eq\n    /* \"#utility.yul\":2795:2879   */\n  iszero\n  tag_72\n  jumpi\n    /* \"#utility.yul\":2851:2869   */\n  tag_73\n  tag_74\n  jump\t// in\ntag_73:\n    /* \"#utility.yul\":2795:2879   */\ntag_72:\n    /* \"#utility.yul\":2616:2885   */\n  pop\n    /* \"#utility.yul\":2565:2885   */\n  swap2\n  swap1\n  pop\n  jump\t// out\n    /* \"#utility.yul\":2891:3172   */\ntag_55:\n    /* \"#utility.yul\":2974:3001   */\n  tag_76\n    /* \"#utility.yul\":2996:3000   */\n  dup3\n    /* \"#utility.yul\":2974:3001   */\n  tag_62\n  jump\t// in\ntag_76:\n    /* \"#utility.yul\":2966:2972   */\n  dup2\n    /* \"#utility.yul\":2962:3002   */\n  add\n    /* \"#utility.yul\":3104:3110   */\n  dup2\n    /* \"#utility.yul\":3092:3102   */\n  dup2\n    /* \"#utility.yul\":3089:3111   */\n  lt\n    /* \"#utility.yul\":3068:3086   */\n  0xffffffffffffffff\n    /* \"#utility.yul\":3056:3066   */\n  dup3\n    /* \"#utility.yul\":3053:3087   */\n  gt\n    /* \"#utility.yul\":3050:3112   */\n  or\n    /* \"#utility.yul\":3047:3135   */\n  iszero\n  tag_77\n  jumpi\n    /* \"#utility.yul\":3115:3133   */\n  tag_78\n  tag_60\n  jump\t// in\ntag_78:\n    /* \"#utility.yul\":3047:3135   */\ntag_77:\n    /* \"#utility.yul\":3155:3165   */\n  dup1\n    /* \"#utility.yul\":3151:3153   */\n  0x40\n    /* \"#utility.yul\":3144:3166   */\n  mstore\n    /* \"#utility.yul\":2934:3172   */\n  pop\n    /* \"#utility.yul\":2891:3172   */\n  pop\n  pop\n  jump\t// out\n    /* \"#utility.yul\":3178:3358   */\ntag_74:\n    /* \"#utility.yul\":3226:3303   */\n  0x4e487b7100000000000000000000000000000000000000000000000000000000\n    /* \"#utility.yul\":3223:3224   */\n  0x00\n    /* \"#utility.yul\":3216:3304   */\n  mstore\n    /* \"#utility.yul\":3323:3327   */\n  0x22\n    /* \"#utility.yul\":3320:3321   */\n  0x04\n    /* \"#utility.yul\":3313:3328   */\n  mstore\n    /* \"#utility.yul\":3347:3351   */\n  0x24\n    /* \"#utility.yul\":3344:3345   */\n  0x00\n    /* \"#utility.yul\":3337:3352   */\n  revert\n    /* \"#utility.yul\":3364:3544   */\ntag_60:\n    /* \"#utility.yul\":3412:3489   */\n  0x4e487b7100000000000000000000000000000000000000000000000000000000\n    /* \"#utility.yul\":3409:3410   */\n  0x00\n    /* \"#utility.yul\":3402:3490   */\n  mstore\n    /* \"#utility.yul\":3509:3513   */\n  0x41\n    /* \"#utility.yul\":3506:3507   */\n  0x04\n    /* \"#utility.yul\":3499:3514   */\n  mstore\n    /* \"#utility.yul\":3533:3537   */\n  0x24\n    /* \"#utility.yul\":3530:3531   */\n  0x00\n    /* \"#utility.yul\":3523:3538   */\n  revert\n    /* \"#utility.yul\":3550:3667   */\ntag_40:\n    /* \"#utility.yul\":3659:3660   */\n  0x00\n    /* \"#utility.yul\":3656:3657   */\n  dup1\n    /* \"#utility.yul\":3649:3661   */\n  revert\n    /* \"#utility.yul\":3673:3790   */\ntag_29:\n    /* \"#utility.yul\":3782:3783   */\n  0x00\n    /* \"#utility.yul\":3779:3780   */\n  dup1\n    /* \"#utility.yul\":3772:3784   */\n  revert\n    /* \"#utility.yul\":3796:3913   */\ntag_49:\n    /* \"#utility.yul\":3905:3906   */\n  0x00\n    /* \"#utility.yul\":3902:3903   */\n  dup1\n    /* \"#utility.yul\":3895:3907   */\n  revert\n    /* \"#utility.yul\":3919:4036   */\ntag_45:\n    /* \"#utility.yul\":4028:4029   */\n  0x00\n    /* \"#utility.yul\":4025:4026   */\n  dup1\n    /* \"#utility.yul\":4018:4030   */\n  revert\n    /* \"#utility.yul\":4042:4144   */\ntag_62:\n    /* \"#utility.yul\":4083:4089   */\n  0x00\n    /* \"#utility.yul\":4134:4136   */\n  0x1f\n    /* \"#utility.yul\":4130:4137   */\n  not\n    /* \"#utility.yul\":4125:4127   */\n  0x1f\n    /* \"#utility.yul\":4118:4123   */\n  dup4\n    /* \"#utility.yul\":4114:4128   */\n  add\n    /* \"#utility.yul\":4110:4138   */\n  and\n    /* \"#utility.yul\":4100:4138   */\n  swap1\n  pop\n    /* \"#utility.yul\":4042:4144   */\n  swap2\n  swap1\n  pop\n  jump\t// out\n    /* \"#utility.yul\":4150:4270   */\ntag_35:\n    /* \"#utility.yul\":4222:4245   */\n  tag_87\n    /* \"#utility.yul\":4239:4244   */\n  dup2\n    /* \"#utility.yul\":4222:4245   */\n  tag_63\n  jump\t// in\ntag_87:\n    /* \"#utility.yul\":4215:4220   */\n  dup2\n    /* \"#utility.yul\":4212:4246   */\n  eq\n    /* \"#utility.yul\":4202:4264   */\n  tag_88\n  jumpi\n    /* \"#utility.yul\":4260:4261   */\n  0x00\n    /* \"#utility.yul\":4257:4258   */\n  dup1\n    /* \"#utility.yul\":4250:4262   */\n  revert\n    /* \"#utility.yul\":4202:4264   */\ntag_88:\n    /* \"#utility.yul\":4150:4270   */\n  pop\n  jump\t// out\n    /* \"contracts/state_variables.sol\":59:2074  contract Property{... */\ntag_8:\n  shr(0x60, mload(0x80))\n  codecopy(0x00, dataOffset(sub_0), dataSize(sub_0))\n  0x00\n  assignImmutable(\"0x52f1a9b320cab38e5da8a8f97989383aab0a49165fc91c737310e4f7e9821021\")\n  return(0x00, dataSize(sub_0))\nstop\n\nsub_0: assembly {\n        /* \"contracts/state_variables.sol\":59:2074  contract Property{... */\n      mstore(0x40, 0x80)\n      callvalue\n      dup1\n      iszero\n      tag_1\n      jumpi\n      0x00\n      dup1\n      revert\n    tag_1:\n      pop\n      jumpi(tag_2, lt(calldatasize, 0x04))\n      shr(0xe0, calldataload(0x00))\n      dup1\n      0x516f279e\n      eq\n      tag_3\n      jumpi\n      dup1\n      0x8da5cb5b\n      eq\n      tag_4\n      jumpi\n      dup1\n      0x98d5fdca\n      eq\n      tag_5\n      jumpi\n      dup1\n      0xa035b1fe\n      eq\n      tag_6\n      jumpi\n      dup1\n      0xf7a30806\n      eq\n      tag_7\n      jumpi\n    tag_2:\n      0x00\n      dup1\n      revert\n        /* \"contracts/state_variables.sol\":104:126  string public location */\n    tag_3:\n      tag_8\n      tag_9\n      jump\t// in\n    tag_8:\n      mload(0x40)\n      tag_10\n      swap2\n      swap1\n      tag_11\n      jump\t// in\n    tag_10:\n      mload(0x40)\n      dup1\n      swap2\n      sub\n      swap1\n      return\n        /* \"contracts/state_variables.sol\":132:162  address immutable public owner */\n    tag_4:\n      tag_12\n      tag_13\n      jump\t// in\n    tag_12:\n      mload(0x40)\n      tag_14\n      swap2\n      swap1\n      tag_15\n      jump\t// in\n    tag_14:\n      mload(0x40)\n      dup1\n      swap2\n      sub\n      swap1\n      return\n        /* \"contracts/state_variables.sol\":728:801  function getPrice() public view returns(int){... */\n    tag_5:\n      tag_16\n      tag_17\n      jump\t// in\n    tag_16:\n      mload(0x40)\n      tag_18\n      swap2\n      swap1\n      tag_19\n      jump\t// in\n    tag_18:\n      mload(0x40)\n      dup1\n      swap2\n      sub\n      swap1\n      return\n        /* \"contracts/state_variables.sol\":82:98  int public price */\n    tag_6:\n      tag_20\n      tag_21\n      jump\t// in\n    tag_20:\n      mload(0x40)\n      tag_22\n      swap2\n      swap1\n      tag_19\n      jump\t// in\n    tag_22:\n      mload(0x40)\n      dup1\n      swap2\n      sub\n      swap1\n      return\n        /* \"contracts/state_variables.sol\":655:722  function setPrice(int _price) public{... */\n    tag_7:\n      tag_23\n      0x04\n      dup1\n      calldatasize\n      sub\n      dup2\n      add\n      swap1\n      tag_24\n      swap2\n      swap1\n      tag_25\n      jump\t// in\n    tag_24:\n      tag_26\n      jump\t// in\n    tag_23:\n      stop\n        /* \"contracts/state_variables.sol\":104:126  string public location */\n    tag_9:\n      0x01\n      dup1\n      sload\n      tag_27\n      swap1\n      tag_28\n      jump\t// in\n    tag_27:\n      dup1\n      0x1f\n      add\n      0x20\n      dup1\n      swap2\n      div\n      mul\n      0x20\n      add\n      mload(0x40)\n      swap1\n      dup2\n      add\n      0x40\n      mstore\n      dup1\n      swap3\n      swap2\n      swap1\n      dup2\n      dup2\n      mstore\n      0x20\n      add\n      dup3\n      dup1\n      sload\n      tag_29\n      swap1\n      tag_28\n      jump\t// in\n    tag_29:\n      dup1\n      iszero\n      tag_30\n      jumpi\n      dup1\n      0x1f\n      lt\n      tag_31\n      jumpi\n      0x0100\n      dup1\n      dup4\n      sload\n      div\n      mul\n      dup4\n      mstore\n      swap2\n      0x20\n      add\n      swap2\n      jump(tag_30)\n    tag_31:\n      dup3\n      add\n      swap2\n      swap1\n      0x00\n      mstore\n      keccak256(0x00, 0x20)\n      swap1\n    tag_32:\n      dup2\n      sload\n      dup2\n      mstore\n      swap1\n      0x01\n      add\n      swap1\n      0x20\n      add\n      dup1\n      dup4\n      gt\n      tag_32\n      jumpi\n      dup3\n      swap1\n      sub\n      0x1f\n      and\n      dup3\n      add\n      swap2\n    tag_30:\n      pop\n      pop\n      pop\n      pop\n      pop\n      dup2\n      jump\t// out\n        /* \"contracts/state_variables.sol\":132:162  address immutable public owner */\n    tag_13:\n      immutable(\"0x52f1a9b320cab38e5da8a8f97989383aab0a49165fc91c737310e4f7e9821021\")\n      dup2\n      jump\t// out\n        /* \"contracts/state_variables.sol\":728:801  function getPrice() public view returns(int){... */\n    tag_17:\n        /* \"contracts/state_variables.sol\":768:771  int */\n      0x00\n        /* \"contracts/state_variables.sol\":789:794  price */\n      dup1\n      sload\n        /* \"contracts/state_variables.sol\":782:794  return price */\n      swap1\n      pop\n        /* \"contracts/state_variables.sol\":728:801  function getPrice() public view returns(int){... */\n      swap1\n      jump\t// out\n        /* \"contracts/state_variables.sol\":82:98  int public price */\n    tag_21:\n      sload(0x00)\n      dup2\n      jump\t// out\n        /* \"contracts/state_variables.sol\":655:722  function setPrice(int _price) public{... */\n    tag_26:\n        /* \"contracts/state_variables.sol\":709:715  _price */\n      dup1\n        /* \"contracts/state_variables.sol\":701:706  price */\n      0x00\n        /* \"contracts/state_variables.sol\":701:715  price = _price */\n      dup2\n      swap1\n      sstore\n      pop\n        /* \"contracts/state_variables.sol\":655:722  function setPrice(int _price) public{... */\n      pop\n      jump\t// out\n        /* \"#utility.yul\":7:144   */\n    tag_36:\n        /* \"#utility.yul\":52:57   */\n      0x00\n        /* \"#utility.yul\":90:96   */\n      dup2\n        /* \"#utility.yul\":77:97   */\n      calldataload\n        /* \"#utility.yul\":68:97   */\n      swap1\n      pop\n        /* \"#utility.yul\":106:138   */\n      tag_38\n        /* \"#utility.yul\":132:137   */\n      dup2\n        /* \"#utility.yul\":106:138   */\n      tag_39\n      jump\t// in\n    tag_38:\n        /* \"#utility.yul\":7:144   */\n      swap3\n      swap2\n      pop\n      pop\n      jump\t// out\n        /* \"#utility.yul\":150:477   */\n    tag_25:\n        /* \"#utility.yul\":208:214   */\n      0x00\n        /* \"#utility.yul\":257:259   */\n      0x20\n        /* \"#utility.yul\":245:254   */\n      dup3\n        /* \"#utility.yul\":236:243   */\n      dup5\n        /* \"#utility.yul\":232:255   */\n      sub\n        /* \"#utility.yul\":228:260   */\n      slt\n        /* \"#utility.yul\":225:344   */\n      iszero\n      tag_41\n      jumpi\n        /* \"#utility.yul\":263:342   */\n      tag_42\n      tag_43\n      jump\t// in\n    tag_42:\n        /* \"#utility.yul\":225:344   */\n    tag_41:\n        /* \"#utility.yul\":383:384   */\n      0x00\n        /* \"#utility.yul\":408:460   */\n      tag_44\n        /* \"#utility.yul\":452:459   */\n      dup5\n        /* \"#utility.yul\":443:449   */\n      dup3\n        /* \"#utility.yul\":432:441   */\n      dup6\n        /* \"#utility.yul\":428:450   */\n      add\n        /* \"#utility.yul\":408:460   */\n      tag_36\n      jump\t// in\n    tag_44:\n        /* \"#utility.yul\":398:460   */\n      swap2\n      pop\n        /* \"#utility.yul\":354:470   */\n      pop\n        /* \"#utility.yul\":150:477   */\n      swap3\n      swap2\n      pop\n      pop\n      jump\t// out\n        /* \"#utility.yul\":483:601   */\n    tag_45:\n        /* \"#utility.yul\":570:594   */\n      tag_47\n        /* \"#utility.yul\":588:593   */\n      dup2\n        /* \"#utility.yul\":570:594   */\n      tag_48\n      jump\t// in\n    tag_47:\n        /* \"#utility.yul\":565:568   */\n      dup3\n        /* \"#utility.yul\":558:595   */\n      mstore\n        /* \"#utility.yul\":483:601   */\n      pop\n      pop\n      jump\t// out\n        /* \"#utility.yul\":607:722   */\n    tag_49:\n        /* \"#utility.yul\":692:715   */\n      tag_51\n        /* \"#utility.yul\":709:714   */\n      dup2\n        /* \"#utility.yul\":692:715   */\n      tag_52\n      jump\t// in\n    tag_51:\n        /* \"#utility.yul\":687:690   */\n      dup3\n        /* \"#utility.yul\":680:716   */\n      mstore\n        /* \"#utility.yul\":607:722   */\n      pop\n      pop\n      jump\t// out\n        /* \"#utility.yul\":728:1092   */\n    tag_53:\n        /* \"#utility.yul\":816:819   */\n      0x00\n        /* \"#utility.yul\":844:883   */\n      tag_55\n        /* \"#utility.yul\":877:882   */\n      dup3\n        /* \"#utility.yul\":844:883   */\n      tag_56\n      jump\t// in\n    tag_55:\n        /* \"#utility.yul\":899:970   */\n      tag_57\n        /* \"#utility.yul\":963:969   */\n      dup2\n        /* \"#utility.yul\":958:961   */\n      dup6\n        /* \"#utility.yul\":899:970   */\n      tag_58\n      jump\t// in\n    tag_57:\n        /* \"#utility.yul\":892:970   */\n      swap4\n      pop\n        /* \"#utility.yul\":979:1031   */\n      tag_59\n        /* \"#utility.yul\":1024:1030   */\n      dup2\n        /* \"#utility.yul\":1019:1022   */\n      dup6\n        /* \"#utility.yul\":1012:1016   */\n      0x20\n        /* \"#utility.yul\":1005:1010   */\n      dup7\n        /* \"#utility.yul\":1001:1017   */\n      add\n        /* \"#utility.yul\":979:1031   */\n      tag_60\n      jump\t// in\n    tag_59:\n        /* \"#utility.yul\":1056:1085   */\n      tag_61\n        /* \"#utility.yul\":1078:1084   */\n      dup2\n        /* \"#utility.yul\":1056:1085   */\n      tag_62\n      jump\t// in\n    tag_61:\n        /* \"#utility.yul\":1051:1054   */\n      dup5\n        /* \"#utility.yul\":1047:1086   */\n      add\n        /* \"#utility.yul\":1040:1086   */\n      swap2\n      pop\n        /* \"#utility.yul\":820:1092   */\n      pop\n        /* \"#utility.yul\":728:1092   */\n      swap3\n      swap2\n      pop\n      pop\n      jump\t// out\n        /* \"#utility.yul\":1098:1320   */\n    tag_15:\n        /* \"#utility.yul\":1191:1195   */\n      0x00\n        /* \"#utility.yul\":1229:1231   */\n      0x20\n        /* \"#utility.yul\":1218:1227   */\n      dup3\n        /* \"#utility.yul\":1214:1232   */\n      add\n        /* \"#utility.yul\":1206:1232   */\n      swap1\n      pop\n        /* \"#utility.yul\":1242:1313   */\n      tag_64\n        /* \"#utility.yul\":1310:1311   */\n      0x00\n        /* \"#utility.yul\":1299:1308   */\n      dup4\n        /* \"#utility.yul\":1295:1312   */\n      add\n        /* \"#utility.yul\":1286:1292   */\n      dup5\n        /* \"#utility.yul\":1242:1313   */\n      tag_45\n      jump\t// in\n    tag_64:\n        /* \"#utility.yul\":1098:1320   */\n      swap3\n      swap2\n      pop\n      pop\n      jump\t// out\n        /* \"#utility.yul\":1326:1544   */\n    tag_19:\n        /* \"#utility.yul\":1417:1421   */\n      0x00\n        /* \"#utility.yul\":1455:1457   */\n      0x20\n        /* \"#utility.yul\":1444:1453   */\n      dup3\n        /* \"#utility.yul\":1440:1458   */\n      add\n        /* \"#utility.yul\":1432:1458   */\n      swap1\n      pop\n        /* \"#utility.yul\":1468:1537   */\n      tag_66\n        /* \"#utility.yul\":1534:1535   */\n      0x00\n        /* \"#utility.yul\":1523:1532   */\n      dup4\n        /* \"#utility.yul\":1519:1536   */\n      add\n        /* \"#utility.yul\":1510:1516   */\n      dup5\n        /* \"#utility.yul\":1468:1537   */\n      tag_49\n      jump\t// in\n    tag_66:\n        /* \"#utility.yul\":1326:1544   */\n      swap3\n      swap2\n      pop\n      pop\n      jump\t// out\n        /* \"#utility.yul\":1550:1863   */\n    tag_11:\n        /* \"#utility.yul\":1663:1667   */\n      0x00\n        /* \"#utility.yul\":1701:1703   */\n      0x20\n        /* \"#utility.yul\":1690:1699   */\n      dup3\n        /* \"#utility.yul\":1686:1704   */\n      add\n        /* \"#utility.yul\":1678:1704   */\n      swap1\n      pop\n        /* \"#utility.yul\":1750:1759   */\n      dup2\n        /* \"#utility.yul\":1744:1748   */\n      dup2\n        /* \"#utility.yul\":1740:1760   */\n      sub\n        /* \"#utility.yul\":1736:1737   */\n      0x00\n        /* \"#utility.yul\":1725:1734   */\n      dup4\n        /* \"#utility.yul\":1721:1738   */\n      add\n        /* \"#utility.yul\":1714:1761   */\n      mstore\n        /* \"#utility.yul\":1778:1856   */\n      tag_68\n        /* \"#utility.yul\":1851:1855   */\n      dup2\n        /* \"#utility.yul\":1842:1848   */\n      dup5\n        /* \"#utility.yul\":1778:1856   */\n      tag_53\n      jump\t// in\n    tag_68:\n        /* \"#utility.yul\":1770:1856   */\n      swap1\n      pop\n        /* \"#utility.yul\":1550:1863   */\n      swap3\n      swap2\n      pop\n      pop\n      jump\t// out\n        /* \"#utility.yul\":1950:2049   */\n    tag_56:\n        /* \"#utility.yul\":2002:2008   */\n      0x00\n        /* \"#utility.yul\":2036:2041   */\n      dup2\n        /* \"#utility.yul\":2030:2042   */\n      mload\n        /* \"#utility.yul\":2020:2042   */\n      swap1\n      pop\n        /* \"#utility.yul\":1950:2049   */\n      swap2\n      swap1\n      pop\n      jump\t// out\n        /* \"#utility.yul\":2055:2224   */\n    tag_58:\n        /* \"#utility.yul\":2139:2150   */\n      0x00\n        /* \"#utility.yul\":2173:2179   */\n      dup3\n        /* \"#utility.yul\":2168:2171   */\n      dup3\n        /* \"#utility.yul\":2161:2180   */\n      mstore\n        /* \"#utility.yul\":2213:2217   */\n      0x20\n        /* \"#utility.yul\":2208:2211   */\n      dup3\n        /* \"#utility.yul\":2204:2218   */\n      add\n        /* \"#utility.yul\":2189:2218   */\n      swap1\n      pop\n        /* \"#utility.yul\":2055:2224   */\n      swap3\n      swap2\n      pop\n      pop\n      jump\t// out\n        /* \"#utility.yul\":2230:2326   */\n    tag_48:\n        /* \"#utility.yul\":2267:2274   */\n      0x00\n        /* \"#utility.yul\":2296:2320   */\n      tag_74\n        /* \"#utility.yul\":2314:2319   */\n      dup3\n        /* \"#utility.yul\":2296:2320   */\n      tag_75\n      jump\t// in\n    tag_74:\n        /* \"#utility.yul\":2285:2320   */\n      swap1\n      pop\n        /* \"#utility.yul\":2230:2326   */\n      swap2\n      swap1\n      pop\n      jump\t// out\n        /* \"#utility.yul\":2332:2408   */\n    tag_52:\n        /* \"#utility.yul\":2368:2375   */\n      0x00\n        /* \"#utility.yul\":2397:2402   */\n      dup2\n        /* \"#utility.yul\":2386:2402   */\n      swap1\n      pop\n        /* \"#utility.yul\":2332:2408   */\n      swap2\n      swap1\n      pop\n      jump\t// out\n        /* \"#utility.yul\":2414:2540   */\n    tag_75:\n        /* \"#utility.yul\":2451:2458   */\n      0x00\n        /* \"#utility.yul\":2491:2533   */\n      0xffffffffffffffffffffffffffffffffffffffff\n        /* \"#utility.yul\":2484:2489   */\n      dup3\n        /* \"#utility.yul\":2480:2534   */\n      and\n        /* \"#utility.yul\":2469:2534   */\n      swap1\n      pop\n        /* \"#utility.yul\":2414:2540   */\n      swap2\n      swap1\n      pop\n      jump\t// out\n        /* \"#utility.yul\":2546:2853   */\n    tag_60:\n        /* \"#utility.yul\":2614:2615   */\n      0x00\n        /* \"#utility.yul\":2624:2737   */\n    tag_79:\n        /* \"#utility.yul\":2638:2644   */\n      dup4\n        /* \"#utility.yul\":2635:2636   */\n      dup2\n        /* \"#utility.yul\":2632:2645   */\n      lt\n        /* \"#utility.yul\":2624:2737   */\n      iszero\n      tag_81\n      jumpi\n        /* \"#utility.yul\":2723:2724   */\n      dup1\n        /* \"#utility.yul\":2718:2721   */\n      dup3\n        /* \"#utility.yul\":2714:2725   */\n      add\n        /* \"#utility.yul\":2708:2726   */\n      mload\n        /* \"#utility.yul\":2704:2705   */\n      dup2\n        /* \"#utility.yul\":2699:2702   */\n      dup5\n        /* \"#utility.yul\":2695:2706   */\n      add\n        /* \"#utility.yul\":2688:2727   */\n      mstore\n        /* \"#utility.yul\":2660:2662   */\n      0x20\n        /* \"#utility.yul\":2657:2658   */\n      dup2\n        /* \"#utility.yul\":2653:2663   */\n      add\n        /* \"#utility.yul\":2648:2663   */\n      swap1\n      pop\n        /* \"#utility.yul\":2624:2737   */\n      jump(tag_79)\n    tag_81:\n        /* \"#utility.yul\":2755:2761   */\n      dup4\n        /* \"#utility.yul\":2752:2753   */\n      dup2\n        /* \"#utility.yul\":2749:2762   */\n      gt\n        /* \"#utility.yul\":2746:2847   */\n      iszero\n      tag_82\n      jumpi\n        /* \"#utility.yul\":2835:2836   */\n      0x00\n        /* \"#utility.yul\":2826:2832   */\n      dup5\n        /* \"#utility.yul\":2821:2824   */\n      dup5\n        /* \"#utility.yul\":2817:2833   */\n      add\n        /* \"#utility.yul\":2810:2837   */\n      mstore\n        /* \"#utility.yul\":2746:2847   */\n    tag_82:\n        /* \"#utility.yul\":2595:2853   */\n      pop\n        /* \"#utility.yul\":2546:2853   */\n      pop\n      pop\n      pop\n      jump\t// out\n        /* \"#utility.yul\":2859:3179   */\n    tag_28:\n        /* \"#utility.yul\":2903:2909   */\n      0x00\n        /* \"#utility.yul\":2940:2941   */\n      0x02\n        /* \"#utility.yul\":2934:2938   */\n      dup3\n        /* \"#utility.yul\":2930:2942   */\n      div\n        /* \"#utility.yul\":2920:2942   */\n      swap1\n      pop\n        /* \"#utility.yul\":2987:2988   */\n      0x01\n        /* \"#utility.yul\":2981:2985   */\n      dup3\n        /* \"#utility.yul\":2977:2989   */\n      and\n        /* \"#utility.yul\":3008:3026   */\n      dup1\n        /* \"#utility.yul\":2998:3079   */\n      tag_84\n      jumpi\n        /* \"#utility.yul\":3064:3068   */\n      0x7f\n        /* \"#utility.yul\":3056:3062   */\n      dup3\n        /* \"#utility.yul\":3052:3069   */\n      and\n        /* \"#utility.yul\":3042:3069   */\n      swap2\n      pop\n        /* \"#utility.yul\":2998:3079   */\n    tag_84:\n        /* \"#utility.yul\":3126:3128   */\n      0x20\n        /* \"#utility.yul\":3118:3124   */\n      dup3\n        /* \"#utility.yul\":3115:3129   */\n      lt\n        /* \"#utility.yul\":3095:3113   */\n      dup2\n        /* \"#utility.yul\":3092:3130   */\n      eq\n        /* \"#utility.yul\":3089:3173   */\n      iszero\n      tag_85\n      jumpi\n        /* \"#utility.yul\":3145:3163   */\n      tag_86\n      tag_87\n      jump\t// in\n    tag_86:\n        /* \"#utility.yul\":3089:3173   */\n    tag_85:\n        /* \"#utility.yul\":2910:3179   */\n      pop\n        /* \"#utility.yul\":2859:3179   */\n      swap2\n      swap1\n      pop\n      jump\t// out\n        /* \"#utility.yul\":3185:3365   */\n    tag_87:\n        /* \"#utility.yul\":3233:3310   */\n      0x4e487b7100000000000000000000000000000000000000000000000000000000\n        /* \"#utility.yul\":3230:3231   */\n      0x00\n        /* \"#utility.yul\":3223:3311   */\n      mstore\n        /* \"#utility.yul\":3330:3334   */\n      0x22\n        /* \"#utility.yul\":3327:3328   */\n      0x04\n        /* \"#utility.yul\":3320:3335   */\n      mstore\n        /* \"#utility.yul\":3354:3358   */\n      0x24\n        /* \"#utility.yul\":3351:3352   */\n      0x00\n        /* \"#utility.yul\":3344:3359   */\n      revert\n        /* \"#utility.yul\":3494:3611   */\n    tag_43:\n        /* \"#utility.yul\":3603:3604   */\n      0x00\n        /* \"#utility.yul\":3600:3601   */\n      dup1\n        /* \"#utility.yul\":3593:3605   */\n      revert\n        /* \"#utility.yul\":3617:3719   */\n    tag_62:\n        /* \"#utility.yul\":3658:3664   */\n      0x00\n        /* \"#utility.yul\":3709:3711   */\n      0x1f\n        /* \"#utility.yul\":3705:3712   */\n      not\n        /* \"#utility.yul\":3700:3702   */\n      0x1f\n        /* \"#utility.yul\":3693:3698   */\n      dup4\n        /* \"#utility.yul\":3689:3703   */\n      add\n        /* \"#utility.yul\":3685:3713   */\n      and\n        /* \"#utility.yul\":3675:3713   */\n      swap1\n      pop\n        /* \"#utility.yul\":3617:3719   */\n      swap2\n      swap1\n      pop\n      jump\t// out\n        /* \"#utility.yul\":3725:3845   */\n    tag_39:\n        /* \"#utility.yul\":3797:3820   */\n      tag_94\n        /* \"#utility.yul\":3814:3819   */\n      dup2\n        /* \"#utility.yul\":3797:3820   */\n      tag_52\n      jump\t// in\n    tag_94:\n        /* \"#utility.yul\":3790:3795   */\n      dup2\n        /* \"#utility.yul\":3787:3821   */\n      eq\n        /* \"#utility.yul\":3777:3839   */\n      tag_95\n      jumpi\n        /* \"#utility.yul\":3835:3836   */\n      0x00\n        /* \"#utility.yul\":3832:3833   */\n      dup1\n        /* \"#utility.yul\":3825:3837   */\n      revert\n        /* \"#utility.yul\":3777:3839   */\n    tag_95:\n        /* \"#utility.yul\":3725:3845   */\n      pop\n      jump\t// out\n\n    auxdata: 0xa264697066735822122002e1a7ecbc400c9b54d30edc2fdebb129365432c0bbb95e6df0416784545d77e64736f6c63430008070033\n}\n",
				"bytecode": {
					"linkReferences": {},
					"object": "60a06040523480156200001157600080fd5b5060405162000803380380620008038339818101604052810190620000379190620001db565b8160008190555080600190805190602001906200005692919062000096565b503373ffffffffffffffffffffffffffffffffffffffff1660808173ffffffffffffffffffffffffffffffffffffffff1660601b815250505050620003e9565b828054620000a490620002e0565b90600052602060002090601f016020900481019282620000c8576000855562000114565b82601f10620000e357805160ff191683800117855562000114565b8280016001018555821562000114579182015b8281111562000113578251825591602001919060010190620000f6565b5b50905062000123919062000127565b5090565b5b808211156200014257600081600090555060010162000128565b5090565b60006200015d62000157846200026a565b62000241565b9050828152602081018484840111156200017c576200017b620003af565b5b62000189848285620002aa565b509392505050565b600081519050620001a281620003cf565b92915050565b600082601f830112620001c057620001bf620003aa565b5b8151620001d284826020860162000146565b91505092915050565b60008060408385031215620001f557620001f4620003b9565b5b6000620002058582860162000191565b925050602083015167ffffffffffffffff811115620002295762000228620003b4565b5b6200023785828601620001a8565b9150509250929050565b60006200024d62000260565b90506200025b828262000316565b919050565b6000604051905090565b600067ffffffffffffffff8211156200028857620002876200037b565b5b6200029382620003be565b9050602081019050919050565b6000819050919050565b60005b83811015620002ca578082015181840152602081019050620002ad565b83811115620002da576000848401525b50505050565b60006002820490506001821680620002f957607f821691505b6020821081141562000310576200030f6200034c565b5b50919050565b6200032182620003be565b810181811067ffffffffffffffff821117156200034357620003426200037b565b5b80604052505050565b7f4e487b7100000000000000000000000000000000000000000000000000000000600052602260045260246000fd5b7f4e487b7100000000000000000000000000000000000000000000000000000000600052604160045260246000fd5b600080fd5b600080fd5b600080fd5b600080fd5b6000601f19601f8301169050919050565b620003da81620002a0565b8114620003e657600080fd5b50565b60805160601c6103fb62000408600039600061018001526103fb6000f3fe608060405234801561001057600080fd5b50600436106100575760003560e01c8063516f279e1461005c5780638da5cb5b1461007a57806398d5fdca14610098578063a035b1fe146100b6578063f7a30806146100d4575b600080fd5b6100646100f0565b604051610071919061028a565b60405180910390f35b61008261017e565b60405161008f9190610254565b60405180910390f35b6100a06101a2565b6040516100ad919061026f565b60405180910390f35b6100be6101ab565b6040516100cb919061026f565b60405180910390f35b6100ee60048036038101906100e991906101d0565b6101b1565b005b600180546100fd90610337565b80601f016020809104026020016040519081016040528092919081815260200182805461012990610337565b80156101765780601f1061014b57610100808354040283529160200191610176565b820191906000526020600020905b81548152906001019060200180831161015957829003601f168201915b505050505081565b7f000000000000000000000000000000000000000000000000000000000000000081565b60008054905090565b60005481565b8060008190555050565b6000813590506101ca816103ae565b92915050565b6000602082840312156101e6576101e5610398565b5b60006101f4848285016101bb565b91505092915050565b610206816102c8565b82525050565b610215816102da565b82525050565b6000610226826102ac565b61023081856102b7565b9350610240818560208601610304565b6102498161039d565b840191505092915050565b600060208201905061026960008301846101fd565b92915050565b6000602082019050610284600083018461020c565b92915050565b600060208201905081810360008301526102a4818461021b565b905092915050565b600081519050919050565b600082825260208201905092915050565b60006102d3826102e4565b9050919050565b6000819050919050565b600073ffffffffffffffffffffffffffffffffffffffff82169050919050565b60005b83811015610322578082015181840152602081019050610307565b83811115610331576000848401525b50505050565b6000600282049050600182168061034f57607f821691505b6020821081141561036357610362610369565b5b50919050565b7f4e487b7100000000000000000000000000000000000000000000000000000000600052602260045260246000fd5b600080fd5b6000601f19601f8301169050919050565b6103b7816102da565b81146103c257600080fd5b5056fea264697066735822122002e1a7ecbc400c9b54d30edc2fdebb129365432c0bbb95e6df0416784545d77e64736f6c63430008070033",
					"opcodes": "PUSH1 0xA0 PUSH1 0x40 MSTORE CALLVALUE DUP1 ISZERO PUSH3 0x11 JUMPI PUSH1 0x0 DUP1 REVERT JUMPDEST POP PUSH1 0x40 MLOAD PUSH3 0x803 CODESIZE SUB DUP1 PUSH3 0x803 DUP4 CODECOPY DUP2 DUP2 ADD PUSH1 0x40 MSTORE DUP2 ADD SWAP1 PUSH3 0x37 SWAP2 SWAP1 PUSH3 0x1DB JUMP JUMPDEST DUP2 PUSH1 0x0 DUP2 SWAP1 SSTORE POP DUP1 PUSH1 0x1 SWAP1 DUP1 MLOAD SWAP1 PUSH1 0x20 ADD SWAP1 PUSH3 0x56 SWAP3 SWAP2 SWAP1 PUSH3 0x96 JUMP JUMPDEST POP CALLER PUSH20 0xFFFFFFFFFFFFFFFFFFFFFFFFFFFFFFFFFFFFFFFF AND PUSH1 0x80 DUP2 PUSH20 0xFFFFFFFFFFFFFFFFFFFFFFFFFFFFFFFFFFFFFFFF AND PUSH1 0x60 SHL DUP2 MSTORE POP POP POP POP PUSH3 0x3E9 JUMP JUMPDEST DUP3 DUP1 SLOAD PUSH3 0xA4 SWAP1 PUSH3 0x2E0 JUMP JUMPDEST SWAP1 PUSH1 0x0 MSTORE PUSH1 0x20 PUSH1 0x0 KECCAK256 SWAP1 PUSH1 0x1F ADD PUSH1 0x20 SWAP1 DIV DUP2 ADD SWAP3 DUP3 PUSH3 0xC8 JUMPI PUSH1 0x0 DUP6 SSTORE PUSH3 0x114 JUMP JUMPDEST DUP3 PUSH1 0x1F LT PUSH3 0xE3 JUMPI DUP1 MLOAD PUSH1 0xFF NOT AND DUP4 DUP1 ADD OR DUP6 SSTORE PUSH3 0x114 JUMP JUMPDEST DUP3 DUP1 ADD PUSH1 0x1 ADD DUP6 SSTORE DUP3 ISZERO PUSH3 0x114 JUMPI SWAP2 DUP3 ADD JUMPDEST DUP3 DUP2 GT ISZERO PUSH3 0x113 JUMPI DUP3 MLOAD DUP3 SSTORE SWAP2 PUSH1 0x20 ADD SWAP2 SWAP1 PUSH1 0x1 ADD SWAP1 PUSH3 0xF6 JUMP JUMPDEST JUMPDEST POP SWAP1 POP PUSH3 0x123 SWAP2 SWAP1 PUSH3 0x127 JUMP JUMPDEST POP SWAP1 JUMP JUMPDEST JUMPDEST DUP1 DUP3 GT ISZERO PUSH3 0x142 JUMPI PUSH1 0x0 DUP2 PUSH1 0x0 SWAP1 SSTORE POP PUSH1 0x1 ADD PUSH3 0x128 JUMP JUMPDEST POP SWAP1 JUMP JUMPDEST PUSH1 0x0 PUSH3 0x15D PUSH3 0x157 DUP5 PUSH3 0x26A JUMP JUMPDEST PUSH3 0x241 JUMP JUMPDEST SWAP1 POP DUP3 DUP2 MSTORE PUSH1 0x20 DUP2 ADD DUP5 DUP5 DUP5 ADD GT ISZERO PUSH3 0x17C JUMPI PUSH3 0x17B PUSH3 0x3AF JUMP JUMPDEST JUMPDEST PUSH3 0x189 DUP5 DUP3 DUP6 PUSH3 0x2AA JUMP JUMPDEST POP SWAP4 SWAP3 POP POP POP JUMP JUMPDEST PUSH1 0x0 DUP2 MLOAD SWAP1 POP PUSH3 0x1A2 DUP2 PUSH3 0x3CF JUMP JUMPDEST SWAP3 SWAP2 POP POP JUMP JUMPDEST PUSH1 0x0 DUP3 PUSH1 0x1F DUP4 ADD SLT PUSH3 0x1C0 JUMPI PUSH3 0x1BF PUSH3 0x3AA JUMP JUMPDEST JUMPDEST DUP2 MLOAD PUSH3 0x1D2 DUP5 DUP3 PUSH1 0x20 DUP7 ADD PUSH3 0x146 JUMP JUMPDEST SWAP2 POP POP SWAP3 SWAP2 POP POP JUMP JUMPDEST PUSH1 0x0 DUP1 PUSH1 0x40 DUP4 DUP6 SUB SLT ISZERO PUSH3 0x1F5 JUMPI PUSH3 0x1F4 PUSH3 0x3B9 JUMP JUMPDEST JUMPDEST PUSH1 0x0 PUSH3 0x205 DUP6 DUP3 DUP7 ADD PUSH3 0x191 JUMP JUMPDEST SWAP3 POP POP PUSH1 0x20 DUP4 ADD MLOAD PUSH8 0xFFFFFFFFFFFFFFFF DUP2 GT ISZERO PUSH3 0x229 JUMPI PUSH3 0x228 PUSH3 0x3B4 JUMP JUMPDEST JUMPDEST PUSH3 0x237 DUP6 DUP3 DUP7 ADD PUSH3 0x1A8 JUMP JUMPDEST SWAP2 POP POP SWAP3 POP SWAP3 SWAP1 POP JUMP JUMPDEST PUSH1 0x0 PUSH3 0x24D PUSH3 0x260 JUMP JUMPDEST SWAP1 POP PUSH3 0x25B DUP3 DUP3 PUSH3 0x316 JUMP JUMPDEST SWAP2 SWAP1 POP JUMP JUMPDEST PUSH1 0x0 PUSH1 0x40 MLOAD SWAP1 POP SWAP1 JUMP JUMPDEST PUSH1 0x0 PUSH8 0xFFFFFFFFFFFFFFFF DUP3 GT ISZERO PUSH3 0x288 JUMPI PUSH3 0x287 PUSH3 0x37B JUMP JUMPDEST JUMPDEST PUSH3 0x293 DUP3 PUSH3 0x3BE JUMP JUMPDEST SWAP1 POP PUSH1 0x20 DUP2 ADD SWAP1 POP SWAP2 SWAP1 POP JUMP JUMPDEST PUSH1 0x0 DUP2 SWAP1 POP SWAP2 SWAP1 POP JUMP JUMPDEST PUSH1 0x0 JUMPDEST DUP4 DUP2 LT ISZERO PUSH3 0x2CA JUMPI DUP1 DUP3 ADD MLOAD DUP2 DUP5 ADD MSTORE PUSH1 0x20 DUP2 ADD SWAP1 POP PUSH3 0x2AD JUMP JUMPDEST DUP4 DUP2 GT ISZERO PUSH3 0x2DA JUMPI PUSH1 0x0 DUP5 DUP5 ADD MSTORE JUMPDEST POP POP POP POP JUMP JUMPDEST PUSH1 0x0 PUSH1 0x2 DUP3 DIV SWAP1 POP PUSH1 0x1 DUP3 AND DUP1 PUSH3 0x2F9 JUMPI PUSH1 0x7F DUP3 AND SWAP2 POP JUMPDEST PUSH1 0x20 DUP3 LT DUP2 EQ ISZERO PUSH3 0x310 JUMPI PUSH3 0x30F PUSH3 0x34C JUMP JUMPDEST JUMPDEST POP SWAP2 SWAP1 POP JUMP JUMPDEST PUSH3 0x321 DUP3 PUSH3 0x3BE JUMP JUMPDEST DUP2 ADD DUP2 DUP2 LT PUSH8 0xFFFFFFFFFFFFFFFF DUP3 GT OR ISZERO PUSH3 0x343 JUMPI PUSH3 0x342 PUSH3 0x37B JUMP JUMPDEST JUMPDEST DUP1 PUSH1 0x40 MSTORE POP POP POP JUMP JUMPDEST PUSH32 0x4E487B7100000000000000000000000000000000000000000000000000000000 PUSH1 0x0 MSTORE PUSH1 0x22 PUSH1 0x4 MSTORE PUSH1 0x24 PUSH1 0x0 REVERT JUMPDEST PUSH32 0x4E487B7100000000000000000000000000000000000000000000000000000000 PUSH1 0x0 MSTORE PUSH1 0x41 PUSH1 0x4 MSTORE PUSH1 0x24 PUSH1 0x0 REVERT JUMPDEST PUSH1 0x0 DUP1 REVERT JUMPDEST PUSH1 0x0 DUP1 REVERT JUMPDEST PUSH1 0x0 DUP1 REVERT JUMPDEST PUSH1 0x0 DUP1 REVERT JUMPDEST PUSH1 0x0 PUSH1 0x1F NOT PUSH1 0x1F DUP4 ADD AND SWAP1 POP SWAP2 SWAP1 POP JUMP JUMPDEST PUSH3 0x3DA DUP2 PUSH3 0x2A0 JUMP JUMPDEST DUP2 EQ PUSH3 0x3E6 JUMPI PUSH1 0x0 DUP1 REVERT JUMPDEST POP JUMP JUMPDEST PUSH1 0x80 MLOAD PUSH1 0x60 SHR PUSH2 0x3FB PUSH3 0x408 PUSH1 0x0 CODECOPY PUSH1 0x0 PUSH2 0x180 ADD MSTORE PUSH2 0x3FB PUSH1 0x0 RETURN INVALID PUSH1 0x80 PUSH1 0x40 MSTORE CALLVALUE DUP1 ISZERO PUSH2 0x10 JUMPI PUSH1 0x0 DUP1 REVERT JUMPDEST POP PUSH1 0x4 CALLDATASIZE LT PUSH2 0x57 JUMPI PUSH1 0x0 CALLDATALOAD PUSH1 0xE0 SHR DUP1 PUSH4 0x516F279E EQ PUSH2 0x5C JUMPI DUP1 PUSH4 0x8DA5CB5B EQ PUSH2 0x7A JUMPI DUP1 PUSH4 0x98D5FDCA EQ PUSH2 0x98 JUMPI DUP1 PUSH4 0xA035B1FE EQ PUSH2 0xB6 JUMPI DUP1 PUSH4 0xF7A30806 EQ PUSH2 0xD4 JUMPI JUMPDEST PUSH1 0x0 DUP1 REVERT JUMPDEST PUSH2 0x64 PUSH2 0xF0 JUMP JUMPDEST PUSH1 0x40 MLOAD PUSH2 0x71 SWAP2 SWAP1 PUSH2 0x28A JUMP JUMPDEST PUSH1 0x40 MLOAD DUP1 SWAP2 SUB SWAP1 RETURN JUMPDEST PUSH2 0x82 PUSH2 0x17E JUMP JUMPDEST PUSH1 0x40 MLOAD PUSH2 0x8F SWAP2 SWAP1 PUSH2 0x254 JUMP JUMPDEST PUSH1 0x40 MLOAD DUP1 SWAP2 SUB SWAP1 RETURN JUMPDEST PUSH2 0xA0 PUSH2 0x1A2 JUMP JUMPDEST PUSH1 0x40 MLOAD PUSH2 0xAD SWAP2 SWAP1 PUSH2 0x26F JUMP JUMPDEST PUSH1 0x40 MLOAD DUP1 SWAP2 SUB SWAP1 RETURN JUMPDEST PUSH2 0xBE PUSH2 0x1AB JUMP JUMPDEST PUSH1 0x40 MLOAD PUSH2 0xCB SWAP2 SWAP1 PUSH2 0x26F JUMP JUMPDEST PUSH1 0x40 MLOAD DUP1 SWAP2 SUB SWAP1 RETURN JUMPDEST PUSH2 0xEE PUSH1 0x4 DUP1 CALLDATASIZE SUB DUP2 ADD SWAP1 PUSH2 0xE9 SWAP2 SWAP1 PUSH2 0x1D0 JUMP JUMPDEST PUSH2 0x1B1 JUMP JUMPDEST STOP JUMPDEST PUSH1 0x1 DUP1 SLOAD PUSH2 0xFD SWAP1 PUSH2 0x337 JUMP JUMPDEST DUP1 PUSH1 0x1F ADD PUSH1 0x20 DUP1 SWAP2 DIV MUL PUSH1 0x20 ADD PUSH1 0x40 MLOAD SWAP1 DUP2 ADD PUSH1 0x40 MSTORE DUP1 SWAP3 SWAP2 SWAP1 DUP2 DUP2 MSTORE PUSH1 0x20 ADD DUP3 DUP1 SLOAD PUSH2 0x129 SWAP1 PUSH2 0x337 JUMP JUMPDEST DUP1 ISZERO PUSH2 0x176 JUMPI DUP1 PUSH1 0x1F LT PUSH2 0x14B JUMPI PUSH2 0x100 DUP1 DUP4 SLOAD DIV MUL DUP4 MSTORE SWAP2 PUSH1 0x20 ADD SWAP2 PUSH2 0x176 JUMP JUMPDEST DUP3 ADD SWAP2 SWAP1 PUSH1 0x0 MSTORE PUSH1 0x20 PUSH1 0x0 KECCAK256 SWAP1 JUMPDEST DUP2 SLOAD DUP2 MSTORE SWAP1 PUSH1 0x1 ADD SWAP1 PUSH1 0x20 ADD DUP1 DUP4 GT PUSH2 0x159 JUMPI DUP3 SWAP1 SUB PUSH1 0x1F AND DUP3 ADD SWAP2 JUMPDEST POP POP POP POP POP DUP2 JUMP JUMPDEST PUSH32 0x0 DUP2 JUMP JUMPDEST PUSH1 0x0 DUP1 SLOAD SWAP1 POP SWAP1 JUMP JUMPDEST PUSH1 0x0 SLOAD DUP2 JUMP JUMPDEST DUP1 PUSH1 0x0 DUP2 SWAP1 SSTORE POP POP JUMP JUMPDEST PUSH1 0x0 DUP2 CALLDATALOAD SWAP1 POP PUSH2 0x1CA DUP2 PUSH2 0x3AE JUMP JUMPDEST SWAP3 SWAP2 POP POP JUMP JUMPDEST PUSH1 0x0 PUSH1 0x20 DUP3 DUP5 SUB SLT ISZERO PUSH2 0x1E6 JUMPI PUSH2 0x1E5 PUSH2 0x398 JUMP JUMPDEST JUMPDEST PUSH1 0x0 PUSH2 0x1F4 DUP5 DUP3 DUP6 ADD PUSH2 0x1BB JUMP JUMPDEST SWAP2 POP POP SWAP3 SWAP2 POP POP JUMP JUMPDEST PUSH2 0x206 DUP2 PUSH2 0x2C8 JUMP JUMPDEST DUP3 MSTORE POP POP JUMP JUMPDEST PUSH2 0x215 DUP2 PUSH2 0x2DA JUMP JUMPDEST DUP3 MSTORE POP POP JUMP JUMPDEST PUSH1 0x0 PUSH2 0x226 DUP3 PUSH2 0x2AC JUMP JUMPDEST PUSH2 0x230 DUP2 DUP6 PUSH2 0x2B7 JUMP JUMPDEST SWAP4 POP PUSH2 0x240 DUP2 DUP6 PUSH1 0x20 DUP7 ADD PUSH2 0x304 JUMP JUMPDEST PUSH2 0x249 DUP2 PUSH2 0x39D JUMP JUMPDEST DUP5 ADD SWAP2 POP POP SWAP3 SWAP2 POP POP JUMP JUMPDEST PUSH1 0x0 PUSH1 0x20 DUP3 ADD SWAP1 POP PUSH2 0x269 PUSH1 0x0 DUP4 ADD DUP5 PUSH2 0x1FD JUMP JUMPDEST SWAP3 SWAP2 POP POP JUMP JUMPDEST PUSH1 0x0 PUSH1 0x20 DUP3 ADD SWAP1 POP PUSH2 0x284 PUSH1 0x0 DUP4 ADD DUP5 PUSH2 0x20C JUMP JUMPDEST SWAP3 SWAP2 POP POP JUMP JUMPDEST PUSH1 0x0 PUSH1 0x20 DUP3 ADD SWAP1 POP DUP2 DUP2 SUB PUSH1 0x0 DUP4 ADD MSTORE PUSH2 0x2A4 DUP2 DUP5 PUSH2 0x21B JUMP JUMPDEST SWAP1 POP SWAP3 SWAP2 POP POP JUMP JUMPDEST PUSH1 0x0 DUP2 MLOAD SWAP1 POP SWAP2 SWAP1 POP JUMP JUMPDEST PUSH1 0x0 DUP3 DUP3 MSTORE PUSH1 0x20 DUP3 ADD SWAP1 POP SWAP3 SWAP2 POP POP JUMP JUMPDEST PUSH1 0x0 PUSH2 0x2D3 DUP3 PUSH2 0x2E4 JUMP JUMPDEST SWAP1 POP SWAP2 SWAP1 POP JUMP JUMPDEST PUSH1 0x0 DUP2 SWAP1 POP SWAP2 SWAP1 POP JUMP JUMPDEST PUSH1 0x0 PUSH20 0xFFFFFFFFFFFFFFFFFFFFFFFFFFFFFFFFFFFFFFFF DUP3 AND SWAP1 POP SWAP2 SWAP1 POP JUMP JUMPDEST PUSH1 0x0 JUMPDEST DUP4 DUP2 LT ISZERO PUSH2 0x322 JUMPI DUP1 DUP3 ADD MLOAD DUP2 DUP5 ADD MSTORE PUSH1 0x20 DUP2 ADD SWAP1 POP PUSH2 0x307 JUMP JUMPDEST DUP4 DUP2 GT ISZERO PUSH2 0x331 JUMPI PUSH1 0x0 DUP5 DUP5 ADD MSTORE JUMPDEST POP POP POP POP JUMP JUMPDEST PUSH1 0x0 PUSH1 0x2 DUP3 DIV SWAP1 POP PUSH1 0x1 DUP3 AND DUP1 PUSH2 0x34F JUMPI PUSH1 0x7F DUP3 AND SWAP2 POP JUMPDEST PUSH1 0x20 DUP3 LT DUP2 EQ ISZERO PUSH2 0x363 JUMPI PUSH2 0x362 PUSH2 0x369 JUMP JUMPDEST JUMPDEST POP SWAP2 SWAP1 POP JUMP JUMPDEST PUSH32 0x4E487B7100000000000000000000000000000000000000000000000000000000 PUSH1 0x0 MSTORE PUSH1 0x22 PUSH1 0x4 MSTORE PUSH1 0x24 PUSH1 0x0 REVERT JUMPDEST PUSH1 0x0 DUP1 REVERT JUMPDEST PUSH1 0x0 PUSH1 0x1F NOT PUSH1 0x1F DUP4 ADD AND SWAP1 POP SWAP2 SWAP1 POP JUMP JUMPDEST PUSH2 0x3B7 DUP2 PUSH2 0x2DA JUMP JUMPDEST DUP2 EQ PUSH2 0x3C2 JUMPI PUSH1 0x0 DUP1 REVERT JUMPDEST POP JUMP INVALID LOG2 PUSH5 0x6970667358 0x22 SLT KECCAK256 MUL 0xE1 0xA7 0xEC 0xBC BLOCKHASH 0xC SWAP12 SLOAD 0xD3 0xE 0xDC 0x2F 0xDE 0xBB SLT SWAP4 PUSH6 0x432C0BBB95E6 0xDF DIV AND PUSH25 0x4545D77E64736F6C6343000807003300000000000000000000 "
				},
				"gasEstimates": {
					"creation": {
						"codeDepositCost": "203800",
						"executionCost": "infinite",
						"totalCost": "infinite"
					},
					"external": {
						"getPrice()": "2459",
						"location()": "infinite",
						"owner()": "infinite",
						"price()": "2473",
						"setPrice(int256)": "22586"
					}
				},
				"methodIdentifiers": {
					"getPrice()": "98d5fdca",
					"location()": "516f279e",
					"owner()": "8da5cb5b",
					"price()": "a035b1fe",
					"setPrice(int256)": "f7a30806"
				}
			},
			"storageLayout": {
				"storage": [
					{
						"astId": 3,
						"contract": "contracts/state_variables.sol:Property",
						"label": "price",
						"offset": 0,
						"slot": "0",
						"type": "t_int256"
					},
					{
						"astId": 5,
						"contract": "contracts/state_variables.sol:Property",
						"label": "location",
						"offset": 0,
						"slot": "1",
						"type": "t_string_storage"
					}
				],
				"types": {
					"t_int256": {
						"encoding": "inplace",
						"label": "int256",
						"numberOfBytes": "32"
					},
					"t_string_storage": {
						"encoding": "bytes",
						"label": "string",
						"numberOfBytes": "32"
					}
				}
			},
			"userdoc": {
				"kind": "user",
				"methods": {},
				"version": 1
			}
		}
	}
}