{
	"contracts/Dynamically_Sized_Arrays.sol": {
		"DynamicArrays": {
			"abi": [
				{
					"inputs": [
						{
							"internalType": "uint256",
							"name": "item",
							"type": "uint256"
						}
					],
					"name": "addElement",
					"outputs": [],
					"stateMutability": "nonpayable",
					"type": "function"
				},
				{
					"inputs": [],
					"name": "f",
					"outputs": [],
					"stateMutability": "nonpayable",
					"type": "function"
				},
				{
					"inputs": [
						{
							"internalType": "uint256",
							"name": "i",
							"type": "uint256"
						}
					],
					"name": "getElement",
					"outputs": [
						{
							"internalType": "uint256",
							"name": "",
							"type": "uint256"
						}
					],
					"stateMutability": "view",
					"type": "function"
				},
				{
					"inputs": [],
					"name": "getLength",
					"outputs": [
						{
							"internalType": "uint256",
							"name": "",
							"type": "uint256"
						}
					],
					"stateMutability": "view",
					"type": "function"
				},
				{
					"inputs": [
						{
							"internalType": "uint256",
							"name": "",
							"type": "uint256"
						}
					],
					"name": "numbers",
					"outputs": [
						{
							"internalType": "uint256",
							"name": "",
							"type": "uint256"
						}
					],
					"stateMutability": "view",
					"type": "function"
				},
				{
					"inputs": [],
					"name": "popElement",
					"outputs": [],
					"stateMutability": "nonpayable",
					"type": "function"
				}
			],
			"devdoc": {
				"kind": "dev",
				"methods": {},
				"version": 1
			},
			"evm": {
				"assembly": "    /* \"contracts/Dynamically_Sized_Arrays.sol\":71:990  contract DynamicArrays{... */\n  mstore(0x40, 0x80)\n  callvalue\n  dup1\n  iszero\n  tag_1\n  jumpi\n  0x00\n  dup1\n  revert\ntag_1:\n  pop\n  dataSize(sub_0)\n  dup1\n  dataOffset(sub_0)\n  0x00\n  codecopy\n  0x00\n  return\nstop\n\nsub_0: assembly {\n        /* \"contracts/Dynamically_Sized_Arrays.sol\":71:990  contract DynamicArrays{... */\n      mstore(0x40, 0x80)\n      callvalue\n      dup1\n      iszero\n      tag_1\n      jumpi\n      0x00\n      dup1\n      revert\n    tag_1:\n      pop\n      jumpi(tag_2, lt(calldatasize, 0x04))\n      shr(0xe0, calldataload(0x00))\n      dup1\n      0x26121ff0\n      eq\n      tag_3\n      jumpi\n      dup1\n      0x3a7d22bc\n      eq\n      tag_4\n      jumpi\n      dup1\n      0x9a6fcbdd\n      eq\n      tag_5\n      jumpi\n      dup1\n      0xbe1c766b\n      eq\n      tag_6\n      jumpi\n      dup1\n      0xd39fa233\n      eq\n      tag_7\n      jumpi\n      dup1\n      0xf5d9612d\n      eq\n      tag_8\n      jumpi\n    tag_2:\n      0x00\n      dup1\n      revert\n        /* \"contracts/Dynamically_Sized_Arrays.sol\":706:986  function f() public{... */\n    tag_3:\n      tag_9\n      tag_10\n      jump\t// in\n    tag_9:\n      stop\n        /* \"contracts/Dynamically_Sized_Arrays.sol\":432:583  function getElement(uint i) public view returns(uint){... */\n    tag_4:\n      tag_11\n      0x04\n      dup1\n      calldatasize\n      sub\n      dup2\n      add\n      swap1\n      tag_12\n      swap2\n      swap1\n      tag_13\n      jump\t// in\n    tag_12:\n      tag_14\n      jump\t// in\n    tag_11:\n      mload(0x40)\n      tag_15\n      swap2\n      swap1\n      tag_16\n      jump\t// in\n    tag_15:\n      mload(0x40)\n      dup1\n      swap2\n      sub\n      swap1\n      return\n        /* \"contracts/Dynamically_Sized_Arrays.sol\":638:696  function popElement() public{... */\n    tag_5:\n      tag_17\n      tag_18\n      jump\t// in\n    tag_17:\n      stop\n        /* \"contracts/Dynamically_Sized_Arrays.sol\":185:269  function getLength() public view returns(uint){... */\n    tag_6:\n      tag_19\n      tag_20\n      jump\t// in\n    tag_19:\n      mload(0x40)\n      tag_21\n      swap2\n      swap1\n      tag_16\n      jump\t// in\n    tag_21:\n      mload(0x40)\n      dup1\n      swap2\n      sub\n      swap1\n      return\n        /* \"contracts/Dynamically_Sized_Arrays.sol\":129:150  uint[] public numbers */\n    tag_7:\n      tag_22\n      0x04\n      dup1\n      calldatasize\n      sub\n      dup2\n      add\n      swap1\n      tag_23\n      swap2\n      swap1\n      tag_13\n      jump\t// in\n    tag_23:\n      tag_24\n      jump\t// in\n    tag_22:\n      mload(0x40)\n      tag_25\n      swap2\n      swap1\n      tag_16\n      jump\t// in\n    tag_25:\n      mload(0x40)\n      dup1\n      swap2\n      sub\n      swap1\n      return\n        /* \"contracts/Dynamically_Sized_Arrays.sol\":310:382  function addElement(uint item) public{... */\n    tag_8:\n      tag_26\n      0x04\n      dup1\n      calldatasize\n      sub\n      dup2\n      add\n      swap1\n      tag_27\n      swap2\n      swap1\n      tag_13\n      jump\t// in\n    tag_27:\n      tag_28\n      jump\t// in\n    tag_26:\n      stop\n        /* \"contracts/Dynamically_Sized_Arrays.sol\":706:986  function f() public{... */\n    tag_10:\n        /* \"contracts/Dynamically_Sized_Arrays.sol\":870:885  uint[] memory y */\n      0x00\n        /* \"contracts/Dynamically_Sized_Arrays.sol\":899:900  3 */\n      0x03\n        /* \"contracts/Dynamically_Sized_Arrays.sol\":888:901  new uint[](3) */\n      0xffffffffffffffff\n      dup2\n      gt\n      iszero\n      tag_30\n      jumpi\n      tag_31\n      tag_32\n      jump\t// in\n    tag_31:\n    tag_30:\n      mload(0x40)\n      swap1\n      dup1\n      dup3\n      mstore\n      dup1\n      0x20\n      mul\n      0x20\n      add\n      dup3\n      add\n      0x40\n      mstore\n      dup1\n      iszero\n      tag_33\n      jumpi\n      dup2\n      0x20\n      add\n      0x20\n      dup3\n      mul\n      dup1\n      calldatasize\n      dup4\n      calldatacopy\n      dup1\n      dup3\n      add\n      swap2\n      pop\n      pop\n      swap1\n      pop\n    tag_33:\n      pop\n        /* \"contracts/Dynamically_Sized_Arrays.sol\":870:901  uint[] memory y = new uint[](3) */\n      swap1\n      pop\n        /* \"contracts/Dynamically_Sized_Arrays.sol\":918:920  10 */\n      0x0a\n        /* \"contracts/Dynamically_Sized_Arrays.sol\":911:912  y */\n      dup2\n        /* \"contracts/Dynamically_Sized_Arrays.sol\":913:914  0 */\n      0x00\n        /* \"contracts/Dynamically_Sized_Arrays.sol\":911:915  y[0] */\n      dup2\n      mload\n      dup2\n      lt\n      tag_34\n      jumpi\n      tag_35\n      tag_36\n      jump\t// in\n    tag_35:\n    tag_34:\n      0x20\n      mul\n      0x20\n      add\n      add\n        /* \"contracts/Dynamically_Sized_Arrays.sol\":911:920  y[0] = 10 */\n      dup2\n      dup2\n      mstore\n      pop\n      pop\n        /* \"contracts/Dynamically_Sized_Arrays.sol\":937:939  20 */\n      0x14\n        /* \"contracts/Dynamically_Sized_Arrays.sol\":930:931  y */\n      dup2\n        /* \"contracts/Dynamically_Sized_Arrays.sol\":932:933  1 */\n      0x01\n        /* \"contracts/Dynamically_Sized_Arrays.sol\":930:934  y[1] */\n      dup2\n      mload\n      dup2\n      lt\n      tag_37\n      jumpi\n      tag_38\n      tag_36\n      jump\t// in\n    tag_38:\n    tag_37:\n      0x20\n      mul\n      0x20\n      add\n      add\n        /* \"contracts/Dynamically_Sized_Arrays.sol\":930:939  y[1] = 20 */\n      dup2\n      dup2\n      mstore\n      pop\n      pop\n        /* \"contracts/Dynamically_Sized_Arrays.sol\":956:958  30 */\n      0x1e\n        /* \"contracts/Dynamically_Sized_Arrays.sol\":949:950  y */\n      dup2\n        /* \"contracts/Dynamically_Sized_Arrays.sol\":951:952  2 */\n      0x02\n        /* \"contracts/Dynamically_Sized_Arrays.sol\":949:953  y[2] */\n      dup2\n      mload\n      dup2\n      lt\n      tag_39\n      jumpi\n      tag_40\n      tag_36\n      jump\t// in\n    tag_40:\n    tag_39:\n      0x20\n      mul\n      0x20\n      add\n      add\n        /* \"contracts/Dynamically_Sized_Arrays.sol\":949:958  y[2] = 30 */\n      dup2\n      dup2\n      mstore\n      pop\n      pop\n        /* \"contracts/Dynamically_Sized_Arrays.sol\":978:979  y */\n      dup1\n        /* \"contracts/Dynamically_Sized_Arrays.sol\":968:975  numbers */\n      0x00\n        /* \"contracts/Dynamically_Sized_Arrays.sol\":968:979  numbers = y */\n      swap1\n      dup1\n      mload\n      swap1\n      0x20\n      add\n      swap1\n      tag_41\n      swap3\n      swap2\n      swap1\n      tag_42\n      jump\t// in\n    tag_41:\n      pop\n        /* \"contracts/Dynamically_Sized_Arrays.sol\":725:986  {... */\n      pop\n        /* \"contracts/Dynamically_Sized_Arrays.sol\":706:986  function f() public{... */\n      jump\t// out\n        /* \"contracts/Dynamically_Sized_Arrays.sol\":432:583  function getElement(uint i) public view returns(uint){... */\n    tag_14:\n        /* \"contracts/Dynamically_Sized_Arrays.sol\":480:484  uint */\n      0x00\n        /* \"contracts/Dynamically_Sized_Arrays.sol\":502:509  numbers */\n      dup1\n        /* \"contracts/Dynamically_Sized_Arrays.sol\":502:516  numbers.length */\n      dup1\n      sload\n      swap1\n      pop\n        /* \"contracts/Dynamically_Sized_Arrays.sol\":498:499  i */\n      dup3\n        /* \"contracts/Dynamically_Sized_Arrays.sol\":498:516  i < numbers.length */\n      lt\n        /* \"contracts/Dynamically_Sized_Arrays.sol\":495:559  if(i < numbers.length){... */\n      iszero\n      tag_44\n      jumpi\n        /* \"contracts/Dynamically_Sized_Arrays.sol\":538:545  numbers */\n      0x00\n        /* \"contracts/Dynamically_Sized_Arrays.sol\":546:547  i */\n      dup3\n        /* \"contracts/Dynamically_Sized_Arrays.sol\":538:548  numbers[i] */\n      dup2\n      sload\n      dup2\n      lt\n      tag_45\n      jumpi\n      tag_46\n      tag_36\n      jump\t// in\n    tag_46:\n    tag_45:\n      swap1\n      0x00\n      mstore\n      keccak256(0x00, 0x20)\n      add\n      sload\n        /* \"contracts/Dynamically_Sized_Arrays.sol\":531:548  return numbers[i] */\n      swap1\n      pop\n      jump(tag_43)\n        /* \"contracts/Dynamically_Sized_Arrays.sol\":495:559  if(i < numbers.length){... */\n    tag_44:\n        /* \"contracts/Dynamically_Sized_Arrays.sol\":575:576  0 */\n      0x00\n        /* \"contracts/Dynamically_Sized_Arrays.sol\":568:576  return 0 */\n      swap1\n      pop\n        /* \"contracts/Dynamically_Sized_Arrays.sol\":432:583  function getElement(uint i) public view returns(uint){... */\n    tag_43:\n      swap2\n      swap1\n      pop\n      jump\t// out\n        /* \"contracts/Dynamically_Sized_Arrays.sol\":638:696  function popElement() public{... */\n    tag_18:\n        /* \"contracts/Dynamically_Sized_Arrays.sol\":676:683  numbers */\n      0x00\n        /* \"contracts/Dynamically_Sized_Arrays.sol\":676:689  numbers.pop() */\n      dup1\n      sload\n      dup1\n      tag_49\n      jumpi\n      tag_50\n      tag_51\n      jump\t// in\n    tag_50:\n    tag_49:\n      0x01\n      swap1\n      sub\n      dup2\n      dup2\n      swap1\n      0x00\n      mstore\n      keccak256(0x00, 0x20)\n      add\n      0x00\n      swap1\n      sstore\n      swap1\n      sstore\n        /* \"contracts/Dynamically_Sized_Arrays.sol\":638:696  function popElement() public{... */\n      jump\t// out\n        /* \"contracts/Dynamically_Sized_Arrays.sol\":185:269  function getLength() public view returns(uint){... */\n    tag_20:\n        /* \"contracts/Dynamically_Sized_Arrays.sol\":226:230  uint */\n      0x00\n        /* \"contracts/Dynamically_Sized_Arrays.sol\":248:255  numbers */\n      dup1\n        /* \"contracts/Dynamically_Sized_Arrays.sol\":248:262  numbers.length */\n      dup1\n      sload\n      swap1\n      pop\n        /* \"contracts/Dynamically_Sized_Arrays.sol\":241:262  return numbers.length */\n      swap1\n      pop\n        /* \"contracts/Dynamically_Sized_Arrays.sol\":185:269  function getLength() public view returns(uint){... */\n      swap1\n      jump\t// out\n        /* \"contracts/Dynamically_Sized_Arrays.sol\":129:150  uint[] public numbers */\n    tag_24:\n      0x00\n      dup2\n      dup2\n      sload\n      dup2\n      lt\n      tag_54\n      jumpi\n      0x00\n      dup1\n      revert\n    tag_54:\n      swap1\n      0x00\n      mstore\n      keccak256(0x00, 0x20)\n      add\n      0x00\n      swap2\n      pop\n      swap1\n      pop\n      sload\n      dup2\n      jump\t// out\n        /* \"contracts/Dynamically_Sized_Arrays.sol\":310:382  function addElement(uint item) public{... */\n    tag_28:\n        /* \"contracts/Dynamically_Sized_Arrays.sol\":357:364  numbers */\n      0x00\n        /* \"contracts/Dynamically_Sized_Arrays.sol\":370:374  item */\n      dup2\n        /* \"contracts/Dynamically_Sized_Arrays.sol\":357:375  numbers.push(item) */\n      swap1\n      dup1\n      0x01\n      dup2\n      sload\n      add\n      dup1\n      dup3\n      sstore\n      dup1\n      swap2\n      pop\n      pop\n      0x01\n      swap1\n      sub\n      swap1\n      0x00\n      mstore\n      keccak256(0x00, 0x20)\n      add\n      0x00\n      swap1\n      swap2\n      swap1\n      swap2\n      swap1\n      swap2\n      pop\n      sstore\n        /* \"contracts/Dynamically_Sized_Arrays.sol\":310:382  function addElement(uint item) public{... */\n      pop\n      jump\t// out\n    tag_42:\n      dup3\n      dup1\n      sload\n      dup3\n      dup3\n      sstore\n      swap1\n      0x00\n      mstore\n      keccak256(0x00, 0x20)\n      swap1\n      dup2\n      add\n      swap3\n      dup3\n      iszero\n      tag_58\n      jumpi\n      swap2\n      0x20\n      mul\n      dup3\n      add\n    tag_59:\n      dup3\n      dup2\n      gt\n      iszero\n      tag_60\n      jumpi\n      dup3\n      mload\n      dup3\n      sstore\n      swap2\n      0x20\n      add\n      swap2\n      swap1\n      0x01\n      add\n      swap1\n      jump(tag_59)\n    tag_60:\n    tag_58:\n      pop\n      swap1\n      pop\n      tag_61\n      swap2\n      swap1\n      tag_62\n      jump\t// in\n    tag_61:\n      pop\n      swap1\n      jump\t// out\n    tag_62:\n    tag_63:\n      dup1\n      dup3\n      gt\n      iszero\n      tag_64\n      jumpi\n      0x00\n      dup2\n      0x00\n      swap1\n      sstore\n      pop\n      0x01\n      add\n      jump(tag_63)\n    tag_64:\n      pop\n      swap1\n      jump\t// out\n        /* \"#utility.yul\":7:146   */\n    tag_66:\n        /* \"#utility.yul\":53:58   */\n      0x00\n        /* \"#utility.yul\":91:97   */\n      dup2\n        /* \"#utility.yul\":78:98   */\n      calldataload\n        /* \"#utility.yul\":69:98   */\n      swap1\n      pop\n        /* \"#utility.yul\":107:140   */\n      tag_68\n        /* \"#utility.yul\":134:139   */\n      dup2\n        /* \"#utility.yul\":107:140   */\n      tag_69\n      jump\t// in\n    tag_68:\n        /* \"#utility.yul\":7:146   */\n      swap3\n      swap2\n      pop\n      pop\n      jump\t// out\n        /* \"#utility.yul\":152:481   */\n    tag_13:\n        /* \"#utility.yul\":211:217   */\n      0x00\n        /* \"#utility.yul\":260:262   */\n      0x20\n        /* \"#utility.yul\":248:257   */\n      dup3\n        /* \"#utility.yul\":239:246   */\n      dup5\n        /* \"#utility.yul\":235:258   */\n      sub\n        /* \"#utility.yul\":231:263   */\n      slt\n        /* \"#utility.yul\":228:347   */\n      iszero\n      tag_71\n      jumpi\n        /* \"#utility.yul\":266:345   */\n      tag_72\n      tag_73\n      jump\t// in\n    tag_72:\n        /* \"#utility.yul\":228:347   */\n    tag_71:\n        /* \"#utility.yul\":386:387   */\n      0x00\n        /* \"#utility.yul\":411:464   */\n      tag_74\n        /* \"#utility.yul\":456:463   */\n      dup5\n        /* \"#utility.yul\":447:453   */\n      dup3\n        /* \"#utility.yul\":436:445   */\n      dup6\n        /* \"#utility.yul\":432:454   */\n      add\n        /* \"#utility.yul\":411:464   */\n      tag_66\n      jump\t// in\n    tag_74:\n        /* \"#utility.yul\":401:464   */\n      swap2\n      pop\n        /* \"#utility.yul\":357:474   */\n      pop\n        /* \"#utility.yul\":152:481   */\n      swap3\n      swap2\n      pop\n      pop\n      jump\t// out\n        /* \"#utility.yul\":487:605   */\n    tag_75:\n        /* \"#utility.yul\":574:598   */\n      tag_77\n        /* \"#utility.yul\":592:597   */\n      dup2\n        /* \"#utility.yul\":574:598   */\n      tag_78\n      jump\t// in\n    tag_77:\n        /* \"#utility.yul\":569:572   */\n      dup3\n        /* \"#utility.yul\":562:599   */\n      mstore\n        /* \"#utility.yul\":487:605   */\n      pop\n      pop\n      jump\t// out\n        /* \"#utility.yul\":611:833   */\n    tag_16:\n        /* \"#utility.yul\":704:708   */\n      0x00\n        /* \"#utility.yul\":742:744   */\n      0x20\n        /* \"#utility.yul\":731:740   */\n      dup3\n        /* \"#utility.yul\":727:745   */\n      add\n        /* \"#utility.yul\":719:745   */\n      swap1\n      pop\n        /* \"#utility.yul\":755:826   */\n      tag_80\n        /* \"#utility.yul\":823:824   */\n      0x00\n        /* \"#utility.yul\":812:821   */\n      dup4\n        /* \"#utility.yul\":808:825   */\n      add\n        /* \"#utility.yul\":799:805   */\n      dup5\n        /* \"#utility.yul\":755:826   */\n      tag_75\n      jump\t// in\n    tag_80:\n        /* \"#utility.yul\":611:833   */\n      swap3\n      swap2\n      pop\n      pop\n      jump\t// out\n        /* \"#utility.yul\":920:997   */\n    tag_78:\n        /* \"#utility.yul\":957:964   */\n      0x00\n        /* \"#utility.yul\":986:991   */\n      dup2\n        /* \"#utility.yul\":975:991   */\n      swap1\n      pop\n        /* \"#utility.yul\":920:997   */\n      swap2\n      swap1\n      pop\n      jump\t// out\n        /* \"#utility.yul\":1003:1183   */\n    tag_51:\n        /* \"#utility.yul\":1051:1128   */\n      0x4e487b7100000000000000000000000000000000000000000000000000000000\n        /* \"#utility.yul\":1048:1049   */\n      0x00\n        /* \"#utility.yul\":1041:1129   */\n      mstore\n        /* \"#utility.yul\":1148:1152   */\n      0x31\n        /* \"#utility.yul\":1145:1146   */\n      0x04\n        /* \"#utility.yul\":1138:1153   */\n      mstore\n        /* \"#utility.yul\":1172:1176   */\n      0x24\n        /* \"#utility.yul\":1169:1170   */\n      0x00\n        /* \"#utility.yul\":1162:1177   */\n      revert\n        /* \"#utility.yul\":1189:1369   */\n    tag_36:\n        /* \"#utility.yul\":1237:1314   */\n      0x4e487b7100000000000000000000000000000000000000000000000000000000\n        /* \"#utility.yul\":1234:1235   */\n      0x00\n        /* \"#utility.yul\":1227:1315   */\n      mstore\n        /* \"#utility.yul\":1334:1338   */\n      0x32\n        /* \"#utility.yul\":1331:1332   */\n      0x04\n        /* \"#utility.yul\":1324:1339   */\n      mstore\n        /* \"#utility.yul\":1358:1362   */\n      0x24\n        /* \"#utility.yul\":1355:1356   */\n      0x00\n        /* \"#utility.yul\":1348:1363   */\n      revert\n        /* \"#utility.yul\":1375:1555   */\n    tag_32:\n        /* \"#utility.yul\":1423:1500   */\n      0x4e487b7100000000000000000000000000000000000000000000000000000000\n        /* \"#utility.yul\":1420:1421   */\n      0x00\n        /* \"#utility.yul\":1413:1501   */\n      mstore\n        /* \"#utility.yul\":1520:1524   */\n      0x41\n        /* \"#utility.yul\":1517:1518   */\n      0x04\n        /* \"#utility.yul\":1510:1525   */\n      mstore\n        /* \"#utility.yul\":1544:1548   */\n      0x24\n        /* \"#utility.yul\":1541:1542   */\n      0x00\n        /* \"#utility.yul\":1534:1549   */\n      revert\n        /* \"#utility.yul\":1684:1801   */\n    tag_73:\n        /* \"#utility.yul\":1793:1794   */\n      0x00\n        /* \"#utility.yul\":1790:1791   */\n      dup1\n        /* \"#utility.yul\":1783:1795   */\n      revert\n        /* \"#utility.yul\":1807:1929   */\n    tag_69:\n        /* \"#utility.yul\":1880:1904   */\n      tag_91\n        /* \"#utility.yul\":1898:1903   */\n      dup2\n        /* \"#utility.yul\":1880:1904   */\n      tag_78\n      jump\t// in\n    tag_91:\n        /* \"#utility.yul\":1873:1878   */\n      dup2\n        /* \"#utility.yul\":1870:1905   */\n      eq\n        /* \"#utility.yul\":1860:1923   */\n      tag_92\n      jumpi\n        /* \"#utility.yul\":1919:1920   */\n      0x00\n        /* \"#utility.yul\":1916:1917   */\n      dup1\n        /* \"#utility.yul\":1909:1921   */\n      revert\n        /* \"#utility.yul\":1860:1923   */\n    tag_92:\n        /* \"#utility.yul\":1807:1929   */\n      pop\n      jump\t// out\n\n    auxdata: 0xa2646970667358221220a1bc23d0b0ae147a2c51ff70a7fff9934609189dd6a22fb8183cc4e48ceeb3dd64736f6c63430008070033\n}\n",
				"bytecode": {
					"linkReferences": {},
					"object": "608060405234801561001057600080fd5b50610466806100206000396000f3fe608060405234801561001057600080fd5b50600436106100625760003560e01c806326121ff0146100675780633a7d22bc146100715780639a6fcbdd146100a1578063be1c766b146100ab578063d39fa233146100c9578063f5d9612d146100f9575b600080fd5b61006f610115565b005b61008b60048036038101906100869190610326565b6101e3565b6040516100989190610362565b60405180910390f35b6100a9610221565b005b6100b361024b565b6040516100c09190610362565b60405180910390f35b6100e360048036038101906100de9190610326565b610257565b6040516100f09190610362565b60405180910390f35b610113600480360381019061010e9190610326565b61027b565b005b6000600367ffffffffffffffff811115610132576101316103e5565b5b6040519080825280602002602001820160405280156101605781602001602082028036833780820191505090505b509050600a81600081518110610179576101786103b6565b5b60200260200101818152505060148160018151811061019b5761019a6103b6565b5b602002602001018181525050601e816002815181106101bd576101bc6103b6565b5b60200260200101818152505080600090805190602001906101df9291906102a7565b5050565b600080805490508210156102175760008281548110610205576102046103b6565b5b9060005260206000200154905061021c565b600090505b919050565b600080548061023357610232610387565b5b60019003818190600052602060002001600090559055565b60008080549050905090565b6000818154811061026757600080fd5b906000526020600020016000915090505481565b600081908060018154018082558091505060019003906000526020600020016000909190919091505550565b8280548282559060005260206000209081019282156102e3579160200282015b828111156102e25782518255916020019190600101906102c7565b5b5090506102f091906102f4565b5090565b5b8082111561030d5760008160009055506001016102f5565b5090565b60008135905061032081610419565b92915050565b60006020828403121561033c5761033b610414565b5b600061034a84828501610311565b91505092915050565b61035c8161037d565b82525050565b60006020820190506103776000830184610353565b92915050565b6000819050919050565b7f4e487b7100000000000000000000000000000000000000000000000000000000600052603160045260246000fd5b7f4e487b7100000000000000000000000000000000000000000000000000000000600052603260045260246000fd5b7f4e487b7100000000000000000000000000000000000000000000000000000000600052604160045260246000fd5b600080fd5b6104228161037d565b811461042d57600080fd5b5056fea2646970667358221220a1bc23d0b0ae147a2c51ff70a7fff9934609189dd6a22fb8183cc4e48ceeb3dd64736f6c63430008070033",
					"opcodes": "PUSH1 0x80 PUSH1 0x40 MSTORE CALLVALUE DUP1 ISZERO PUSH2 0x10 JUMPI PUSH1 0x0 DUP1 REVERT JUMPDEST POP PUSH2 0x466 DUP1 PUSH2 0x20 PUSH1 0x0 CODECOPY PUSH1 0x0 RETURN INVALID PUSH1 0x80 PUSH1 0x40 MSTORE CALLVALUE DUP1 ISZERO PUSH2 0x10 JUMPI PUSH1 0x0 DUP1 REVERT JUMPDEST POP PUSH1 0x4 CALLDATASIZE LT PUSH2 0x62 JUMPI PUSH1 0x0 CALLDATALOAD PUSH1 0xE0 SHR DUP1 PUSH4 0x26121FF0 EQ PUSH2 0x67 JUMPI DUP1 PUSH4 0x3A7D22BC EQ PUSH2 0x71 JUMPI DUP1 PUSH4 0x9A6FCBDD EQ PUSH2 0xA1 JUMPI DUP1 PUSH4 0xBE1C766B EQ PUSH2 0xAB JUMPI DUP1 PUSH4 0xD39FA233 EQ PUSH2 0xC9 JUMPI DUP1 PUSH4 0xF5D9612D EQ PUSH2 0xF9 JUMPI JUMPDEST PUSH1 0x0 DUP1 REVERT JUMPDEST PUSH2 0x6F PUSH2 0x115 JUMP JUMPDEST STOP JUMPDEST PUSH2 0x8B PUSH1 0x4 DUP1 CALLDATASIZE SUB DUP2 ADD SWAP1 PUSH2 0x86 SWAP2 SWAP1 PUSH2 0x326 JUMP JUMPDEST PUSH2 0x1E3 JUMP JUMPDEST PUSH1 0x40 MLOAD PUSH2 0x98 SWAP2 SWAP1 PUSH2 0x362 JUMP JUMPDEST PUSH1 0x40 MLOAD DUP1 SWAP2 SUB SWAP1 RETURN JUMPDEST PUSH2 0xA9 PUSH2 0x221 JUMP JUMPDEST STOP JUMPDEST PUSH2 0xB3 PUSH2 0x24B JUMP JUMPDEST PUSH1 0x40 MLOAD PUSH2 0xC0 SWAP2 SWAP1 PUSH2 0x362 JUMP JUMPDEST PUSH1 0x40 MLOAD DUP1 SWAP2 SUB SWAP1 RETURN JUMPDEST PUSH2 0xE3 PUSH1 0x4 DUP1 CALLDATASIZE SUB DUP2 ADD SWAP1 PUSH2 0xDE SWAP2 SWAP1 PUSH2 0x326 JUMP JUMPDEST PUSH2 0x257 JUMP JUMPDEST PUSH1 0x40 MLOAD PUSH2 0xF0 SWAP2 SWAP1 PUSH2 0x362 JUMP JUMPDEST PUSH1 0x40 MLOAD DUP1 SWAP2 SUB SWAP1 RETURN JUMPDEST PUSH2 0x113 PUSH1 0x4 DUP1 CALLDATASIZE SUB DUP2 ADD SWAP1 PUSH2 0x10E SWAP2 SWAP1 PUSH2 0x326 JUMP JUMPDEST PUSH2 0x27B JUMP JUMPDEST STOP JUMPDEST PUSH1 0x0 PUSH1 0x3 PUSH8 0xFFFFFFFFFFFFFFFF DUP2 GT ISZERO PUSH2 0x132 JUMPI PUSH2 0x131 PUSH2 0x3E5 JUMP JUMPDEST JUMPDEST PUSH1 0x40 MLOAD SWAP1 DUP1 DUP3 MSTORE DUP1 PUSH1 0x20 MUL PUSH1 0x20 ADD DUP3 ADD PUSH1 0x40 MSTORE DUP1 ISZERO PUSH2 0x160 JUMPI DUP2 PUSH1 0x20 ADD PUSH1 0x20 DUP3 MUL DUP1 CALLDATASIZE DUP4 CALLDATACOPY DUP1 DUP3 ADD SWAP2 POP POP SWAP1 POP JUMPDEST POP SWAP1 POP PUSH1 0xA DUP2 PUSH1 0x0 DUP2 MLOAD DUP2 LT PUSH2 0x179 JUMPI PUSH2 0x178 PUSH2 0x3B6 JUMP JUMPDEST JUMPDEST PUSH1 0x20 MUL PUSH1 0x20 ADD ADD DUP2 DUP2 MSTORE POP POP PUSH1 0x14 DUP2 PUSH1 0x1 DUP2 MLOAD DUP2 LT PUSH2 0x19B JUMPI PUSH2 0x19A PUSH2 0x3B6 JUMP JUMPDEST JUMPDEST PUSH1 0x20 MUL PUSH1 0x20 ADD ADD DUP2 DUP2 MSTORE POP POP PUSH1 0x1E DUP2 PUSH1 0x2 DUP2 MLOAD DUP2 LT PUSH2 0x1BD JUMPI PUSH2 0x1BC PUSH2 0x3B6 JUMP JUMPDEST JUMPDEST PUSH1 0x20 MUL PUSH1 0x20 ADD ADD DUP2 DUP2 MSTORE POP POP DUP1 PUSH1 0x0 SWAP1 DUP1 MLOAD SWAP1 PUSH1 0x20 ADD SWAP1 PUSH2 0x1DF SWAP3 SWAP2 SWAP1 PUSH2 0x2A7 JUMP JUMPDEST POP POP JUMP JUMPDEST PUSH1 0x0 DUP1 DUP1 SLOAD SWAP1 POP DUP3 LT ISZERO PUSH2 0x217 JUMPI PUSH1 0x0 DUP3 DUP2 SLOAD DUP2 LT PUSH2 0x205 JUMPI PUSH2 0x204 PUSH2 0x3B6 JUMP JUMPDEST JUMPDEST SWAP1 PUSH1 0x0 MSTORE PUSH1 0x20 PUSH1 0x0 KECCAK256 ADD SLOAD SWAP1 POP PUSH2 0x21C JUMP JUMPDEST PUSH1 0x0 SWAP1 POP JUMPDEST SWAP2 SWAP1 POP JUMP JUMPDEST PUSH1 0x0 DUP1 SLOAD DUP1 PUSH2 0x233 JUMPI PUSH2 0x232 PUSH2 0x387 JUMP JUMPDEST JUMPDEST PUSH1 0x1 SWAP1 SUB DUP2 DUP2 SWAP1 PUSH1 0x0 MSTORE PUSH1 0x20 PUSH1 0x0 KECCAK256 ADD PUSH1 0x0 SWAP1 SSTORE SWAP1 SSTORE JUMP JUMPDEST PUSH1 0x0 DUP1 DUP1 SLOAD SWAP1 POP SWAP1 POP SWAP1 JUMP JUMPDEST PUSH1 0x0 DUP2 DUP2 SLOAD DUP2 LT PUSH2 0x267 JUMPI PUSH1 0x0 DUP1 REVERT JUMPDEST SWAP1 PUSH1 0x0 MSTORE PUSH1 0x20 PUSH1 0x0 KECCAK256 ADD PUSH1 0x0 SWAP2 POP SWAP1 POP SLOAD DUP2 JUMP JUMPDEST PUSH1 0x0 DUP2 SWAP1 DUP1 PUSH1 0x1 DUP2 SLOAD ADD DUP1 DUP3 SSTORE DUP1 SWAP2 POP POP PUSH1 0x1 SWAP1 SUB SWAP1 PUSH1 0x0 MSTORE PUSH1 0x20 PUSH1 0x0 KECCAK256 ADD PUSH1 0x0 SWAP1 SWAP2 SWAP1 SWAP2 SWAP1 SWAP2 POP SSTORE POP JUMP JUMPDEST DUP3 DUP1 SLOAD DUP3 DUP3 SSTORE SWAP1 PUSH1 0x0 MSTORE PUSH1 0x20 PUSH1 0x0 KECCAK256 SWAP1 DUP2 ADD SWAP3 DUP3 ISZERO PUSH2 0x2E3 JUMPI SWAP2 PUSH1 0x20 MUL DUP3 ADD JUMPDEST DUP3 DUP2 GT ISZERO PUSH2 0x2E2 JUMPI DUP3 MLOAD DUP3 SSTORE SWAP2 PUSH1 0x20 ADD SWAP2 SWAP1 PUSH1 0x1 ADD SWAP1 PUSH2 0x2C7 JUMP JUMPDEST JUMPDEST POP SWAP1 POP PUSH2 0x2F0 SWAP2 SWAP1 PUSH2 0x2F4 JUMP JUMPDEST POP SWAP1 JUMP JUMPDEST JUMPDEST DUP1 DUP3 GT ISZERO PUSH2 0x30D JUMPI PUSH1 0x0 DUP2 PUSH1 0x0 SWAP1 SSTORE POP PUSH1 0x1 ADD PUSH2 0x2F5 JUMP JUMPDEST POP SWAP1 JUMP JUMPDEST PUSH1 0x0 DUP2 CALLDATALOAD SWAP1 POP PUSH2 0x320 DUP2 PUSH2 0x419 JUMP JUMPDEST SWAP3 SWAP2 POP POP JUMP JUMPDEST PUSH1 0x0 PUSH1 0x20 DUP3 DUP5 SUB SLT ISZERO PUSH2 0x33C JUMPI PUSH2 0x33B PUSH2 0x414 JUMP JUMPDEST JUMPDEST PUSH1 0x0 PUSH2 0x34A DUP5 DUP3 DUP6 ADD PUSH2 0x311 JUMP JUMPDEST SWAP2 POP POP SWAP3 SWAP2 POP POP JUMP JUMPDEST PUSH2 0x35C DUP2 PUSH2 0x37D JUMP JUMPDEST DUP3 MSTORE POP POP JUMP JUMPDEST PUSH1 0x0 PUSH1 0x20 DUP3 ADD SWAP1 POP PUSH2 0x377 PUSH1 0x0 DUP4 ADD DUP5 PUSH2 0x353 JUMP JUMPDEST SWAP3 SWAP2 POP POP JUMP JUMPDEST PUSH1 0x0 DUP2 SWAP1 POP SWAP2 SWAP1 POP JUMP JUMPDEST PUSH32 0x4E487B7100000000000000000000000000000000000000000000000000000000 PUSH1 0x0 MSTORE PUSH1 0x31 PUSH1 0x4 MSTORE PUSH1 0x24 PUSH1 0x0 REVERT JUMPDEST PUSH32 0x4E487B7100000000000000000000000000000000000000000000000000000000 PUSH1 0x0 MSTORE PUSH1 0x32 PUSH1 0x4 MSTORE PUSH1 0x24 PUSH1 0x0 REVERT JUMPDEST PUSH32 0x4E487B7100000000000000000000000000000000000000000000000000000000 PUSH1 0x0 MSTORE PUSH1 0x41 PUSH1 0x4 MSTORE PUSH1 0x24 PUSH1 0x0 REVERT JUMPDEST PUSH1 0x0 DUP1 REVERT JUMPDEST PUSH2 0x422 DUP2 PUSH2 0x37D JUMP JUMPDEST DUP2 EQ PUSH2 0x42D JUMPI PUSH1 0x0 DUP1 REVERT JUMPDEST POP JUMP INVALID LOG2 PUSH5 0x6970667358 0x22 SLT KECCAK256 LOG1 0xBC 0x23 0xD0 0xB0 0xAE EQ PUSH27 0x2C51FF70A7FFF9934609189DD6A22FB8183CC4E48CEEB3DD64736F PUSH13 0x63430008070033000000000000 "
				},
				"gasEstimates": {
					"creation": {
						"codeDepositCost": "225200",
						"executionCost": "269",
						"totalCost": "225469"
					},
					"external": {
						"addElement(uint256)": "46917",
						"f()": "infinite",
						"getElement(uint256)": "infinite",
						"getLength()": "2489",
						"numbers(uint256)": "infinite",
						"popElement()": "29467"
					}
				},
				"methodIdentifiers": {
					"addElement(uint256)": "f5d9612d",
					"f()": "26121ff0",
					"getElement(uint256)": "3a7d22bc",
					"getLength()": "be1c766b",
					"numbers(uint256)": "d39fa233",
					"popElement()": "9a6fcbdd"
				}
			},
			"storageLayout": {
				"storage": [
					{
						"astId": 4,
						"contract": "contracts/Dynamically_Sized_Arrays.sol:DynamicArrays",
						"label": "numbers",
						"offset": 0,
						"slot": "0",
						"type": "t_array(t_uint256)dyn_storage"
					}
				],
				"types": {
					"t_array(t_uint256)dyn_storage": {
						"base": "t_uint256",
						"encoding": "dynamic_array",
						"label": "uint256[]",
						"numberOfBytes": "32"
					},
					"t_uint256": {
						"encoding": "inplace",
						"label": "uint256",
						"numberOfBytes": "32"
					}
				}
			},
			"userdoc": {
				"kind": "user",
				"methods": {},
				"version": 1
			}
		}
	}
}