{
	"contracts/Project 2 - The Auction Smart Contract/Auction.sol": {
		"Auction": {
			"abi": [
				{
					"inputs": [],
					"stateMutability": "nonpayable",
					"type": "constructor"
				},
				{
					"inputs": [],
					"name": "auctionState",
					"outputs": [
						{
							"internalType": "enum Auction.State",
							"name": "",
							"type": "uint8"
						}
					],
					"stateMutability": "view",
					"type": "function"
				},
				{
					"inputs": [
						{
							"internalType": "address",
							"name": "",
							"type": "address"
						}
					],
					"name": "bids",
					"outputs": [
						{
							"internalType": "uint256",
							"name": "",
							"type": "uint256"
						}
					],
					"stateMutability": "view",
					"type": "function"
				},
				{
					"inputs": [],
					"name": "cancelAuction",
					"outputs": [],
					"stateMutability": "nonpayable",
					"type": "function"
				},
				{
					"inputs": [],
					"name": "endBlock",
					"outputs": [
						{
							"internalType": "uint256",
							"name": "",
							"type": "uint256"
						}
					],
					"stateMutability": "view",
					"type": "function"
				},
				{
					"inputs": [],
					"name": "finalizeAuction",
					"outputs": [],
					"stateMutability": "nonpayable",
					"type": "function"
				},
				{
					"inputs": [],
					"name": "highestBidder",
					"outputs": [
						{
							"internalType": "address payable",
							"name": "",
							"type": "address"
						}
					],
					"stateMutability": "view",
					"type": "function"
				},
				{
					"inputs": [],
					"name": "highestBindingBid",
					"outputs": [
						{
							"internalType": "uint256",
							"name": "",
							"type": "uint256"
						}
					],
					"stateMutability": "view",
					"type": "function"
				},
				{
					"inputs": [],
					"name": "ipfsHash",
					"outputs": [
						{
							"internalType": "string",
							"name": "",
							"type": "string"
						}
					],
					"stateMutability": "view",
					"type": "function"
				},
				{
					"inputs": [],
					"name": "owner",
					"outputs": [
						{
							"internalType": "address payable",
							"name": "",
							"type": "address"
						}
					],
					"stateMutability": "view",
					"type": "function"
				},
				{
					"inputs": [],
					"name": "ownerFinalized",
					"outputs": [
						{
							"internalType": "bool",
							"name": "",
							"type": "bool"
						}
					],
					"stateMutability": "view",
					"type": "function"
				},
				{
					"inputs": [],
					"name": "placeBid",
					"outputs": [
						{
							"internalType": "bool",
							"name": "",
							"type": "bool"
						}
					],
					"stateMutability": "payable",
					"type": "function"
				},
				{
					"inputs": [],
					"name": "startBlock",
					"outputs": [
						{
							"internalType": "uint256",
							"name": "",
							"type": "uint256"
						}
					],
					"stateMutability": "view",
					"type": "function"
				}
			],
			"devdoc": {
				"kind": "dev",
				"methods": {},
				"version": 1
			},
			"evm": {
				"assembly": "    /* \"contracts/Project 2 - The Auction Smart Contract/Auction.sol\":73:4376  contract Auction{... */\n  mstore(0x40, 0x80)\n    /* \"contracts/Project 2 - The Auction Smart Contract/Auction.sol\":572:577  false */\n  0x00\n    /* \"contracts/Project 2 - The Auction Smart Contract/Auction.sol\":543:577  bool public ownerFinalized = false */\n  0x09\n  exp(0x0100, 0x00)\n  dup2\n  sload\n  dup2\n  0xff\n  mul\n  not\n  and\n  swap1\n  dup4\n  iszero\n  iszero\n  mul\n  or\n  swap1\n  sstore\n  pop\n    /* \"contracts/Project 2 - The Auction Smart Contract/Auction.sol\":585:863  constructor(){... */\n  callvalue\n  dup1\n  iszero\n  tag_1\n  jumpi\n  0x00\n  dup1\n  revert\ntag_1:\n  pop\n    /* \"contracts/Project 2 - The Auction Smart Contract/Auction.sol\":624:634  msg.sender */\n  caller\n    /* \"contracts/Project 2 - The Auction Smart Contract/Auction.sol\":608:613  owner */\n  0x00\n  dup1\n    /* \"contracts/Project 2 - The Auction Smart Contract/Auction.sol\":608:635  owner = payable(msg.sender) */\n  0x0100\n  exp\n  dup2\n  sload\n  dup2\n  0xffffffffffffffffffffffffffffffffffffffff\n  mul\n  not\n  and\n  swap1\n  dup4\n  0xffffffffffffffffffffffffffffffffffffffff\n  and\n  mul\n  or\n  swap1\n  sstore\n  pop\n    /* \"contracts/Project 2 - The Auction Smart Contract/Auction.sol\":660:673  State.Running */\n  0x01\n    /* \"contracts/Project 2 - The Auction Smart Contract/Auction.sol\":645:657  auctionState */\n  0x04\n  0x00\n    /* \"contracts/Project 2 - The Auction Smart Contract/Auction.sol\":645:673  auctionState = State.Running */\n  0x0100\n  exp\n  dup2\n  sload\n  dup2\n  0xff\n  mul\n  not\n  and\n  swap1\n  dup4\n  0x03\n  dup2\n  gt\n  iszero\n  tag_4\n  jumpi\n  tag_5\n  tag_6\n  jump\t// in\ntag_5:\ntag_4:\n  mul\n  or\n  swap1\n  sstore\n  pop\n    /* \"contracts/Project 2 - The Auction Smart Contract/Auction.sol\":705:717  block.number */\n  number\n    /* \"contracts/Project 2 - The Auction Smart Contract/Auction.sol\":692:702  startBlock */\n  0x01\n    /* \"contracts/Project 2 - The Auction Smart Contract/Auction.sol\":692:717  startBlock = block.number */\n  dup2\n  swap1\n  sstore\n  pop\n    /* \"contracts/Project 2 - The Auction Smart Contract/Auction.sol\":751:752  3 */\n  0x03\n    /* \"contracts/Project 2 - The Auction Smart Contract/Auction.sol\":738:748  startBlock */\n  sload(0x01)\n    /* \"contracts/Project 2 - The Auction Smart Contract/Auction.sol\":738:752  startBlock + 3 */\n  tag_7\n  swap2\n  swap1\n  tag_8\n  jump\t// in\ntag_7:\n    /* \"contracts/Project 2 - The Auction Smart Contract/Auction.sol\":727:735  endBlock */\n  0x02\n    /* \"contracts/Project 2 - The Auction Smart Contract/Auction.sol\":727:752  endBlock = startBlock + 3 */\n  dup2\n  swap1\n  sstore\n  pop\n    /* \"contracts/Project 2 - The Auction Smart Contract/Auction.sol\":769:782  ipfsHash = \"\" */\n  mload(0x40)\n  dup1\n  0x20\n  add\n  0x40\n  mstore\n  dup1\n  0x00\n  dup2\n  mstore\n  pop\n    /* \"contracts/Project 2 - The Auction Smart Contract/Auction.sol\":769:777  ipfsHash */\n  0x03\n    /* \"contracts/Project 2 - The Auction Smart Contract/Auction.sol\":769:782  ipfsHash = \"\" */\n  swap1\n  dup1\n  mload\n  swap1\n  0x20\n  add\n  swap1\n  tag_9\n  swap3\n  swap2\n  swap1\n  tag_10\n  jump\t// in\ntag_9:\n  pop\n    /* \"contracts/Project 2 - The Auction Smart Contract/Auction.sol\":807:826  1000000000000000000 */\n  0x0de0b6b3a7640000\n    /* \"contracts/Project 2 - The Auction Smart Contract/Auction.sol\":792:804  bidIncrement */\n  0x08\n    /* \"contracts/Project 2 - The Auction Smart Contract/Auction.sol\":792:826  bidIncrement = 1000000000000000000 */\n  dup2\n  swap1\n  sstore\n  pop\n    /* \"contracts/Project 2 - The Auction Smart Contract/Auction.sol\":73:4376  contract Auction{... */\n  jump(tag_11)\ntag_10:\n  dup3\n  dup1\n  sload\n  tag_12\n  swap1\n  tag_13\n  jump\t// in\ntag_12:\n  swap1\n  0x00\n  mstore\n  keccak256(0x00, 0x20)\n  swap1\n  0x1f\n  add\n  0x20\n  swap1\n  div\n  dup2\n  add\n  swap3\n  dup3\n  tag_15\n  jumpi\n  0x00\n  dup6\n  sstore\n  jump(tag_14)\ntag_15:\n  dup3\n  0x1f\n  lt\n  tag_16\n  jumpi\n  dup1\n  mload\n  not(0xff)\n  and\n  dup4\n  dup1\n  add\n  or\n  dup6\n  sstore\n  jump(tag_14)\ntag_16:\n  dup3\n  dup1\n  add\n  0x01\n  add\n  dup6\n  sstore\n  dup3\n  iszero\n  tag_14\n  jumpi\n  swap2\n  dup3\n  add\ntag_17:\n  dup3\n  dup2\n  gt\n  iszero\n  tag_18\n  jumpi\n  dup3\n  mload\n  dup3\n  sstore\n  swap2\n  0x20\n  add\n  swap2\n  swap1\n  0x01\n  add\n  swap1\n  jump(tag_17)\ntag_18:\ntag_14:\n  pop\n  swap1\n  pop\n  tag_19\n  swap2\n  swap1\n  tag_20\n  jump\t// in\ntag_19:\n  pop\n  swap1\n  jump\t// out\ntag_20:\ntag_21:\n  dup1\n  dup3\n  gt\n  iszero\n  tag_22\n  jumpi\n  0x00\n  dup2\n  0x00\n  swap1\n  sstore\n  pop\n  0x01\n  add\n  jump(tag_21)\ntag_22:\n  pop\n  swap1\n  jump\t// out\n    /* \"#utility.yul\":7:312   */\ntag_8:\n    /* \"#utility.yul\":47:50   */\n  0x00\n    /* \"#utility.yul\":66:86   */\n  tag_25\n    /* \"#utility.yul\":84:85   */\n  dup3\n    /* \"#utility.yul\":66:86   */\n  tag_26\n  jump\t// in\ntag_25:\n    /* \"#utility.yul\":61:86   */\n  swap2\n  pop\n    /* \"#utility.yul\":100:120   */\n  tag_27\n    /* \"#utility.yul\":118:119   */\n  dup4\n    /* \"#utility.yul\":100:120   */\n  tag_26\n  jump\t// in\ntag_27:\n    /* \"#utility.yul\":95:120   */\n  swap3\n  pop\n    /* \"#utility.yul\":254:255   */\n  dup3\n    /* \"#utility.yul\":186:252   */\n  0xffffffffffffffffffffffffffffffffffffffffffffffffffffffffffffffff\n    /* \"#utility.yul\":182:256   */\n  sub\n    /* \"#utility.yul\":179:180   */\n  dup3\n    /* \"#utility.yul\":176:257   */\n  gt\n    /* \"#utility.yul\":173:280   */\n  iszero\n  tag_28\n  jumpi\n    /* \"#utility.yul\":260:278   */\n  tag_29\n  tag_30\n  jump\t// in\ntag_29:\n    /* \"#utility.yul\":173:280   */\ntag_28:\n    /* \"#utility.yul\":304:305   */\n  dup3\n    /* \"#utility.yul\":301:302   */\n  dup3\n    /* \"#utility.yul\":297:306   */\n  add\n    /* \"#utility.yul\":290:306   */\n  swap1\n  pop\n    /* \"#utility.yul\":7:312   */\n  swap3\n  swap2\n  pop\n  pop\n  jump\t// out\n    /* \"#utility.yul\":318:395   */\ntag_26:\n    /* \"#utility.yul\":355:362   */\n  0x00\n    /* \"#utility.yul\":384:389   */\n  dup2\n    /* \"#utility.yul\":373:389   */\n  swap1\n  pop\n    /* \"#utility.yul\":318:395   */\n  swap2\n  swap1\n  pop\n  jump\t// out\n    /* \"#utility.yul\":401:721   */\ntag_13:\n    /* \"#utility.yul\":445:451   */\n  0x00\n    /* \"#utility.yul\":482:483   */\n  0x02\n    /* \"#utility.yul\":476:480   */\n  dup3\n    /* \"#utility.yul\":472:484   */\n  div\n    /* \"#utility.yul\":462:484   */\n  swap1\n  pop\n    /* \"#utility.yul\":529:530   */\n  0x01\n    /* \"#utility.yul\":523:527   */\n  dup3\n    /* \"#utility.yul\":519:531   */\n  and\n    /* \"#utility.yul\":550:568   */\n  dup1\n    /* \"#utility.yul\":540:621   */\n  tag_33\n  jumpi\n    /* \"#utility.yul\":606:610   */\n  0x7f\n    /* \"#utility.yul\":598:604   */\n  dup3\n    /* \"#utility.yul\":594:611   */\n  and\n    /* \"#utility.yul\":584:611   */\n  swap2\n  pop\n    /* \"#utility.yul\":540:621   */\ntag_33:\n    /* \"#utility.yul\":668:670   */\n  0x20\n    /* \"#utility.yul\":660:666   */\n  dup3\n    /* \"#utility.yul\":657:671   */\n  lt\n    /* \"#utility.yul\":637:655   */\n  dup2\n    /* \"#utility.yul\":634:672   */\n  eq\n    /* \"#utility.yul\":631:715   */\n  iszero\n  tag_34\n  jumpi\n    /* \"#utility.yul\":687:705   */\n  tag_35\n  tag_36\n  jump\t// in\ntag_35:\n    /* \"#utility.yul\":631:715   */\ntag_34:\n    /* \"#utility.yul\":452:721   */\n  pop\n    /* \"#utility.yul\":401:721   */\n  swap2\n  swap1\n  pop\n  jump\t// out\n    /* \"#utility.yul\":727:907   */\ntag_30:\n    /* \"#utility.yul\":775:852   */\n  0x4e487b7100000000000000000000000000000000000000000000000000000000\n    /* \"#utility.yul\":772:773   */\n  0x00\n    /* \"#utility.yul\":765:853   */\n  mstore\n    /* \"#utility.yul\":872:876   */\n  0x11\n    /* \"#utility.yul\":869:870   */\n  0x04\n    /* \"#utility.yul\":862:877   */\n  mstore\n    /* \"#utility.yul\":896:900   */\n  0x24\n    /* \"#utility.yul\":893:894   */\n  0x00\n    /* \"#utility.yul\":886:901   */\n  revert\n    /* \"#utility.yul\":913:1093   */\ntag_6:\n    /* \"#utility.yul\":961:1038   */\n  0x4e487b7100000000000000000000000000000000000000000000000000000000\n    /* \"#utility.yul\":958:959   */\n  0x00\n    /* \"#utility.yul\":951:1039   */\n  mstore\n    /* \"#utility.yul\":1058:1062   */\n  0x21\n    /* \"#utility.yul\":1055:1056   */\n  0x04\n    /* \"#utility.yul\":1048:1063   */\n  mstore\n    /* \"#utility.yul\":1082:1086   */\n  0x24\n    /* \"#utility.yul\":1079:1080   */\n  0x00\n    /* \"#utility.yul\":1072:1087   */\n  revert\n    /* \"#utility.yul\":1099:1279   */\ntag_36:\n    /* \"#utility.yul\":1147:1224   */\n  0x4e487b7100000000000000000000000000000000000000000000000000000000\n    /* \"#utility.yul\":1144:1145   */\n  0x00\n    /* \"#utility.yul\":1137:1225   */\n  mstore\n    /* \"#utility.yul\":1244:1248   */\n  0x22\n    /* \"#utility.yul\":1241:1242   */\n  0x04\n    /* \"#utility.yul\":1234:1249   */\n  mstore\n    /* \"#utility.yul\":1268:1272   */\n  0x24\n    /* \"#utility.yul\":1265:1266   */\n  0x00\n    /* \"#utility.yul\":1258:1273   */\n  revert\n    /* \"contracts/Project 2 - The Auction Smart Contract/Auction.sol\":73:4376  contract Auction{... */\ntag_11:\n  dataSize(sub_0)\n  dup1\n  dataOffset(sub_0)\n  0x00\n  codecopy\n  0x00\n  return\nstop\n\nsub_0: assembly {\n        /* \"contracts/Project 2 - The Auction Smart Contract/Auction.sol\":73:4376  contract Auction{... */\n      mstore(0x40, 0x80)\n      jumpi(tag_1, lt(calldatasize, 0x04))\n      shr(0xe0, calldataload(0x00))\n      dup1\n      0x8fa8b790\n      gt\n      tag_14\n      jumpi\n      dup1\n      0x8fa8b790\n      eq\n      tag_8\n      jumpi\n      dup1\n      0x91f90157\n      eq\n      tag_9\n      jumpi\n      dup1\n      0xc623674f\n      eq\n      tag_10\n      jumpi\n      dup1\n      0xecfc7ecc\n      eq\n      tag_11\n      jumpi\n      dup1\n      0xf5b56c56\n      eq\n      tag_12\n      jumpi\n      dup1\n      0xf77282ab\n      eq\n      tag_13\n      jumpi\n      jump(tag_1)\n    tag_14:\n      dup1\n      0x083c6323\n      eq\n      tag_2\n      jumpi\n      dup1\n      0x48cd4cb1\n      eq\n      tag_3\n      jumpi\n      dup1\n      0x62ea82db\n      eq\n      tag_4\n      jumpi\n      dup1\n      0x7fb45099\n      eq\n      tag_5\n      jumpi\n      dup1\n      0x8b7b097f\n      eq\n      tag_6\n      jumpi\n      dup1\n      0x8da5cb5b\n      eq\n      tag_7\n      jumpi\n    tag_1:\n      0x00\n      dup1\n      revert\n        /* \"contracts/Project 2 - The Auction Smart Contract/Auction.sol\":157:177  uint public endBlock */\n    tag_2:\n      callvalue\n      dup1\n      iszero\n      tag_15\n      jumpi\n      0x00\n      dup1\n      revert\n    tag_15:\n      pop\n      tag_16\n      tag_17\n      jump\t// in\n    tag_16:\n      mload(0x40)\n      tag_18\n      swap2\n      swap1\n      tag_19\n      jump\t// in\n    tag_18:\n      mload(0x40)\n      dup1\n      swap2\n      sub\n      swap1\n      return\n        /* \"contracts/Project 2 - The Auction Smart Contract/Auction.sol\":129:151  uint public startBlock */\n    tag_3:\n      callvalue\n      dup1\n      iszero\n      tag_20\n      jumpi\n      0x00\n      dup1\n      revert\n    tag_20:\n      pop\n      tag_21\n      tag_22\n      jump\t// in\n    tag_21:\n      mload(0x40)\n      tag_23\n      swap2\n      swap1\n      tag_19\n      jump\t// in\n    tag_23:\n      mload(0x40)\n      dup1\n      swap2\n      sub\n      swap1\n      return\n        /* \"contracts/Project 2 - The Auction Smart Contract/Auction.sol\":392:428  mapping(address => uint) public bids */\n    tag_4:\n      callvalue\n      dup1\n      iszero\n      tag_24\n      jumpi\n      0x00\n      dup1\n      revert\n    tag_24:\n      pop\n      tag_25\n      0x04\n      dup1\n      calldatasize\n      sub\n      dup2\n      add\n      swap1\n      tag_26\n      swap2\n      swap1\n      tag_27\n      jump\t// in\n    tag_26:\n      tag_28\n      jump\t// in\n    tag_25:\n      mload(0x40)\n      tag_29\n      swap2\n      swap1\n      tag_19\n      jump\t// in\n    tag_29:\n      mload(0x40)\n      dup1\n      swap2\n      sub\n      swap1\n      return\n        /* \"contracts/Project 2 - The Auction Smart Contract/Auction.sol\":269:294  State public auctionState */\n    tag_5:\n      callvalue\n      dup1\n      iszero\n      tag_30\n      jumpi\n      0x00\n      dup1\n      revert\n    tag_30:\n      pop\n      tag_31\n      tag_32\n      jump\t// in\n    tag_31:\n      mload(0x40)\n      tag_33\n      swap2\n      swap1\n      tag_34\n      jump\t// in\n    tag_33:\n      mload(0x40)\n      dup1\n      swap2\n      sub\n      swap1\n      return\n        /* \"contracts/Project 2 - The Auction Smart Contract/Auction.sol\":543:577  bool public ownerFinalized = false */\n    tag_6:\n      callvalue\n      dup1\n      iszero\n      tag_35\n      jumpi\n      0x00\n      dup1\n      revert\n    tag_35:\n      pop\n      tag_36\n      tag_37\n      jump\t// in\n    tag_36:\n      mload(0x40)\n      tag_38\n      swap2\n      swap1\n      tag_39\n      jump\t// in\n    tag_38:\n      mload(0x40)\n      dup1\n      swap2\n      sub\n      swap1\n      return\n        /* \"contracts/Project 2 - The Auction Smart Contract/Auction.sol\":95:123  address payable public owner */\n    tag_7:\n      callvalue\n      dup1\n      iszero\n      tag_40\n      jumpi\n      0x00\n      dup1\n      revert\n    tag_40:\n      pop\n      tag_41\n      tag_42\n      jump\t// in\n    tag_41:\n      mload(0x40)\n      tag_43\n      swap2\n      swap1\n      tag_44\n      jump\t// in\n    tag_43:\n      mload(0x40)\n      dup1\n      swap2\n      sub\n      swap1\n      return\n        /* \"contracts/Project 2 - The Auction Smart Contract/Auction.sol\":1588:1685  function cancelAuction() public beforeEnd onlyOwner{... */\n    tag_8:\n      callvalue\n      dup1\n      iszero\n      tag_45\n      jumpi\n      0x00\n      dup1\n      revert\n    tag_45:\n      pop\n      tag_46\n      tag_47\n      jump\t// in\n    tag_46:\n      stop\n        /* \"contracts/Project 2 - The Auction Smart Contract/Auction.sol\":350:386  address payable public highestBidder */\n    tag_9:\n      callvalue\n      dup1\n      iszero\n      tag_48\n      jumpi\n      0x00\n      dup1\n      revert\n    tag_48:\n      pop\n      tag_49\n      tag_50\n      jump\t// in\n    tag_49:\n      mload(0x40)\n      tag_51\n      swap2\n      swap1\n      tag_44\n      jump\t// in\n    tag_51:\n      mload(0x40)\n      dup1\n      swap2\n      sub\n      swap1\n      return\n        /* \"contracts/Project 2 - The Auction Smart Contract/Auction.sol\":183:205  string public ipfsHash */\n    tag_10:\n      callvalue\n      dup1\n      iszero\n      tag_52\n      jumpi\n      0x00\n      dup1\n      revert\n    tag_52:\n      pop\n      tag_53\n      tag_54\n      jump\t// in\n    tag_53:\n      mload(0x40)\n      tag_55\n      swap2\n      swap1\n      tag_56\n      jump\t// in\n    tag_55:\n      mload(0x40)\n      dup1\n      swap2\n      sub\n      swap1\n      return\n        /* \"contracts/Project 2 - The Auction Smart Contract/Auction.sol\":1747:2741  function placeBid() public payable notOwner afterStart beforeEnd returns(bool){... */\n    tag_11:\n      tag_57\n      tag_58\n      jump\t// in\n    tag_57:\n      mload(0x40)\n      tag_59\n      swap2\n      swap1\n      tag_39\n      jump\t// in\n    tag_59:\n      mload(0x40)\n      dup1\n      swap2\n      sub\n      swap1\n      return\n        /* \"contracts/Project 2 - The Auction Smart Contract/Auction.sol\":305:334  uint public highestBindingBid */\n    tag_12:\n      callvalue\n      dup1\n      iszero\n      tag_60\n      jumpi\n      0x00\n      dup1\n      revert\n    tag_60:\n      pop\n      tag_61\n      tag_62\n      jump\t// in\n    tag_61:\n      mload(0x40)\n      tag_63\n      swap2\n      swap1\n      tag_19\n      jump\t// in\n    tag_63:\n      mload(0x40)\n      dup1\n      swap2\n      sub\n      swap1\n      return\n        /* \"contracts/Project 2 - The Auction Smart Contract/Auction.sol\":2761:4373  function finalizeAuction() public{... */\n    tag_13:\n      callvalue\n      dup1\n      iszero\n      tag_64\n      jumpi\n      0x00\n      dup1\n      revert\n    tag_64:\n      pop\n      tag_65\n      tag_66\n      jump\t// in\n    tag_65:\n      stop\n        /* \"contracts/Project 2 - The Auction Smart Contract/Auction.sol\":157:177  uint public endBlock */\n    tag_17:\n      sload(0x02)\n      dup2\n      jump\t// out\n        /* \"contracts/Project 2 - The Auction Smart Contract/Auction.sol\":129:151  uint public startBlock */\n    tag_22:\n      sload(0x01)\n      dup2\n      jump\t// out\n        /* \"contracts/Project 2 - The Auction Smart Contract/Auction.sol\":392:428  mapping(address => uint) public bids */\n    tag_28:\n      mstore(0x20, 0x07)\n      dup1\n      0x00\n      mstore\n      keccak256(0x00, 0x40)\n      0x00\n      swap2\n      pop\n      swap1\n      pop\n      sload\n      dup2\n      jump\t// out\n        /* \"contracts/Project 2 - The Auction Smart Contract/Auction.sol\":269:294  State public auctionState */\n    tag_32:\n      0x04\n      0x00\n      swap1\n      sload\n      swap1\n      0x0100\n      exp\n      swap1\n      div\n      0xff\n      and\n      dup2\n      jump\t// out\n        /* \"contracts/Project 2 - The Auction Smart Contract/Auction.sol\":543:577  bool public ownerFinalized = false */\n    tag_37:\n      0x09\n      0x00\n      swap1\n      sload\n      swap1\n      0x0100\n      exp\n      swap1\n      div\n      0xff\n      and\n      dup2\n      jump\t// out\n        /* \"contracts/Project 2 - The Auction Smart Contract/Auction.sol\":95:123  address payable public owner */\n    tag_42:\n      0x00\n      dup1\n      sload\n      swap1\n      0x0100\n      exp\n      swap1\n      div\n      0xffffffffffffffffffffffffffffffffffffffff\n      and\n      dup2\n      jump\t// out\n        /* \"contracts/Project 2 - The Auction Smart Contract/Auction.sol\":1588:1685  function cancelAuction() public beforeEnd onlyOwner{... */\n    tag_47:\n        /* \"contracts/Project 2 - The Auction Smart Contract/Auction.sol\":1228:1236  endBlock */\n      sload(0x02)\n        /* \"contracts/Project 2 - The Auction Smart Contract/Auction.sol\":1212:1224  block.number */\n      number\n        /* \"contracts/Project 2 - The Auction Smart Contract/Auction.sol\":1212:1236  block.number <= endBlock */\n      gt\n      iszero\n        /* \"contracts/Project 2 - The Auction Smart Contract/Auction.sol\":1204:1237  require(block.number <= endBlock) */\n      tag_68\n      jumpi\n      0x00\n      dup1\n      revert\n    tag_68:\n        /* \"contracts/Project 2 - The Auction Smart Contract/Auction.sol\":1046:1051  owner */\n      0x00\n      dup1\n      sload\n      swap1\n      0x0100\n      exp\n      swap1\n      div\n      0xffffffffffffffffffffffffffffffffffffffff\n      and\n        /* \"contracts/Project 2 - The Auction Smart Contract/Auction.sol\":1032:1051  msg.sender == owner */\n      0xffffffffffffffffffffffffffffffffffffffff\n      and\n        /* \"contracts/Project 2 - The Auction Smart Contract/Auction.sol\":1032:1042  msg.sender */\n      caller\n        /* \"contracts/Project 2 - The Auction Smart Contract/Auction.sol\":1032:1051  msg.sender == owner */\n      0xffffffffffffffffffffffffffffffffffffffff\n      and\n      eq\n        /* \"contracts/Project 2 - The Auction Smart Contract/Auction.sol\":1024:1052  require(msg.sender == owner) */\n      tag_70\n      jumpi\n      0x00\n      dup1\n      revert\n    tag_70:\n        /* \"contracts/Project 2 - The Auction Smart Contract/Auction.sol\":1664:1678  State.Canceled */\n      0x03\n        /* \"contracts/Project 2 - The Auction Smart Contract/Auction.sol\":1649:1661  auctionState */\n      0x04\n      0x00\n        /* \"contracts/Project 2 - The Auction Smart Contract/Auction.sol\":1649:1678  auctionState = State.Canceled */\n      0x0100\n      exp\n      dup2\n      sload\n      dup2\n      0xff\n      mul\n      not\n      and\n      swap1\n      dup4\n      0x03\n      dup2\n      gt\n      iszero\n      tag_72\n      jumpi\n      tag_73\n      tag_74\n      jump\t// in\n    tag_73:\n    tag_72:\n      mul\n      or\n      swap1\n      sstore\n      pop\n        /* \"contracts/Project 2 - The Auction Smart Contract/Auction.sol\":1588:1685  function cancelAuction() public beforeEnd onlyOwner{... */\n      jump\t// out\n        /* \"contracts/Project 2 - The Auction Smart Contract/Auction.sol\":350:386  address payable public highestBidder */\n    tag_50:\n      0x06\n      0x00\n      swap1\n      sload\n      swap1\n      0x0100\n      exp\n      swap1\n      div\n      0xffffffffffffffffffffffffffffffffffffffff\n      and\n      dup2\n      jump\t// out\n        /* \"contracts/Project 2 - The Auction Smart Contract/Auction.sol\":183:205  string public ipfsHash */\n    tag_54:\n      0x03\n      dup1\n      sload\n      tag_75\n      swap1\n      tag_76\n      jump\t// in\n    tag_75:\n      dup1\n      0x1f\n      add\n      0x20\n      dup1\n      swap2\n      div\n      mul\n      0x20\n      add\n      mload(0x40)\n      swap1\n      dup2\n      add\n      0x40\n      mstore\n      dup1\n      swap3\n      swap2\n      swap1\n      dup2\n      dup2\n      mstore\n      0x20\n      add\n      dup3\n      dup1\n      sload\n      tag_77\n      swap1\n      tag_76\n      jump\t// in\n    tag_77:\n      dup1\n      iszero\n      tag_78\n      jumpi\n      dup1\n      0x1f\n      lt\n      tag_79\n      jumpi\n      0x0100\n      dup1\n      dup4\n      sload\n      div\n      mul\n      dup4\n      mstore\n      swap2\n      0x20\n      add\n      swap2\n      jump(tag_78)\n    tag_79:\n      dup3\n      add\n      swap2\n      swap1\n      0x00\n      mstore\n      keccak256(0x00, 0x20)\n      swap1\n    tag_80:\n      dup2\n      sload\n      dup2\n      mstore\n      swap1\n      0x01\n      add\n      swap1\n      0x20\n      add\n      dup1\n      dup4\n      gt\n      tag_80\n      jumpi\n      dup3\n      swap1\n      sub\n      0x1f\n      and\n      dup3\n      add\n      swap2\n    tag_78:\n      pop\n      pop\n      pop\n      pop\n      pop\n      dup2\n      jump\t// out\n        /* \"contracts/Project 2 - The Auction Smart Contract/Auction.sol\":1747:2741  function placeBid() public payable notOwner afterStart beforeEnd returns(bool){... */\n    tag_58:\n        /* \"contracts/Project 2 - The Auction Smart Contract/Auction.sol\":1820:1824  bool */\n      0x00\n        /* \"contracts/Project 2 - The Auction Smart Contract/Auction.sol\":960:965  owner */\n      dup1\n      0x00\n      swap1\n      sload\n      swap1\n      0x0100\n      exp\n      swap1\n      div\n      0xffffffffffffffffffffffffffffffffffffffff\n      and\n        /* \"contracts/Project 2 - The Auction Smart Contract/Auction.sol\":946:965  msg.sender != owner */\n      0xffffffffffffffffffffffffffffffffffffffff\n      and\n        /* \"contracts/Project 2 - The Auction Smart Contract/Auction.sol\":946:956  msg.sender */\n      caller\n        /* \"contracts/Project 2 - The Auction Smart Contract/Auction.sol\":946:965  msg.sender != owner */\n      0xffffffffffffffffffffffffffffffffffffffff\n      and\n      eq\n      iszero\n        /* \"contracts/Project 2 - The Auction Smart Contract/Auction.sol\":938:966  require(msg.sender != owner) */\n      tag_82\n      jumpi\n      0x00\n      dup1\n      revert\n    tag_82:\n        /* \"contracts/Project 2 - The Auction Smart Contract/Auction.sol\":1135:1145  startBlock */\n      sload(0x01)\n        /* \"contracts/Project 2 - The Auction Smart Contract/Auction.sol\":1119:1131  block.number */\n      number\n        /* \"contracts/Project 2 - The Auction Smart Contract/Auction.sol\":1119:1145  block.number >= startBlock */\n      lt\n      iszero\n        /* \"contracts/Project 2 - The Auction Smart Contract/Auction.sol\":1111:1146  require(block.number >= startBlock) */\n      tag_84\n      jumpi\n      0x00\n      dup1\n      revert\n    tag_84:\n        /* \"contracts/Project 2 - The Auction Smart Contract/Auction.sol\":1228:1236  endBlock */\n      sload(0x02)\n        /* \"contracts/Project 2 - The Auction Smart Contract/Auction.sol\":1212:1224  block.number */\n      number\n        /* \"contracts/Project 2 - The Auction Smart Contract/Auction.sol\":1212:1236  block.number <= endBlock */\n      gt\n      iszero\n        /* \"contracts/Project 2 - The Auction Smart Contract/Auction.sol\":1204:1237  require(block.number <= endBlock) */\n      tag_86\n      jumpi\n      0x00\n      dup1\n      revert\n    tag_86:\n        /* \"contracts/Project 2 - The Auction Smart Contract/Auction.sol\":1911:1924  State.Running */\n      0x01\n        /* \"contracts/Project 2 - The Auction Smart Contract/Auction.sol\":1895:1924  auctionState == State.Running */\n      0x03\n      dup2\n      gt\n      iszero\n      tag_88\n      jumpi\n      tag_89\n      tag_74\n      jump\t// in\n    tag_89:\n    tag_88:\n        /* \"contracts/Project 2 - The Auction Smart Contract/Auction.sol\":1895:1907  auctionState */\n      0x04\n      0x00\n      swap1\n      sload\n      swap1\n      0x0100\n      exp\n      swap1\n      div\n      0xff\n      and\n        /* \"contracts/Project 2 - The Auction Smart Contract/Auction.sol\":1895:1924  auctionState == State.Running */\n      0x03\n      dup2\n      gt\n      iszero\n      tag_90\n      jumpi\n      tag_91\n      tag_74\n      jump\t// in\n    tag_91:\n    tag_90:\n      eq\n        /* \"contracts/Project 2 - The Auction Smart Contract/Auction.sol\":1887:1925  require(auctionState == State.Running) */\n      tag_92\n      jumpi\n      0x00\n      dup1\n      revert\n    tag_92:\n        /* \"contracts/Project 2 - The Auction Smart Contract/Auction.sol\":2034:2049  uint currentBid */\n      0x00\n        /* \"contracts/Project 2 - The Auction Smart Contract/Auction.sol\":2071:2080  msg.value */\n      callvalue\n        /* \"contracts/Project 2 - The Auction Smart Contract/Auction.sol\":2052:2056  bids */\n      0x07\n        /* \"contracts/Project 2 - The Auction Smart Contract/Auction.sol\":2052:2068  bids[msg.sender] */\n      0x00\n        /* \"contracts/Project 2 - The Auction Smart Contract/Auction.sol\":2057:2067  msg.sender */\n      caller\n        /* \"contracts/Project 2 - The Auction Smart Contract/Auction.sol\":2052:2068  bids[msg.sender] */\n      0xffffffffffffffffffffffffffffffffffffffff\n      and\n      0xffffffffffffffffffffffffffffffffffffffff\n      and\n      dup2\n      mstore\n      0x20\n      add\n      swap1\n      dup2\n      mstore\n      0x20\n      add\n      0x00\n      keccak256\n      sload\n        /* \"contracts/Project 2 - The Auction Smart Contract/Auction.sol\":2052:2080  bids[msg.sender] + msg.value */\n      tag_93\n      swap2\n      swap1\n      tag_94\n      jump\t// in\n    tag_93:\n        /* \"contracts/Project 2 - The Auction Smart Contract/Auction.sol\":2034:2080  uint currentBid = bids[msg.sender] + msg.value */\n      swap1\n      pop\n        /* \"contracts/Project 2 - The Auction Smart Contract/Auction.sol\":2237:2254  highestBindingBid */\n      sload(0x05)\n        /* \"contracts/Project 2 - The Auction Smart Contract/Auction.sol\":2224:2234  currentBid */\n      dup2\n        /* \"contracts/Project 2 - The Auction Smart Contract/Auction.sol\":2224:2254  currentBid > highestBindingBid */\n      gt\n        /* \"contracts/Project 2 - The Auction Smart Contract/Auction.sol\":2216:2255  require(currentBid > highestBindingBid) */\n      tag_95\n      jumpi\n      0x00\n      dup1\n      revert\n    tag_95:\n        /* \"contracts/Project 2 - The Auction Smart Contract/Auction.sol\":2334:2344  currentBid */\n      dup1\n        /* \"contracts/Project 2 - The Auction Smart Contract/Auction.sol\":2315:2319  bids */\n      0x07\n        /* \"contracts/Project 2 - The Auction Smart Contract/Auction.sol\":2315:2331  bids[msg.sender] */\n      0x00\n        /* \"contracts/Project 2 - The Auction Smart Contract/Auction.sol\":2320:2330  msg.sender */\n      caller\n        /* \"contracts/Project 2 - The Auction Smart Contract/Auction.sol\":2315:2331  bids[msg.sender] */\n      0xffffffffffffffffffffffffffffffffffffffff\n      and\n      0xffffffffffffffffffffffffffffffffffffffff\n      and\n      dup2\n      mstore\n      0x20\n      add\n      swap1\n      dup2\n      mstore\n      0x20\n      add\n      0x00\n      keccak256\n        /* \"contracts/Project 2 - The Auction Smart Contract/Auction.sol\":2315:2344  bids[msg.sender] = currentBid */\n      dup2\n      swap1\n      sstore\n      pop\n        /* \"contracts/Project 2 - The Auction Smart Contract/Auction.sol\":2381:2385  bids */\n      0x07\n        /* \"contracts/Project 2 - The Auction Smart Contract/Auction.sol\":2381:2400  bids[highestBidder] */\n      0x00\n        /* \"contracts/Project 2 - The Auction Smart Contract/Auction.sol\":2386:2399  highestBidder */\n      0x06\n      0x00\n      swap1\n      sload\n      swap1\n      0x0100\n      exp\n      swap1\n      div\n      0xffffffffffffffffffffffffffffffffffffffff\n      and\n        /* \"contracts/Project 2 - The Auction Smart Contract/Auction.sol\":2381:2400  bids[highestBidder] */\n      0xffffffffffffffffffffffffffffffffffffffff\n      and\n      0xffffffffffffffffffffffffffffffffffffffff\n      and\n      dup2\n      mstore\n      0x20\n      add\n      swap1\n      dup2\n      mstore\n      0x20\n      add\n      0x00\n      keccak256\n      sload\n        /* \"contracts/Project 2 - The Auction Smart Contract/Auction.sol\":2367:2377  currentBid */\n      dup2\n        /* \"contracts/Project 2 - The Auction Smart Contract/Auction.sol\":2367:2400  currentBid <= bids[highestBidder] */\n      gt\n        /* \"contracts/Project 2 - The Auction Smart Contract/Auction.sol\":2363:2718  if (currentBid <= bids[highestBidder]){ // highestBidder remains unchanged... */\n      tag_96\n      jumpi\n        /* \"contracts/Project 2 - The Auction Smart Contract/Auction.sol\":2470:2521  min(currentBid + bidIncrement, bids[highestBidder]) */\n      tag_97\n        /* \"contracts/Project 2 - The Auction Smart Contract/Auction.sol\":2487:2499  bidIncrement */\n      sload(0x08)\n        /* \"contracts/Project 2 - The Auction Smart Contract/Auction.sol\":2474:2484  currentBid */\n      dup3\n        /* \"contracts/Project 2 - The Auction Smart Contract/Auction.sol\":2474:2499  currentBid + bidIncrement */\n      tag_98\n      swap2\n      swap1\n      tag_94\n      jump\t// in\n    tag_98:\n        /* \"contracts/Project 2 - The Auction Smart Contract/Auction.sol\":2501:2505  bids */\n      0x07\n        /* \"contracts/Project 2 - The Auction Smart Contract/Auction.sol\":2501:2520  bids[highestBidder] */\n      0x00\n        /* \"contracts/Project 2 - The Auction Smart Contract/Auction.sol\":2506:2519  highestBidder */\n      0x06\n      0x00\n      swap1\n      sload\n      swap1\n      0x0100\n      exp\n      swap1\n      div\n      0xffffffffffffffffffffffffffffffffffffffff\n      and\n        /* \"contracts/Project 2 - The Auction Smart Contract/Auction.sol\":2501:2520  bids[highestBidder] */\n      0xffffffffffffffffffffffffffffffffffffffff\n      and\n      0xffffffffffffffffffffffffffffffffffffffff\n      and\n      dup2\n      mstore\n      0x20\n      add\n      swap1\n      dup2\n      mstore\n      0x20\n      add\n      0x00\n      keccak256\n      sload\n        /* \"contracts/Project 2 - The Auction Smart Contract/Auction.sol\":2470:2473  min */\n      tag_99\n        /* \"contracts/Project 2 - The Auction Smart Contract/Auction.sol\":2470:2521  min(currentBid + bidIncrement, bids[highestBidder]) */\n      jump\t// in\n    tag_97:\n        /* \"contracts/Project 2 - The Auction Smart Contract/Auction.sol\":2450:2467  highestBindingBid */\n      0x05\n        /* \"contracts/Project 2 - The Auction Smart Contract/Auction.sol\":2450:2521  highestBindingBid = min(currentBid + bidIncrement, bids[highestBidder]) */\n      dup2\n      swap1\n      sstore\n      pop\n        /* \"contracts/Project 2 - The Auction Smart Contract/Auction.sol\":2363:2718  if (currentBid <= bids[highestBidder]){ // highestBidder remains unchanged... */\n      jump(tag_100)\n    tag_96:\n        /* \"contracts/Project 2 - The Auction Smart Contract/Auction.sol\":2606:2657  min(currentBid, bids[highestBidder] + bidIncrement) */\n      tag_101\n        /* \"contracts/Project 2 - The Auction Smart Contract/Auction.sol\":2610:2620  currentBid */\n      dup2\n        /* \"contracts/Project 2 - The Auction Smart Contract/Auction.sol\":2644:2656  bidIncrement */\n      sload(0x08)\n        /* \"contracts/Project 2 - The Auction Smart Contract/Auction.sol\":2622:2626  bids */\n      0x07\n        /* \"contracts/Project 2 - The Auction Smart Contract/Auction.sol\":2622:2641  bids[highestBidder] */\n      0x00\n        /* \"contracts/Project 2 - The Auction Smart Contract/Auction.sol\":2627:2640  highestBidder */\n      0x06\n      0x00\n      swap1\n      sload\n      swap1\n      0x0100\n      exp\n      swap1\n      div\n      0xffffffffffffffffffffffffffffffffffffffff\n      and\n        /* \"contracts/Project 2 - The Auction Smart Contract/Auction.sol\":2622:2641  bids[highestBidder] */\n      0xffffffffffffffffffffffffffffffffffffffff\n      and\n      0xffffffffffffffffffffffffffffffffffffffff\n      and\n      dup2\n      mstore\n      0x20\n      add\n      swap1\n      dup2\n      mstore\n      0x20\n      add\n      0x00\n      keccak256\n      sload\n        /* \"contracts/Project 2 - The Auction Smart Contract/Auction.sol\":2622:2656  bids[highestBidder] + bidIncrement */\n      tag_102\n      swap2\n      swap1\n      tag_94\n      jump\t// in\n    tag_102:\n        /* \"contracts/Project 2 - The Auction Smart Contract/Auction.sol\":2606:2609  min */\n      tag_99\n        /* \"contracts/Project 2 - The Auction Smart Contract/Auction.sol\":2606:2657  min(currentBid, bids[highestBidder] + bidIncrement) */\n      jump\t// in\n    tag_101:\n        /* \"contracts/Project 2 - The Auction Smart Contract/Auction.sol\":2586:2603  highestBindingBid */\n      0x05\n        /* \"contracts/Project 2 - The Auction Smart Contract/Auction.sol\":2586:2657  highestBindingBid = min(currentBid, bids[highestBidder] + bidIncrement) */\n      dup2\n      swap1\n      sstore\n      pop\n        /* \"contracts/Project 2 - The Auction Smart Contract/Auction.sol\":2696:2706  msg.sender */\n      caller\n        /* \"contracts/Project 2 - The Auction Smart Contract/Auction.sol\":2672:2685  highestBidder */\n      0x06\n      0x00\n        /* \"contracts/Project 2 - The Auction Smart Contract/Auction.sol\":2672:2707  highestBidder = payable(msg.sender) */\n      0x0100\n      exp\n      dup2\n      sload\n      dup2\n      0xffffffffffffffffffffffffffffffffffffffff\n      mul\n      not\n      and\n      swap1\n      dup4\n      0xffffffffffffffffffffffffffffffffffffffff\n      and\n      mul\n      or\n      swap1\n      sstore\n      pop\n        /* \"contracts/Project 2 - The Auction Smart Contract/Auction.sol\":2363:2718  if (currentBid <= bids[highestBidder]){ // highestBidder remains unchanged... */\n    tag_100:\n        /* \"contracts/Project 2 - The Auction Smart Contract/Auction.sol\":2730:2734  true */\n      0x01\n        /* \"contracts/Project 2 - The Auction Smart Contract/Auction.sol\":2723:2734  return true */\n      swap2\n      pop\n      pop\n        /* \"contracts/Project 2 - The Auction Smart Contract/Auction.sol\":1747:2741  function placeBid() public payable notOwner afterStart beforeEnd returns(bool){... */\n      swap1\n      jump\t// out\n        /* \"contracts/Project 2 - The Auction Smart Contract/Auction.sol\":305:334  uint public highestBindingBid */\n    tag_62:\n      sload(0x05)\n      dup2\n      jump\t// out\n        /* \"contracts/Project 2 - The Auction Smart Contract/Auction.sol\":2761:4373  function finalizeAuction() public{... */\n    tag_66:\n        /* \"contracts/Project 2 - The Auction Smart Contract/Auction.sol\":2876:2890  State.Canceled */\n      0x03\n        /* \"contracts/Project 2 - The Auction Smart Contract/Auction.sol\":2860:2890  auctionState == State.Canceled */\n      dup1\n      dup2\n      gt\n      iszero\n      tag_104\n      jumpi\n      tag_105\n      tag_74\n      jump\t// in\n    tag_105:\n    tag_104:\n        /* \"contracts/Project 2 - The Auction Smart Contract/Auction.sol\":2860:2872  auctionState */\n      0x04\n      0x00\n      swap1\n      sload\n      swap1\n      0x0100\n      exp\n      swap1\n      div\n      0xff\n      and\n        /* \"contracts/Project 2 - The Auction Smart Contract/Auction.sol\":2860:2890  auctionState == State.Canceled */\n      0x03\n      dup2\n      gt\n      iszero\n      tag_106\n      jumpi\n      tag_107\n      tag_74\n      jump\t// in\n    tag_107:\n    tag_106:\n      eq\n        /* \"contracts/Project 2 - The Auction Smart Contract/Auction.sol\":2860:2917  auctionState == State.Canceled || block.number > endBlock */\n      dup1\n      tag_108\n      jumpi\n      pop\n        /* \"contracts/Project 2 - The Auction Smart Contract/Auction.sol\":2909:2917  endBlock */\n      sload(0x02)\n        /* \"contracts/Project 2 - The Auction Smart Contract/Auction.sol\":2894:2906  block.number */\n      number\n        /* \"contracts/Project 2 - The Auction Smart Contract/Auction.sol\":2894:2917  block.number > endBlock */\n      gt\n        /* \"contracts/Project 2 - The Auction Smart Contract/Auction.sol\":2860:2917  auctionState == State.Canceled || block.number > endBlock */\n    tag_108:\n        /* \"contracts/Project 2 - The Auction Smart Contract/Auction.sol\":2852:2918  require(auctionState == State.Canceled || block.number > endBlock) */\n      tag_109\n      jumpi\n      0x00\n      dup1\n      revert\n    tag_109:\n        /* \"contracts/Project 2 - The Auction Smart Contract/Auction.sol\":3020:3025  owner */\n      0x00\n      dup1\n      sload\n      swap1\n      0x0100\n      exp\n      swap1\n      div\n      0xffffffffffffffffffffffffffffffffffffffff\n      and\n        /* \"contracts/Project 2 - The Auction Smart Contract/Auction.sol\":3006:3025  msg.sender == owner */\n      0xffffffffffffffffffffffffffffffffffffffff\n      and\n        /* \"contracts/Project 2 - The Auction Smart Contract/Auction.sol\":3006:3016  msg.sender */\n      caller\n        /* \"contracts/Project 2 - The Auction Smart Contract/Auction.sol\":3006:3025  msg.sender == owner */\n      0xffffffffffffffffffffffffffffffffffffffff\n      and\n      eq\n        /* \"contracts/Project 2 - The Auction Smart Contract/Auction.sol\":3006:3049  msg.sender == owner || bids[msg.sender] > 0 */\n      dup1\n      tag_110\n      jumpi\n      pop\n        /* \"contracts/Project 2 - The Auction Smart Contract/Auction.sol\":3048:3049  0 */\n      0x00\n        /* \"contracts/Project 2 - The Auction Smart Contract/Auction.sol\":3029:3033  bids */\n      0x07\n        /* \"contracts/Project 2 - The Auction Smart Contract/Auction.sol\":3029:3045  bids[msg.sender] */\n      0x00\n        /* \"contracts/Project 2 - The Auction Smart Contract/Auction.sol\":3034:3044  msg.sender */\n      caller\n        /* \"contracts/Project 2 - The Auction Smart Contract/Auction.sol\":3029:3045  bids[msg.sender] */\n      0xffffffffffffffffffffffffffffffffffffffff\n      and\n      0xffffffffffffffffffffffffffffffffffffffff\n      and\n      dup2\n      mstore\n      0x20\n      add\n      swap1\n      dup2\n      mstore\n      0x20\n      add\n      0x00\n      keccak256\n      sload\n        /* \"contracts/Project 2 - The Auction Smart Contract/Auction.sol\":3029:3049  bids[msg.sender] > 0 */\n      gt\n        /* \"contracts/Project 2 - The Auction Smart Contract/Auction.sol\":3006:3049  msg.sender == owner || bids[msg.sender] > 0 */\n    tag_110:\n        /* \"contracts/Project 2 - The Auction Smart Contract/Auction.sol\":2998:3050  require(msg.sender == owner || bids[msg.sender] > 0) */\n      tag_111\n      jumpi\n      0x00\n      dup1\n      revert\n    tag_111:\n        /* \"contracts/Project 2 - The Auction Smart Contract/Auction.sol\":3110:3135  address payable recipient */\n      0x00\n        /* \"contracts/Project 2 - The Auction Smart Contract/Auction.sol\":3144:3154  uint value */\n      dup1\n        /* \"contracts/Project 2 - The Auction Smart Contract/Auction.sol\":3190:3204  State.Canceled */\n      0x03\n        /* \"contracts/Project 2 - The Auction Smart Contract/Auction.sol\":3174:3204  auctionState == State.Canceled */\n      dup1\n      dup2\n      gt\n      iszero\n      tag_112\n      jumpi\n      tag_113\n      tag_74\n      jump\t// in\n    tag_113:\n    tag_112:\n        /* \"contracts/Project 2 - The Auction Smart Contract/Auction.sol\":3174:3186  auctionState */\n      0x04\n      0x00\n      swap1\n      sload\n      swap1\n      0x0100\n      exp\n      swap1\n      div\n      0xff\n      and\n        /* \"contracts/Project 2 - The Auction Smart Contract/Auction.sol\":3174:3204  auctionState == State.Canceled */\n      0x03\n      dup2\n      gt\n      iszero\n      tag_114\n      jumpi\n      tag_115\n      tag_74\n      jump\t// in\n    tag_115:\n    tag_114:\n      eq\n        /* \"contracts/Project 2 - The Auction Smart Contract/Auction.sol\":3171:4149  if(auctionState == State.Canceled){ // auction canceled, not ended... */\n      iszero\n      tag_116\n      jumpi\n        /* \"contracts/Project 2 - The Auction Smart Contract/Auction.sol\":3269:3279  msg.sender */\n      caller\n        /* \"contracts/Project 2 - The Auction Smart Contract/Auction.sol\":3249:3280  recipient = payable(msg.sender) */\n      swap2\n      pop\n        /* \"contracts/Project 2 - The Auction Smart Contract/Auction.sol\":3301:3305  bids */\n      0x07\n        /* \"contracts/Project 2 - The Auction Smart Contract/Auction.sol\":3301:3317  bids[msg.sender] */\n      0x00\n        /* \"contracts/Project 2 - The Auction Smart Contract/Auction.sol\":3306:3316  msg.sender */\n      caller\n        /* \"contracts/Project 2 - The Auction Smart Contract/Auction.sol\":3301:3317  bids[msg.sender] */\n      0xffffffffffffffffffffffffffffffffffffffff\n      and\n      0xffffffffffffffffffffffffffffffffffffffff\n      and\n      dup2\n      mstore\n      0x20\n      add\n      swap1\n      dup2\n      mstore\n      0x20\n      add\n      0x00\n      keccak256\n      sload\n        /* \"contracts/Project 2 - The Auction Smart Contract/Auction.sol\":3293:3317  value = bids[msg.sender] */\n      swap1\n      pop\n        /* \"contracts/Project 2 - The Auction Smart Contract/Auction.sol\":3171:4149  if(auctionState == State.Canceled){ // auction canceled, not ended... */\n      jump(tag_117)\n    tag_116:\n        /* \"contracts/Project 2 - The Auction Smart Contract/Auction.sol\":3391:3396  owner */\n      0x00\n      dup1\n      sload\n      swap1\n      0x0100\n      exp\n      swap1\n      div\n      0xffffffffffffffffffffffffffffffffffffffff\n      and\n        /* \"contracts/Project 2 - The Auction Smart Contract/Auction.sol\":3377:3396  msg.sender == owner */\n      0xffffffffffffffffffffffffffffffffffffffff\n      and\n        /* \"contracts/Project 2 - The Auction Smart Contract/Auction.sol\":3377:3387  msg.sender */\n      caller\n        /* \"contracts/Project 2 - The Auction Smart Contract/Auction.sol\":3377:3396  msg.sender == owner */\n      0xffffffffffffffffffffffffffffffffffffffff\n      and\n      eq\n        /* \"contracts/Project 2 - The Auction Smart Contract/Auction.sol\":3377:3423  msg.sender == owner && ownerFinalized == false */\n      dup1\n      iszero\n      tag_118\n      jumpi\n      pop\n        /* \"contracts/Project 2 - The Auction Smart Contract/Auction.sol\":3418:3423  false */\n      0x00\n        /* \"contracts/Project 2 - The Auction Smart Contract/Auction.sol\":3400:3423  ownerFinalized == false */\n      iszero\n      iszero\n        /* \"contracts/Project 2 - The Auction Smart Contract/Auction.sol\":3400:3414  ownerFinalized */\n      0x09\n      0x00\n      swap1\n      sload\n      swap1\n      0x0100\n      exp\n      swap1\n      div\n      0xff\n      and\n        /* \"contracts/Project 2 - The Auction Smart Contract/Auction.sol\":3400:3423  ownerFinalized == false */\n      iszero\n      iszero\n      eq\n        /* \"contracts/Project 2 - The Auction Smart Contract/Auction.sol\":3377:3423  msg.sender == owner && ownerFinalized == false */\n    tag_118:\n        /* \"contracts/Project 2 - The Auction Smart Contract/Auction.sol\":3374:4140  if(msg.sender == owner && ownerFinalized == false){ //the owner finalizes the auction... */\n      iszero\n      tag_119\n      jumpi\n        /* \"contracts/Project 2 - The Auction Smart Contract/Auction.sol\":3487:3492  owner */\n      0x00\n      dup1\n      sload\n      swap1\n      0x0100\n      exp\n      swap1\n      div\n      0xffffffffffffffffffffffffffffffffffffffff\n      and\n        /* \"contracts/Project 2 - The Auction Smart Contract/Auction.sol\":3475:3492  recipient = owner */\n      swap2\n      pop\n        /* \"contracts/Project 2 - The Auction Smart Contract/Auction.sol\":3517:3534  highestBindingBid */\n      sload(0x05)\n        /* \"contracts/Project 2 - The Auction Smart Contract/Auction.sol\":3509:3534  value = highestBindingBid */\n      swap1\n      pop\n        /* \"contracts/Project 2 - The Auction Smart Contract/Auction.sol\":3676:3680  true */\n      0x01\n        /* \"contracts/Project 2 - The Auction Smart Contract/Auction.sol\":3659:3673  ownerFinalized */\n      0x09\n      0x00\n        /* \"contracts/Project 2 - The Auction Smart Contract/Auction.sol\":3659:3680  ownerFinalized = true */\n      0x0100\n      exp\n      dup2\n      sload\n      dup2\n      0xff\n      mul\n      not\n      and\n      swap1\n      dup4\n      iszero\n      iszero\n      mul\n      or\n      swap1\n      sstore\n      pop\n        /* \"contracts/Project 2 - The Auction Smart Contract/Auction.sol\":3374:4140  if(msg.sender == owner && ownerFinalized == false){ //the owner finalizes the auction... */\n      jump(tag_120)\n    tag_119:\n        /* \"contracts/Project 2 - The Auction Smart Contract/Auction.sol\":3787:3800  highestBidder */\n      0x06\n      0x00\n      swap1\n      sload\n      swap1\n      0x0100\n      exp\n      swap1\n      div\n      0xffffffffffffffffffffffffffffffffffffffff\n      and\n        /* \"contracts/Project 2 - The Auction Smart Contract/Auction.sol\":3773:3800  msg.sender == highestBidder */\n      0xffffffffffffffffffffffffffffffffffffffff\n      and\n        /* \"contracts/Project 2 - The Auction Smart Contract/Auction.sol\":3773:3783  msg.sender */\n      caller\n        /* \"contracts/Project 2 - The Auction Smart Contract/Auction.sol\":3773:3800  msg.sender == highestBidder */\n      0xffffffffffffffffffffffffffffffffffffffff\n      and\n      eq\n        /* \"contracts/Project 2 - The Auction Smart Contract/Auction.sol\":3769:4127  if (msg.sender == highestBidder){... */\n      iszero\n      tag_121\n      jumpi\n        /* \"contracts/Project 2 - The Auction Smart Contract/Auction.sol\":3834:3847  highestBidder */\n      0x06\n      0x00\n      swap1\n      sload\n      swap1\n      0x0100\n      exp\n      swap1\n      div\n      0xffffffffffffffffffffffffffffffffffffffff\n      and\n        /* \"contracts/Project 2 - The Auction Smart Contract/Auction.sol\":3822:3847  recipient = highestBidder */\n      swap2\n      pop\n        /* \"contracts/Project 2 - The Auction Smart Contract/Auction.sol\":3898:3915  highestBindingBid */\n      sload(0x05)\n        /* \"contracts/Project 2 - The Auction Smart Contract/Auction.sol\":3876:3880  bids */\n      0x07\n        /* \"contracts/Project 2 - The Auction Smart Contract/Auction.sol\":3876:3895  bids[highestBidder] */\n      0x00\n        /* \"contracts/Project 2 - The Auction Smart Contract/Auction.sol\":3881:3894  highestBidder */\n      0x06\n      0x00\n      swap1\n      sload\n      swap1\n      0x0100\n      exp\n      swap1\n      div\n      0xffffffffffffffffffffffffffffffffffffffff\n      and\n        /* \"contracts/Project 2 - The Auction Smart Contract/Auction.sol\":3876:3895  bids[highestBidder] */\n      0xffffffffffffffffffffffffffffffffffffffff\n      and\n      0xffffffffffffffffffffffffffffffffffffffff\n      and\n      dup2\n      mstore\n      0x20\n      add\n      swap1\n      dup2\n      mstore\n      0x20\n      add\n      0x00\n      keccak256\n      sload\n        /* \"contracts/Project 2 - The Auction Smart Contract/Auction.sol\":3876:3915  bids[highestBidder] - highestBindingBid */\n      tag_122\n      swap2\n      swap1\n      tag_123\n      jump\t// in\n    tag_122:\n        /* \"contracts/Project 2 - The Auction Smart Contract/Auction.sol\":3868:3915  value = bids[highestBidder] - highestBindingBid */\n      swap1\n      pop\n        /* \"contracts/Project 2 - The Auction Smart Contract/Auction.sol\":3769:4127  if (msg.sender == highestBidder){... */\n      jump(tag_124)\n    tag_121:\n        /* \"contracts/Project 2 - The Auction Smart Contract/Auction.sol\":4053:4063  msg.sender */\n      caller\n        /* \"contracts/Project 2 - The Auction Smart Contract/Auction.sol\":4033:4064  recipient = payable(msg.sender) */\n      swap2\n      pop\n        /* \"contracts/Project 2 - The Auction Smart Contract/Auction.sol\":4093:4097  bids */\n      0x07\n        /* \"contracts/Project 2 - The Auction Smart Contract/Auction.sol\":4093:4109  bids[msg.sender] */\n      0x00\n        /* \"contracts/Project 2 - The Auction Smart Contract/Auction.sol\":4098:4108  msg.sender */\n      caller\n        /* \"contracts/Project 2 - The Auction Smart Contract/Auction.sol\":4093:4109  bids[msg.sender] */\n      0xffffffffffffffffffffffffffffffffffffffff\n      and\n      0xffffffffffffffffffffffffffffffffffffffff\n      and\n      dup2\n      mstore\n      0x20\n      add\n      swap1\n      dup2\n      mstore\n      0x20\n      add\n      0x00\n      keccak256\n      sload\n        /* \"contracts/Project 2 - The Auction Smart Contract/Auction.sol\":4085:4109  value = bids[msg.sender] */\n      swap1\n      pop\n        /* \"contracts/Project 2 - The Auction Smart Contract/Auction.sol\":3769:4127  if (msg.sender == highestBidder){... */\n    tag_124:\n        /* \"contracts/Project 2 - The Auction Smart Contract/Auction.sol\":3374:4140  if(msg.sender == owner && ownerFinalized == false){ //the owner finalizes the auction... */\n    tag_120:\n        /* \"contracts/Project 2 - The Auction Smart Contract/Auction.sol\":3171:4149  if(auctionState == State.Canceled){ // auction canceled, not ended... */\n    tag_117:\n        /* \"contracts/Project 2 - The Auction Smart Contract/Auction.sol\":4279:4280  0 */\n      0x00\n        /* \"contracts/Project 2 - The Auction Smart Contract/Auction.sol\":4261:4265  bids */\n      0x07\n        /* \"contracts/Project 2 - The Auction Smart Contract/Auction.sol\":4261:4276  bids[recipient] */\n      0x00\n        /* \"contracts/Project 2 - The Auction Smart Contract/Auction.sol\":4266:4275  recipient */\n      dup5\n        /* \"contracts/Project 2 - The Auction Smart Contract/Auction.sol\":4261:4276  bids[recipient] */\n      0xffffffffffffffffffffffffffffffffffffffff\n      and\n      0xffffffffffffffffffffffffffffffffffffffff\n      and\n      dup2\n      mstore\n      0x20\n      add\n      swap1\n      dup2\n      mstore\n      0x20\n      add\n      0x00\n      keccak256\n        /* \"contracts/Project 2 - The Auction Smart Contract/Auction.sol\":4261:4280  bids[recipient] = 0 */\n      dup2\n      swap1\n      sstore\n      pop\n        /* \"contracts/Project 2 - The Auction Smart Contract/Auction.sol\":4335:4344  recipient */\n      dup2\n        /* \"contracts/Project 2 - The Auction Smart Contract/Auction.sol\":4335:4353  recipient.transfer */\n      0xffffffffffffffffffffffffffffffffffffffff\n      and\n        /* \"contracts/Project 2 - The Auction Smart Contract/Auction.sol\":4335:4360  recipient.transfer(value) */\n      0x08fc\n        /* \"contracts/Project 2 - The Auction Smart Contract/Auction.sol\":4354:4359  value */\n      dup3\n        /* \"contracts/Project 2 - The Auction Smart Contract/Auction.sol\":4335:4360  recipient.transfer(value) */\n      swap1\n      dup2\n      iszero\n      mul\n      swap1\n      mload(0x40)\n      0x00\n      mload(0x40)\n      dup1\n      dup4\n      sub\n      dup2\n      dup6\n      dup9\n      dup9\n      call\n      swap4\n      pop\n      pop\n      pop\n      pop\n      iszero\n      dup1\n      iszero\n      tag_126\n      jumpi\n      returndatasize\n      0x00\n      dup1\n      returndatacopy\n      revert(0x00, returndatasize)\n    tag_126:\n      pop\n        /* \"contracts/Project 2 - The Auction Smart Contract/Auction.sol\":2794:4373  {... */\n      pop\n      pop\n        /* \"contracts/Project 2 - The Auction Smart Contract/Auction.sol\":2761:4373  function finalizeAuction() public{... */\n      jump\t// out\n        /* \"contracts/Project 2 - The Auction Smart Contract/Auction.sol\":1351:1504  function min(uint a, uint b) pure internal returns(uint){... */\n    tag_99:\n        /* \"contracts/Project 2 - The Auction Smart Contract/Auction.sol\":1402:1406  uint */\n      0x00\n        /* \"contracts/Project 2 - The Auction Smart Contract/Auction.sol\":1426:1427  b */\n      dup2\n        /* \"contracts/Project 2 - The Auction Smart Contract/Auction.sol\":1421:1422  a */\n      dup4\n        /* \"contracts/Project 2 - The Auction Smart Contract/Auction.sol\":1421:1427  a <= b */\n      gt\n        /* \"contracts/Project 2 - The Auction Smart Contract/Auction.sol\":1417:1498  if (a <= b){... */\n      tag_128\n      jumpi\n        /* \"contracts/Project 2 - The Auction Smart Contract/Auction.sol\":1449:1450  a */\n      dup3\n        /* \"contracts/Project 2 - The Auction Smart Contract/Auction.sol\":1442:1450  return a */\n      swap1\n      pop\n      jump(tag_127)\n        /* \"contracts/Project 2 - The Auction Smart Contract/Auction.sol\":1417:1498  if (a <= b){... */\n    tag_128:\n        /* \"contracts/Project 2 - The Auction Smart Contract/Auction.sol\":1486:1487  b */\n      dup2\n        /* \"contracts/Project 2 - The Auction Smart Contract/Auction.sol\":1479:1487  return b */\n      swap1\n      pop\n        /* \"contracts/Project 2 - The Auction Smart Contract/Auction.sol\":1351:1504  function min(uint a, uint b) pure internal returns(uint){... */\n    tag_127:\n      swap3\n      swap2\n      pop\n      pop\n      jump\t// out\n        /* \"#utility.yul\":7:146   */\n    tag_131:\n        /* \"#utility.yul\":53:58   */\n      0x00\n        /* \"#utility.yul\":91:97   */\n      dup2\n        /* \"#utility.yul\":78:98   */\n      calldataload\n        /* \"#utility.yul\":69:98   */\n      swap1\n      pop\n        /* \"#utility.yul\":107:140   */\n      tag_133\n        /* \"#utility.yul\":134:139   */\n      dup2\n        /* \"#utility.yul\":107:140   */\n      tag_134\n      jump\t// in\n    tag_133:\n        /* \"#utility.yul\":7:146   */\n      swap3\n      swap2\n      pop\n      pop\n      jump\t// out\n        /* \"#utility.yul\":152:481   */\n    tag_27:\n        /* \"#utility.yul\":211:217   */\n      0x00\n        /* \"#utility.yul\":260:262   */\n      0x20\n        /* \"#utility.yul\":248:257   */\n      dup3\n        /* \"#utility.yul\":239:246   */\n      dup5\n        /* \"#utility.yul\":235:258   */\n      sub\n        /* \"#utility.yul\":231:263   */\n      slt\n        /* \"#utility.yul\":228:347   */\n      iszero\n      tag_136\n      jumpi\n        /* \"#utility.yul\":266:345   */\n      tag_137\n      tag_138\n      jump\t// in\n    tag_137:\n        /* \"#utility.yul\":228:347   */\n    tag_136:\n        /* \"#utility.yul\":386:387   */\n      0x00\n        /* \"#utility.yul\":411:464   */\n      tag_139\n        /* \"#utility.yul\":456:463   */\n      dup5\n        /* \"#utility.yul\":447:453   */\n      dup3\n        /* \"#utility.yul\":436:445   */\n      dup6\n        /* \"#utility.yul\":432:454   */\n      add\n        /* \"#utility.yul\":411:464   */\n      tag_131\n      jump\t// in\n    tag_139:\n        /* \"#utility.yul\":401:464   */\n      swap2\n      pop\n        /* \"#utility.yul\":357:474   */\n      pop\n        /* \"#utility.yul\":152:481   */\n      swap3\n      swap2\n      pop\n      pop\n      jump\t// out\n        /* \"#utility.yul\":487:629   */\n    tag_140:\n        /* \"#utility.yul\":590:622   */\n      tag_142\n        /* \"#utility.yul\":616:621   */\n      dup2\n        /* \"#utility.yul\":590:622   */\n      tag_143\n      jump\t// in\n    tag_142:\n        /* \"#utility.yul\":585:588   */\n      dup3\n        /* \"#utility.yul\":578:623   */\n      mstore\n        /* \"#utility.yul\":487:629   */\n      pop\n      pop\n      jump\t// out\n        /* \"#utility.yul\":635:744   */\n    tag_144:\n        /* \"#utility.yul\":716:737   */\n      tag_146\n        /* \"#utility.yul\":731:736   */\n      dup2\n        /* \"#utility.yul\":716:737   */\n      tag_147\n      jump\t// in\n    tag_146:\n        /* \"#utility.yul\":711:714   */\n      dup3\n        /* \"#utility.yul\":704:738   */\n      mstore\n        /* \"#utility.yul\":635:744   */\n      pop\n      pop\n      jump\t// out\n        /* \"#utility.yul\":750:893   */\n    tag_148:\n        /* \"#utility.yul\":843:886   */\n      tag_150\n        /* \"#utility.yul\":880:885   */\n      dup2\n        /* \"#utility.yul\":843:886   */\n      tag_151\n      jump\t// in\n    tag_150:\n        /* \"#utility.yul\":838:841   */\n      dup3\n        /* \"#utility.yul\":831:887   */\n      mstore\n        /* \"#utility.yul\":750:893   */\n      pop\n      pop\n      jump\t// out\n        /* \"#utility.yul\":899:1263   */\n    tag_152:\n        /* \"#utility.yul\":987:990   */\n      0x00\n        /* \"#utility.yul\":1015:1054   */\n      tag_154\n        /* \"#utility.yul\":1048:1053   */\n      dup3\n        /* \"#utility.yul\":1015:1054   */\n      tag_155\n      jump\t// in\n    tag_154:\n        /* \"#utility.yul\":1070:1141   */\n      tag_156\n        /* \"#utility.yul\":1134:1140   */\n      dup2\n        /* \"#utility.yul\":1129:1132   */\n      dup6\n        /* \"#utility.yul\":1070:1141   */\n      tag_157\n      jump\t// in\n    tag_156:\n        /* \"#utility.yul\":1063:1141   */\n      swap4\n      pop\n        /* \"#utility.yul\":1150:1202   */\n      tag_158\n        /* \"#utility.yul\":1195:1201   */\n      dup2\n        /* \"#utility.yul\":1190:1193   */\n      dup6\n        /* \"#utility.yul\":1183:1187   */\n      0x20\n        /* \"#utility.yul\":1176:1181   */\n      dup7\n        /* \"#utility.yul\":1172:1188   */\n      add\n        /* \"#utility.yul\":1150:1202   */\n      tag_159\n      jump\t// in\n    tag_158:\n        /* \"#utility.yul\":1227:1256   */\n      tag_160\n        /* \"#utility.yul\":1249:1255   */\n      dup2\n        /* \"#utility.yul\":1227:1256   */\n      tag_161\n      jump\t// in\n    tag_160:\n        /* \"#utility.yul\":1222:1225   */\n      dup5\n        /* \"#utility.yul\":1218:1257   */\n      add\n        /* \"#utility.yul\":1211:1257   */\n      swap2\n      pop\n        /* \"#utility.yul\":991:1263   */\n      pop\n        /* \"#utility.yul\":899:1263   */\n      swap3\n      swap2\n      pop\n      pop\n      jump\t// out\n        /* \"#utility.yul\":1269:1387   */\n    tag_162:\n        /* \"#utility.yul\":1356:1380   */\n      tag_164\n        /* \"#utility.yul\":1374:1379   */\n      dup2\n        /* \"#utility.yul\":1356:1380   */\n      tag_165\n      jump\t// in\n    tag_164:\n        /* \"#utility.yul\":1351:1354   */\n      dup3\n        /* \"#utility.yul\":1344:1381   */\n      mstore\n        /* \"#utility.yul\":1269:1387   */\n      pop\n      pop\n      jump\t// out\n        /* \"#utility.yul\":1393:1647   */\n    tag_44:\n        /* \"#utility.yul\":1502:1506   */\n      0x00\n        /* \"#utility.yul\":1540:1542   */\n      0x20\n        /* \"#utility.yul\":1529:1538   */\n      dup3\n        /* \"#utility.yul\":1525:1543   */\n      add\n        /* \"#utility.yul\":1517:1543   */\n      swap1\n      pop\n        /* \"#utility.yul\":1553:1640   */\n      tag_167\n        /* \"#utility.yul\":1637:1638   */\n      0x00\n        /* \"#utility.yul\":1626:1635   */\n      dup4\n        /* \"#utility.yul\":1622:1639   */\n      add\n        /* \"#utility.yul\":1613:1619   */\n      dup5\n        /* \"#utility.yul\":1553:1640   */\n      tag_140\n      jump\t// in\n    tag_167:\n        /* \"#utility.yul\":1393:1647   */\n      swap3\n      swap2\n      pop\n      pop\n      jump\t// out\n        /* \"#utility.yul\":1653:1863   */\n    tag_39:\n        /* \"#utility.yul\":1740:1744   */\n      0x00\n        /* \"#utility.yul\":1778:1780   */\n      0x20\n        /* \"#utility.yul\":1767:1776   */\n      dup3\n        /* \"#utility.yul\":1763:1781   */\n      add\n        /* \"#utility.yul\":1755:1781   */\n      swap1\n      pop\n        /* \"#utility.yul\":1791:1856   */\n      tag_169\n        /* \"#utility.yul\":1853:1854   */\n      0x00\n        /* \"#utility.yul\":1842:1851   */\n      dup4\n        /* \"#utility.yul\":1838:1855   */\n      add\n        /* \"#utility.yul\":1829:1835   */\n      dup5\n        /* \"#utility.yul\":1791:1856   */\n      tag_144\n      jump\t// in\n    tag_169:\n        /* \"#utility.yul\":1653:1863   */\n      swap3\n      swap2\n      pop\n      pop\n      jump\t// out\n        /* \"#utility.yul\":1869:2103   */\n    tag_34:\n        /* \"#utility.yul\":1968:1972   */\n      0x00\n        /* \"#utility.yul\":2006:2008   */\n      0x20\n        /* \"#utility.yul\":1995:2004   */\n      dup3\n        /* \"#utility.yul\":1991:2009   */\n      add\n        /* \"#utility.yul\":1983:2009   */\n      swap1\n      pop\n        /* \"#utility.yul\":2019:2096   */\n      tag_171\n        /* \"#utility.yul\":2093:2094   */\n      0x00\n        /* \"#utility.yul\":2082:2091   */\n      dup4\n        /* \"#utility.yul\":2078:2095   */\n      add\n        /* \"#utility.yul\":2069:2075   */\n      dup5\n        /* \"#utility.yul\":2019:2096   */\n      tag_148\n      jump\t// in\n    tag_171:\n        /* \"#utility.yul\":1869:2103   */\n      swap3\n      swap2\n      pop\n      pop\n      jump\t// out\n        /* \"#utility.yul\":2109:2422   */\n    tag_56:\n        /* \"#utility.yul\":2222:2226   */\n      0x00\n        /* \"#utility.yul\":2260:2262   */\n      0x20\n        /* \"#utility.yul\":2249:2258   */\n      dup3\n        /* \"#utility.yul\":2245:2263   */\n      add\n        /* \"#utility.yul\":2237:2263   */\n      swap1\n      pop\n        /* \"#utility.yul\":2309:2318   */\n      dup2\n        /* \"#utility.yul\":2303:2307   */\n      dup2\n        /* \"#utility.yul\":2299:2319   */\n      sub\n        /* \"#utility.yul\":2295:2296   */\n      0x00\n        /* \"#utility.yul\":2284:2293   */\n      dup4\n        /* \"#utility.yul\":2280:2297   */\n      add\n        /* \"#utility.yul\":2273:2320   */\n      mstore\n        /* \"#utility.yul\":2337:2415   */\n      tag_173\n        /* \"#utility.yul\":2410:2414   */\n      dup2\n        /* \"#utility.yul\":2401:2407   */\n      dup5\n        /* \"#utility.yul\":2337:2415   */\n      tag_152\n      jump\t// in\n    tag_173:\n        /* \"#utility.yul\":2329:2415   */\n      swap1\n      pop\n        /* \"#utility.yul\":2109:2422   */\n      swap3\n      swap2\n      pop\n      pop\n      jump\t// out\n        /* \"#utility.yul\":2428:2650   */\n    tag_19:\n        /* \"#utility.yul\":2521:2525   */\n      0x00\n        /* \"#utility.yul\":2559:2561   */\n      0x20\n        /* \"#utility.yul\":2548:2557   */\n      dup3\n        /* \"#utility.yul\":2544:2562   */\n      add\n        /* \"#utility.yul\":2536:2562   */\n      swap1\n      pop\n        /* \"#utility.yul\":2572:2643   */\n      tag_175\n        /* \"#utility.yul\":2640:2641   */\n      0x00\n        /* \"#utility.yul\":2629:2638   */\n      dup4\n        /* \"#utility.yul\":2625:2642   */\n      add\n        /* \"#utility.yul\":2616:2622   */\n      dup5\n        /* \"#utility.yul\":2572:2643   */\n      tag_162\n      jump\t// in\n    tag_175:\n        /* \"#utility.yul\":2428:2650   */\n      swap3\n      swap2\n      pop\n      pop\n      jump\t// out\n        /* \"#utility.yul\":2737:2836   */\n    tag_155:\n        /* \"#utility.yul\":2789:2795   */\n      0x00\n        /* \"#utility.yul\":2823:2828   */\n      dup2\n        /* \"#utility.yul\":2817:2829   */\n      mload\n        /* \"#utility.yul\":2807:2829   */\n      swap1\n      pop\n        /* \"#utility.yul\":2737:2836   */\n      swap2\n      swap1\n      pop\n      jump\t// out\n        /* \"#utility.yul\":2842:3011   */\n    tag_157:\n        /* \"#utility.yul\":2926:2937   */\n      0x00\n        /* \"#utility.yul\":2960:2966   */\n      dup3\n        /* \"#utility.yul\":2955:2958   */\n      dup3\n        /* \"#utility.yul\":2948:2967   */\n      mstore\n        /* \"#utility.yul\":3000:3004   */\n      0x20\n        /* \"#utility.yul\":2995:2998   */\n      dup3\n        /* \"#utility.yul\":2991:3005   */\n      add\n        /* \"#utility.yul\":2976:3005   */\n      swap1\n      pop\n        /* \"#utility.yul\":2842:3011   */\n      swap3\n      swap2\n      pop\n      pop\n      jump\t// out\n        /* \"#utility.yul\":3017:3322   */\n    tag_94:\n        /* \"#utility.yul\":3057:3060   */\n      0x00\n        /* \"#utility.yul\":3076:3096   */\n      tag_181\n        /* \"#utility.yul\":3094:3095   */\n      dup3\n        /* \"#utility.yul\":3076:3096   */\n      tag_165\n      jump\t// in\n    tag_181:\n        /* \"#utility.yul\":3071:3096   */\n      swap2\n      pop\n        /* \"#utility.yul\":3110:3130   */\n      tag_182\n        /* \"#utility.yul\":3128:3129   */\n      dup4\n        /* \"#utility.yul\":3110:3130   */\n      tag_165\n      jump\t// in\n    tag_182:\n        /* \"#utility.yul\":3105:3130   */\n      swap3\n      pop\n        /* \"#utility.yul\":3264:3265   */\n      dup3\n        /* \"#utility.yul\":3196:3262   */\n      0xffffffffffffffffffffffffffffffffffffffffffffffffffffffffffffffff\n        /* \"#utility.yul\":3192:3266   */\n      sub\n        /* \"#utility.yul\":3189:3190   */\n      dup3\n        /* \"#utility.yul\":3186:3267   */\n      gt\n        /* \"#utility.yul\":3183:3290   */\n      iszero\n      tag_183\n      jumpi\n        /* \"#utility.yul\":3270:3288   */\n      tag_184\n      tag_185\n      jump\t// in\n    tag_184:\n        /* \"#utility.yul\":3183:3290   */\n    tag_183:\n        /* \"#utility.yul\":3314:3315   */\n      dup3\n        /* \"#utility.yul\":3311:3312   */\n      dup3\n        /* \"#utility.yul\":3307:3316   */\n      add\n        /* \"#utility.yul\":3300:3316   */\n      swap1\n      pop\n        /* \"#utility.yul\":3017:3322   */\n      swap3\n      swap2\n      pop\n      pop\n      jump\t// out\n        /* \"#utility.yul\":3328:3519   */\n    tag_123:\n        /* \"#utility.yul\":3368:3372   */\n      0x00\n        /* \"#utility.yul\":3388:3408   */\n      tag_187\n        /* \"#utility.yul\":3406:3407   */\n      dup3\n        /* \"#utility.yul\":3388:3408   */\n      tag_165\n      jump\t// in\n    tag_187:\n        /* \"#utility.yul\":3383:3408   */\n      swap2\n      pop\n        /* \"#utility.yul\":3422:3442   */\n      tag_188\n        /* \"#utility.yul\":3440:3441   */\n      dup4\n        /* \"#utility.yul\":3422:3442   */\n      tag_165\n      jump\t// in\n    tag_188:\n        /* \"#utility.yul\":3417:3442   */\n      swap3\n      pop\n        /* \"#utility.yul\":3461:3462   */\n      dup3\n        /* \"#utility.yul\":3458:3459   */\n      dup3\n        /* \"#utility.yul\":3455:3463   */\n      lt\n        /* \"#utility.yul\":3452:3486   */\n      iszero\n      tag_189\n      jumpi\n        /* \"#utility.yul\":3466:3484   */\n      tag_190\n      tag_185\n      jump\t// in\n    tag_190:\n        /* \"#utility.yul\":3452:3486   */\n    tag_189:\n        /* \"#utility.yul\":3511:3512   */\n      dup3\n        /* \"#utility.yul\":3508:3509   */\n      dup3\n        /* \"#utility.yul\":3504:3513   */\n      sub\n        /* \"#utility.yul\":3496:3513   */\n      swap1\n      pop\n        /* \"#utility.yul\":3328:3519   */\n      swap3\n      swap2\n      pop\n      pop\n      jump\t// out\n        /* \"#utility.yul\":3525:3621   */\n    tag_191:\n        /* \"#utility.yul\":3562:3569   */\n      0x00\n        /* \"#utility.yul\":3591:3615   */\n      tag_193\n        /* \"#utility.yul\":3609:3614   */\n      dup3\n        /* \"#utility.yul\":3591:3615   */\n      tag_194\n      jump\t// in\n    tag_193:\n        /* \"#utility.yul\":3580:3615   */\n      swap1\n      pop\n        /* \"#utility.yul\":3525:3621   */\n      swap2\n      swap1\n      pop\n      jump\t// out\n        /* \"#utility.yul\":3627:3731   */\n    tag_143:\n        /* \"#utility.yul\":3672:3679   */\n      0x00\n        /* \"#utility.yul\":3701:3725   */\n      tag_196\n        /* \"#utility.yul\":3719:3724   */\n      dup3\n        /* \"#utility.yul\":3701:3725   */\n      tag_194\n      jump\t// in\n    tag_196:\n        /* \"#utility.yul\":3690:3725   */\n      swap1\n      pop\n        /* \"#utility.yul\":3627:3731   */\n      swap2\n      swap1\n      pop\n      jump\t// out\n        /* \"#utility.yul\":3737:3827   */\n    tag_147:\n        /* \"#utility.yul\":3771:3778   */\n      0x00\n        /* \"#utility.yul\":3814:3819   */\n      dup2\n        /* \"#utility.yul\":3807:3820   */\n      iszero\n        /* \"#utility.yul\":3800:3821   */\n      iszero\n        /* \"#utility.yul\":3789:3821   */\n      swap1\n      pop\n        /* \"#utility.yul\":3737:3827   */\n      swap2\n      swap1\n      pop\n      jump\t// out\n        /* \"#utility.yul\":3833:3960   */\n    tag_198:\n        /* \"#utility.yul\":3878:3885   */\n      0x00\n        /* \"#utility.yul\":3907:3912   */\n      dup2\n        /* \"#utility.yul\":3896:3912   */\n      swap1\n      pop\n        /* \"#utility.yul\":3913:3954   */\n      tag_200\n        /* \"#utility.yul\":3948:3953   */\n      dup3\n        /* \"#utility.yul\":3913:3954   */\n      tag_201\n      jump\t// in\n    tag_200:\n        /* \"#utility.yul\":3833:3960   */\n      swap2\n      swap1\n      pop\n      jump\t// out\n        /* \"#utility.yul\":3966:4092   */\n    tag_194:\n        /* \"#utility.yul\":4003:4010   */\n      0x00\n        /* \"#utility.yul\":4043:4085   */\n      0xffffffffffffffffffffffffffffffffffffffff\n        /* \"#utility.yul\":4036:4041   */\n      dup3\n        /* \"#utility.yul\":4032:4086   */\n      and\n        /* \"#utility.yul\":4021:4086   */\n      swap1\n      pop\n        /* \"#utility.yul\":3966:4092   */\n      swap2\n      swap1\n      pop\n      jump\t// out\n        /* \"#utility.yul\":4098:4175   */\n    tag_165:\n        /* \"#utility.yul\":4135:4142   */\n      0x00\n        /* \"#utility.yul\":4164:4169   */\n      dup2\n        /* \"#utility.yul\":4153:4169   */\n      swap1\n      pop\n        /* \"#utility.yul\":4098:4175   */\n      swap2\n      swap1\n      pop\n      jump\t// out\n        /* \"#utility.yul\":4181:4308   */\n    tag_151:\n        /* \"#utility.yul\":4237:4246   */\n      0x00\n        /* \"#utility.yul\":4270:4302   */\n      tag_205\n        /* \"#utility.yul\":4296:4301   */\n      dup3\n        /* \"#utility.yul\":4270:4302   */\n      tag_198\n      jump\t// in\n    tag_205:\n        /* \"#utility.yul\":4257:4302   */\n      swap1\n      pop\n        /* \"#utility.yul\":4181:4308   */\n      swap2\n      swap1\n      pop\n      jump\t// out\n        /* \"#utility.yul\":4314:4621   */\n    tag_159:\n        /* \"#utility.yul\":4382:4383   */\n      0x00\n        /* \"#utility.yul\":4392:4505   */\n    tag_207:\n        /* \"#utility.yul\":4406:4412   */\n      dup4\n        /* \"#utility.yul\":4403:4404   */\n      dup2\n        /* \"#utility.yul\":4400:4413   */\n      lt\n        /* \"#utility.yul\":4392:4505   */\n      iszero\n      tag_209\n      jumpi\n        /* \"#utility.yul\":4491:4492   */\n      dup1\n        /* \"#utility.yul\":4486:4489   */\n      dup3\n        /* \"#utility.yul\":4482:4493   */\n      add\n        /* \"#utility.yul\":4476:4494   */\n      mload\n        /* \"#utility.yul\":4472:4473   */\n      dup2\n        /* \"#utility.yul\":4467:4470   */\n      dup5\n        /* \"#utility.yul\":4463:4474   */\n      add\n        /* \"#utility.yul\":4456:4495   */\n      mstore\n        /* \"#utility.yul\":4428:4430   */\n      0x20\n        /* \"#utility.yul\":4425:4426   */\n      dup2\n        /* \"#utility.yul\":4421:4431   */\n      add\n        /* \"#utility.yul\":4416:4431   */\n      swap1\n      pop\n        /* \"#utility.yul\":4392:4505   */\n      jump(tag_207)\n    tag_209:\n        /* \"#utility.yul\":4523:4529   */\n      dup4\n        /* \"#utility.yul\":4520:4521   */\n      dup2\n        /* \"#utility.yul\":4517:4530   */\n      gt\n        /* \"#utility.yul\":4514:4615   */\n      iszero\n      tag_210\n      jumpi\n        /* \"#utility.yul\":4603:4604   */\n      0x00\n        /* \"#utility.yul\":4594:4600   */\n      dup5\n        /* \"#utility.yul\":4589:4592   */\n      dup5\n        /* \"#utility.yul\":4585:4601   */\n      add\n        /* \"#utility.yul\":4578:4605   */\n      mstore\n        /* \"#utility.yul\":4514:4615   */\n    tag_210:\n        /* \"#utility.yul\":4363:4621   */\n      pop\n        /* \"#utility.yul\":4314:4621   */\n      pop\n      pop\n      pop\n      jump\t// out\n        /* \"#utility.yul\":4627:4947   */\n    tag_76:\n        /* \"#utility.yul\":4671:4677   */\n      0x00\n        /* \"#utility.yul\":4708:4709   */\n      0x02\n        /* \"#utility.yul\":4702:4706   */\n      dup3\n        /* \"#utility.yul\":4698:4710   */\n      div\n        /* \"#utility.yul\":4688:4710   */\n      swap1\n      pop\n        /* \"#utility.yul\":4755:4756   */\n      0x01\n        /* \"#utility.yul\":4749:4753   */\n      dup3\n        /* \"#utility.yul\":4745:4757   */\n      and\n        /* \"#utility.yul\":4776:4794   */\n      dup1\n        /* \"#utility.yul\":4766:4847   */\n      tag_212\n      jumpi\n        /* \"#utility.yul\":4832:4836   */\n      0x7f\n        /* \"#utility.yul\":4824:4830   */\n      dup3\n        /* \"#utility.yul\":4820:4837   */\n      and\n        /* \"#utility.yul\":4810:4837   */\n      swap2\n      pop\n        /* \"#utility.yul\":4766:4847   */\n    tag_212:\n        /* \"#utility.yul\":4894:4896   */\n      0x20\n        /* \"#utility.yul\":4886:4892   */\n      dup3\n        /* \"#utility.yul\":4883:4897   */\n      lt\n        /* \"#utility.yul\":4863:4881   */\n      dup2\n        /* \"#utility.yul\":4860:4898   */\n      eq\n        /* \"#utility.yul\":4857:4941   */\n      iszero\n      tag_213\n      jumpi\n        /* \"#utility.yul\":4913:4931   */\n      tag_214\n      tag_215\n      jump\t// in\n    tag_214:\n        /* \"#utility.yul\":4857:4941   */\n    tag_213:\n        /* \"#utility.yul\":4678:4947   */\n      pop\n        /* \"#utility.yul\":4627:4947   */\n      swap2\n      swap1\n      pop\n      jump\t// out\n        /* \"#utility.yul\":4953:5133   */\n    tag_185:\n        /* \"#utility.yul\":5001:5078   */\n      0x4e487b7100000000000000000000000000000000000000000000000000000000\n        /* \"#utility.yul\":4998:4999   */\n      0x00\n        /* \"#utility.yul\":4991:5079   */\n      mstore\n        /* \"#utility.yul\":5098:5102   */\n      0x11\n        /* \"#utility.yul\":5095:5096   */\n      0x04\n        /* \"#utility.yul\":5088:5103   */\n      mstore\n        /* \"#utility.yul\":5122:5126   */\n      0x24\n        /* \"#utility.yul\":5119:5120   */\n      0x00\n        /* \"#utility.yul\":5112:5127   */\n      revert\n        /* \"#utility.yul\":5139:5319   */\n    tag_74:\n        /* \"#utility.yul\":5187:5264   */\n      0x4e487b7100000000000000000000000000000000000000000000000000000000\n        /* \"#utility.yul\":5184:5185   */\n      0x00\n        /* \"#utility.yul\":5177:5265   */\n      mstore\n        /* \"#utility.yul\":5284:5288   */\n      0x21\n        /* \"#utility.yul\":5281:5282   */\n      0x04\n        /* \"#utility.yul\":5274:5289   */\n      mstore\n        /* \"#utility.yul\":5308:5312   */\n      0x24\n        /* \"#utility.yul\":5305:5306   */\n      0x00\n        /* \"#utility.yul\":5298:5313   */\n      revert\n        /* \"#utility.yul\":5325:5505   */\n    tag_215:\n        /* \"#utility.yul\":5373:5450   */\n      0x4e487b7100000000000000000000000000000000000000000000000000000000\n        /* \"#utility.yul\":5370:5371   */\n      0x00\n        /* \"#utility.yul\":5363:5451   */\n      mstore\n        /* \"#utility.yul\":5470:5474   */\n      0x22\n        /* \"#utility.yul\":5467:5468   */\n      0x04\n        /* \"#utility.yul\":5460:5475   */\n      mstore\n        /* \"#utility.yul\":5494:5498   */\n      0x24\n        /* \"#utility.yul\":5491:5492   */\n      0x00\n        /* \"#utility.yul\":5484:5499   */\n      revert\n        /* \"#utility.yul\":5634:5751   */\n    tag_138:\n        /* \"#utility.yul\":5743:5744   */\n      0x00\n        /* \"#utility.yul\":5740:5741   */\n      dup1\n        /* \"#utility.yul\":5733:5745   */\n      revert\n        /* \"#utility.yul\":5757:5859   */\n    tag_161:\n        /* \"#utility.yul\":5798:5804   */\n      0x00\n        /* \"#utility.yul\":5849:5851   */\n      0x1f\n        /* \"#utility.yul\":5845:5852   */\n      not\n        /* \"#utility.yul\":5840:5842   */\n      0x1f\n        /* \"#utility.yul\":5833:5838   */\n      dup4\n        /* \"#utility.yul\":5829:5843   */\n      add\n        /* \"#utility.yul\":5825:5853   */\n      and\n        /* \"#utility.yul\":5815:5853   */\n      swap1\n      pop\n        /* \"#utility.yul\":5757:5859   */\n      swap2\n      swap1\n      pop\n      jump\t// out\n        /* \"#utility.yul\":5865:5978   */\n    tag_201:\n        /* \"#utility.yul\":5946:5947   */\n      0x04\n        /* \"#utility.yul\":5939:5944   */\n      dup2\n        /* \"#utility.yul\":5936:5948   */\n      lt\n        /* \"#utility.yul\":5926:5972   */\n      tag_224\n      jumpi\n        /* \"#utility.yul\":5952:5970   */\n      tag_225\n      tag_74\n      jump\t// in\n    tag_225:\n        /* \"#utility.yul\":5926:5972   */\n    tag_224:\n        /* \"#utility.yul\":5865:5978   */\n      pop\n      jump\t// out\n        /* \"#utility.yul\":5984:6106   */\n    tag_134:\n        /* \"#utility.yul\":6057:6081   */\n      tag_227\n        /* \"#utility.yul\":6075:6080   */\n      dup2\n        /* \"#utility.yul\":6057:6081   */\n      tag_191\n      jump\t// in\n    tag_227:\n        /* \"#utility.yul\":6050:6055   */\n      dup2\n        /* \"#utility.yul\":6047:6082   */\n      eq\n        /* \"#utility.yul\":6037:6100   */\n      tag_228\n      jumpi\n        /* \"#utility.yul\":6096:6097   */\n      0x00\n        /* \"#utility.yul\":6093:6094   */\n      dup1\n        /* \"#utility.yul\":6086:6098   */\n      revert\n        /* \"#utility.yul\":6037:6100   */\n    tag_228:\n        /* \"#utility.yul\":5984:6106   */\n      pop\n      jump\t// out\n\n    auxdata: 0xa264697066735822122068943d011c18f6f3223376e1f075564c5de24acafb5deb732d827608842f75d464736f6c63430008070033\n}\n",
				"bytecode": {
					"linkReferences": {},
					"object": "60806040526000600960006101000a81548160ff0219169083151502179055503480156200002c57600080fd5b50336000806101000a81548173ffffffffffffffffffffffffffffffffffffffff021916908373ffffffffffffffffffffffffffffffffffffffff1602179055506001600460006101000a81548160ff0219169083600381111562000096576200009562000272565b5b0217905550436001819055506003600154620000b39190620001a6565b6002819055506040518060200160405280600081525060039080519060200190620000e0929190620000f6565b50670de0b6b3a7640000600881905550620002d0565b82805462000104906200020d565b90600052602060002090601f01602090048101928262000128576000855562000174565b82601f106200014357805160ff191683800117855562000174565b8280016001018555821562000174579182015b828111156200017357825182559160200191906001019062000156565b5b50905062000183919062000187565b5090565b5b80821115620001a257600081600090555060010162000188565b5090565b6000620001b38262000203565b9150620001c08362000203565b9250827fffffffffffffffffffffffffffffffffffffffffffffffffffffffffffffffff03821115620001f857620001f762000243565b5b828201905092915050565b6000819050919050565b600060028204905060018216806200022657607f821691505b602082108114156200023d576200023c620002a1565b5b50919050565b7f4e487b7100000000000000000000000000000000000000000000000000000000600052601160045260246000fd5b7f4e487b7100000000000000000000000000000000000000000000000000000000600052602160045260246000fd5b7f4e487b7100000000000000000000000000000000000000000000000000000000600052602260045260246000fd5b610f3e80620002e06000396000f3fe6080604052600436106100a75760003560e01c80638fa8b790116100645780638fa8b790146101c057806391f90157146101d7578063c623674f14610202578063ecfc7ecc1461022d578063f5b56c561461024b578063f77282ab14610276576100a7565b8063083c6323146100ac57806348cd4cb1146100d757806362ea82db146101025780637fb450991461013f5780638b7b097f1461016a5780638da5cb5b14610195575b600080fd5b3480156100b857600080fd5b506100c161028d565b6040516100ce9190610c95565b60405180910390f35b3480156100e357600080fd5b506100ec610293565b6040516100f99190610c95565b60405180910390f35b34801561010e57600080fd5b5061012960048036038101906101249190610b80565b610299565b6040516101369190610c95565b60405180910390f35b34801561014b57600080fd5b506101546102b1565b6040516101619190610c58565b60405180910390f35b34801561017657600080fd5b5061017f6102c4565b60405161018c9190610c3d565b60405180910390f35b3480156101a157600080fd5b506101aa6102d7565b6040516101b79190610c22565b60405180910390f35b3480156101cc57600080fd5b506101d56102fb565b005b3480156101e357600080fd5b506101ec61038f565b6040516101f99190610c22565b60405180910390f35b34801561020e57600080fd5b506102176103b5565b6040516102249190610c73565b60405180910390f35b610235610443565b6040516102429190610c3d565b60405180910390f35b34801561025757600080fd5b50610260610751565b60405161026d9190610c95565b60405180910390f35b34801561028257600080fd5b5061028b610757565b005b60025481565b60015481565b60076020528060005260406000206000915090505481565b600460009054906101000a900460ff1681565b600960009054906101000a900460ff1681565b60008054906101000a900473ffffffffffffffffffffffffffffffffffffffff1681565b60025443111561030a57600080fd5b60008054906101000a900473ffffffffffffffffffffffffffffffffffffffff1673ffffffffffffffffffffffffffffffffffffffff163373ffffffffffffffffffffffffffffffffffffffff161461036257600080fd5b6003600460006101000a81548160ff0219169083600381111561038857610387610e69565b5b0217905550565b600660009054906101000a900473ffffffffffffffffffffffffffffffffffffffff1681565b600380546103c290610e08565b80601f01602080910402602001604051908101604052809291908181526020018280546103ee90610e08565b801561043b5780601f106104105761010080835404028352916020019161043b565b820191906000526020600020905b81548152906001019060200180831161041e57829003601f168201915b505050505081565b60008060009054906101000a900473ffffffffffffffffffffffffffffffffffffffff1673ffffffffffffffffffffffffffffffffffffffff163373ffffffffffffffffffffffffffffffffffffffff16141561049f57600080fd5b6001544310156104ae57600080fd5b6002544311156104bd57600080fd5b600160038111156104d1576104d0610e69565b5b600460009054906101000a900460ff1660038111156104f3576104f2610e69565b5b146104fd57600080fd5b600034600760003373ffffffffffffffffffffffffffffffffffffffff1673ffffffffffffffffffffffffffffffffffffffff1681526020019081526020016000205461054a9190610ccc565b9050600554811161055a57600080fd5b80600760003373ffffffffffffffffffffffffffffffffffffffff1673ffffffffffffffffffffffffffffffffffffffff1681526020019081526020016000208190555060076000600660009054906101000a900473ffffffffffffffffffffffffffffffffffffffff1673ffffffffffffffffffffffffffffffffffffffff1673ffffffffffffffffffffffffffffffffffffffff1681526020019081526020016000205481116106895761067e600854826106179190610ccc565b60076000600660009054906101000a900473ffffffffffffffffffffffffffffffffffffffff1673ffffffffffffffffffffffffffffffffffffffff1673ffffffffffffffffffffffffffffffffffffffff16815260200190815260200160002054610b50565b600581905550610749565b6107018160085460076000600660009054906101000a900473ffffffffffffffffffffffffffffffffffffffff1673ffffffffffffffffffffffffffffffffffffffff1673ffffffffffffffffffffffffffffffffffffffff168152602001908152602001600020546106fc9190610ccc565b610b50565b60058190555033600660006101000a81548173ffffffffffffffffffffffffffffffffffffffff021916908373ffffffffffffffffffffffffffffffffffffffff1602179055505b600191505090565b60055481565b60038081111561076a57610769610e69565b5b600460009054906101000a900460ff16600381111561078c5761078b610e69565b5b1480610799575060025443115b6107a257600080fd5b60008054906101000a900473ffffffffffffffffffffffffffffffffffffffff1673ffffffffffffffffffffffffffffffffffffffff163373ffffffffffffffffffffffffffffffffffffffff16148061083b57506000600760003373ffffffffffffffffffffffffffffffffffffffff1673ffffffffffffffffffffffffffffffffffffffff16815260200190815260200160002054115b61084457600080fd5b60008060038081111561085a57610859610e69565b5b600460009054906101000a900460ff16600381111561087c5761087b610e69565b5b14156108cc57339150600760003373ffffffffffffffffffffffffffffffffffffffff1673ffffffffffffffffffffffffffffffffffffffff168152602001908152602001600020549050610ac0565b60008054906101000a900473ffffffffffffffffffffffffffffffffffffffff1673ffffffffffffffffffffffffffffffffffffffff163373ffffffffffffffffffffffffffffffffffffffff1614801561093a575060001515600960009054906101000a900460ff161515145b156109875760008054906101000a900473ffffffffffffffffffffffffffffffffffffffff16915060055490506001600960006101000a81548160ff021916908315150217905550610abf565b600660009054906101000a900473ffffffffffffffffffffffffffffffffffffffff1673ffffffffffffffffffffffffffffffffffffffff163373ffffffffffffffffffffffffffffffffffffffff161415610a7857600660009054906101000a900473ffffffffffffffffffffffffffffffffffffffff16915060055460076000600660009054906101000a900473ffffffffffffffffffffffffffffffffffffffff1673ffffffffffffffffffffffffffffffffffffffff1673ffffffffffffffffffffffffffffffffffffffff16815260200190815260200160002054610a719190610d22565b9050610abe565b339150600760003373ffffffffffffffffffffffffffffffffffffffff1673ffffffffffffffffffffffffffffffffffffffff1681526020019081526020016000205490505b5b5b6000600760008473ffffffffffffffffffffffffffffffffffffffff1673ffffffffffffffffffffffffffffffffffffffff168152602001908152602001600020819055508173ffffffffffffffffffffffffffffffffffffffff166108fc829081150290604051600060405180830381858888f19350505050158015610b4b573d6000803e3d6000fd5b505050565b6000818311610b6157829050610b65565b8190505b92915050565b600081359050610b7a81610ef1565b92915050565b600060208284031215610b9657610b95610ec7565b5b6000610ba484828501610b6b565b91505092915050565b610bb681610d68565b82525050565b610bc581610d7a565b82525050565b610bd481610dc3565b82525050565b6000610be582610cb0565b610bef8185610cbb565b9350610bff818560208601610dd5565b610c0881610ecc565b840191505092915050565b610c1c81610db9565b82525050565b6000602082019050610c376000830184610bad565b92915050565b6000602082019050610c526000830184610bbc565b92915050565b6000602082019050610c6d6000830184610bcb565b92915050565b60006020820190508181036000830152610c8d8184610bda565b905092915050565b6000602082019050610caa6000830184610c13565b92915050565b600081519050919050565b600082825260208201905092915050565b6000610cd782610db9565b9150610ce283610db9565b9250827fffffffffffffffffffffffffffffffffffffffffffffffffffffffffffffffff03821115610d1757610d16610e3a565b5b828201905092915050565b6000610d2d82610db9565b9150610d3883610db9565b925082821015610d4b57610d4a610e3a565b5b828203905092915050565b6000610d6182610d99565b9050919050565b6000610d7382610d99565b9050919050565b60008115159050919050565b6000819050610d9482610edd565b919050565b600073ffffffffffffffffffffffffffffffffffffffff82169050919050565b6000819050919050565b6000610dce82610d86565b9050919050565b60005b83811015610df3578082015181840152602081019050610dd8565b83811115610e02576000848401525b50505050565b60006002820490506001821680610e2057607f821691505b60208210811415610e3457610e33610e98565b5b50919050565b7f4e487b7100000000000000000000000000000000000000000000000000000000600052601160045260246000fd5b7f4e487b7100000000000000000000000000000000000000000000000000000000600052602160045260246000fd5b7f4e487b7100000000000000000000000000000000000000000000000000000000600052602260045260246000fd5b600080fd5b6000601f19601f8301169050919050565b60048110610eee57610eed610e69565b5b50565b610efa81610d56565b8114610f0557600080fd5b5056fea264697066735822122068943d011c18f6f3223376e1f075564c5de24acafb5deb732d827608842f75d464736f6c63430008070033",
					"opcodes": "PUSH1 0x80 PUSH1 0x40 MSTORE PUSH1 0x0 PUSH1 0x9 PUSH1 0x0 PUSH2 0x100 EXP DUP2 SLOAD DUP2 PUSH1 0xFF MUL NOT AND SWAP1 DUP4 ISZERO ISZERO MUL OR SWAP1 SSTORE POP CALLVALUE DUP1 ISZERO PUSH3 0x2C JUMPI PUSH1 0x0 DUP1 REVERT JUMPDEST POP CALLER PUSH1 0x0 DUP1 PUSH2 0x100 EXP DUP2 SLOAD DUP2 PUSH20 0xFFFFFFFFFFFFFFFFFFFFFFFFFFFFFFFFFFFFFFFF MUL NOT AND SWAP1 DUP4 PUSH20 0xFFFFFFFFFFFFFFFFFFFFFFFFFFFFFFFFFFFFFFFF AND MUL OR SWAP1 SSTORE POP PUSH1 0x1 PUSH1 0x4 PUSH1 0x0 PUSH2 0x100 EXP DUP2 SLOAD DUP2 PUSH1 0xFF MUL NOT AND SWAP1 DUP4 PUSH1 0x3 DUP2 GT ISZERO PUSH3 0x96 JUMPI PUSH3 0x95 PUSH3 0x272 JUMP JUMPDEST JUMPDEST MUL OR SWAP1 SSTORE POP NUMBER PUSH1 0x1 DUP2 SWAP1 SSTORE POP PUSH1 0x3 PUSH1 0x1 SLOAD PUSH3 0xB3 SWAP2 SWAP1 PUSH3 0x1A6 JUMP JUMPDEST PUSH1 0x2 DUP2 SWAP1 SSTORE POP PUSH1 0x40 MLOAD DUP1 PUSH1 0x20 ADD PUSH1 0x40 MSTORE DUP1 PUSH1 0x0 DUP2 MSTORE POP PUSH1 0x3 SWAP1 DUP1 MLOAD SWAP1 PUSH1 0x20 ADD SWAP1 PUSH3 0xE0 SWAP3 SWAP2 SWAP1 PUSH3 0xF6 JUMP JUMPDEST POP PUSH8 0xDE0B6B3A7640000 PUSH1 0x8 DUP2 SWAP1 SSTORE POP PUSH3 0x2D0 JUMP JUMPDEST DUP3 DUP1 SLOAD PUSH3 0x104 SWAP1 PUSH3 0x20D JUMP JUMPDEST SWAP1 PUSH1 0x0 MSTORE PUSH1 0x20 PUSH1 0x0 KECCAK256 SWAP1 PUSH1 0x1F ADD PUSH1 0x20 SWAP1 DIV DUP2 ADD SWAP3 DUP3 PUSH3 0x128 JUMPI PUSH1 0x0 DUP6 SSTORE PUSH3 0x174 JUMP JUMPDEST DUP3 PUSH1 0x1F LT PUSH3 0x143 JUMPI DUP1 MLOAD PUSH1 0xFF NOT AND DUP4 DUP1 ADD OR DUP6 SSTORE PUSH3 0x174 JUMP JUMPDEST DUP3 DUP1 ADD PUSH1 0x1 ADD DUP6 SSTORE DUP3 ISZERO PUSH3 0x174 JUMPI SWAP2 DUP3 ADD JUMPDEST DUP3 DUP2 GT ISZERO PUSH3 0x173 JUMPI DUP3 MLOAD DUP3 SSTORE SWAP2 PUSH1 0x20 ADD SWAP2 SWAP1 PUSH1 0x1 ADD SWAP1 PUSH3 0x156 JUMP JUMPDEST JUMPDEST POP SWAP1 POP PUSH3 0x183 SWAP2 SWAP1 PUSH3 0x187 JUMP JUMPDEST POP SWAP1 JUMP JUMPDEST JUMPDEST DUP1 DUP3 GT ISZERO PUSH3 0x1A2 JUMPI PUSH1 0x0 DUP2 PUSH1 0x0 SWAP1 SSTORE POP PUSH1 0x1 ADD PUSH3 0x188 JUMP JUMPDEST POP SWAP1 JUMP JUMPDEST PUSH1 0x0 PUSH3 0x1B3 DUP3 PUSH3 0x203 JUMP JUMPDEST SWAP2 POP PUSH3 0x1C0 DUP4 PUSH3 0x203 JUMP JUMPDEST SWAP3 POP DUP3 PUSH32 0xFFFFFFFFFFFFFFFFFFFFFFFFFFFFFFFFFFFFFFFFFFFFFFFFFFFFFFFFFFFFFFFF SUB DUP3 GT ISZERO PUSH3 0x1F8 JUMPI PUSH3 0x1F7 PUSH3 0x243 JUMP JUMPDEST JUMPDEST DUP3 DUP3 ADD SWAP1 POP SWAP3 SWAP2 POP POP JUMP JUMPDEST PUSH1 0x0 DUP2 SWAP1 POP SWAP2 SWAP1 POP JUMP JUMPDEST PUSH1 0x0 PUSH1 0x2 DUP3 DIV SWAP1 POP PUSH1 0x1 DUP3 AND DUP1 PUSH3 0x226 JUMPI PUSH1 0x7F DUP3 AND SWAP2 POP JUMPDEST PUSH1 0x20 DUP3 LT DUP2 EQ ISZERO PUSH3 0x23D JUMPI PUSH3 0x23C PUSH3 0x2A1 JUMP JUMPDEST JUMPDEST POP SWAP2 SWAP1 POP JUMP JUMPDEST PUSH32 0x4E487B7100000000000000000000000000000000000000000000000000000000 PUSH1 0x0 MSTORE PUSH1 0x11 PUSH1 0x4 MSTORE PUSH1 0x24 PUSH1 0x0 REVERT JUMPDEST PUSH32 0x4E487B7100000000000000000000000000000000000000000000000000000000 PUSH1 0x0 MSTORE PUSH1 0x21 PUSH1 0x4 MSTORE PUSH1 0x24 PUSH1 0x0 REVERT JUMPDEST PUSH32 0x4E487B7100000000000000000000000000000000000000000000000000000000 PUSH1 0x0 MSTORE PUSH1 0x22 PUSH1 0x4 MSTORE PUSH1 0x24 PUSH1 0x0 REVERT JUMPDEST PUSH2 0xF3E DUP1 PUSH3 0x2E0 PUSH1 0x0 CODECOPY PUSH1 0x0 RETURN INVALID PUSH1 0x80 PUSH1 0x40 MSTORE PUSH1 0x4 CALLDATASIZE LT PUSH2 0xA7 JUMPI PUSH1 0x0 CALLDATALOAD PUSH1 0xE0 SHR DUP1 PUSH4 0x8FA8B790 GT PUSH2 0x64 JUMPI DUP1 PUSH4 0x8FA8B790 EQ PUSH2 0x1C0 JUMPI DUP1 PUSH4 0x91F90157 EQ PUSH2 0x1D7 JUMPI DUP1 PUSH4 0xC623674F EQ PUSH2 0x202 JUMPI DUP1 PUSH4 0xECFC7ECC EQ PUSH2 0x22D JUMPI DUP1 PUSH4 0xF5B56C56 EQ PUSH2 0x24B JUMPI DUP1 PUSH4 0xF77282AB EQ PUSH2 0x276 JUMPI PUSH2 0xA7 JUMP JUMPDEST DUP1 PUSH4 0x83C6323 EQ PUSH2 0xAC JUMPI DUP1 PUSH4 0x48CD4CB1 EQ PUSH2 0xD7 JUMPI DUP1 PUSH4 0x62EA82DB EQ PUSH2 0x102 JUMPI DUP1 PUSH4 0x7FB45099 EQ PUSH2 0x13F JUMPI DUP1 PUSH4 0x8B7B097F EQ PUSH2 0x16A JUMPI DUP1 PUSH4 0x8DA5CB5B EQ PUSH2 0x195 JUMPI JUMPDEST PUSH1 0x0 DUP1 REVERT JUMPDEST CALLVALUE DUP1 ISZERO PUSH2 0xB8 JUMPI PUSH1 0x0 DUP1 REVERT JUMPDEST POP PUSH2 0xC1 PUSH2 0x28D JUMP JUMPDEST PUSH1 0x40 MLOAD PUSH2 0xCE SWAP2 SWAP1 PUSH2 0xC95 JUMP JUMPDEST PUSH1 0x40 MLOAD DUP1 SWAP2 SUB SWAP1 RETURN JUMPDEST CALLVALUE DUP1 ISZERO PUSH2 0xE3 JUMPI PUSH1 0x0 DUP1 REVERT JUMPDEST POP PUSH2 0xEC PUSH2 0x293 JUMP JUMPDEST PUSH1 0x40 MLOAD PUSH2 0xF9 SWAP2 SWAP1 PUSH2 0xC95 JUMP JUMPDEST PUSH1 0x40 MLOAD DUP1 SWAP2 SUB SWAP1 RETURN JUMPDEST CALLVALUE DUP1 ISZERO PUSH2 0x10E JUMPI PUSH1 0x0 DUP1 REVERT JUMPDEST POP PUSH2 0x129 PUSH1 0x4 DUP1 CALLDATASIZE SUB DUP2 ADD SWAP1 PUSH2 0x124 SWAP2 SWAP1 PUSH2 0xB80 JUMP JUMPDEST PUSH2 0x299 JUMP JUMPDEST PUSH1 0x40 MLOAD PUSH2 0x136 SWAP2 SWAP1 PUSH2 0xC95 JUMP JUMPDEST PUSH1 0x40 MLOAD DUP1 SWAP2 SUB SWAP1 RETURN JUMPDEST CALLVALUE DUP1 ISZERO PUSH2 0x14B JUMPI PUSH1 0x0 DUP1 REVERT JUMPDEST POP PUSH2 0x154 PUSH2 0x2B1 JUMP JUMPDEST PUSH1 0x40 MLOAD PUSH2 0x161 SWAP2 SWAP1 PUSH2 0xC58 JUMP JUMPDEST PUSH1 0x40 MLOAD DUP1 SWAP2 SUB SWAP1 RETURN JUMPDEST CALLVALUE DUP1 ISZERO PUSH2 0x176 JUMPI PUSH1 0x0 DUP1 REVERT JUMPDEST POP PUSH2 0x17F PUSH2 0x2C4 JUMP JUMPDEST PUSH1 0x40 MLOAD PUSH2 0x18C SWAP2 SWAP1 PUSH2 0xC3D JUMP JUMPDEST PUSH1 0x40 MLOAD DUP1 SWAP2 SUB SWAP1 RETURN JUMPDEST CALLVALUE DUP1 ISZERO PUSH2 0x1A1 JUMPI PUSH1 0x0 DUP1 REVERT JUMPDEST POP PUSH2 0x1AA PUSH2 0x2D7 JUMP JUMPDEST PUSH1 0x40 MLOAD PUSH2 0x1B7 SWAP2 SWAP1 PUSH2 0xC22 JUMP JUMPDEST PUSH1 0x40 MLOAD DUP1 SWAP2 SUB SWAP1 RETURN JUMPDEST CALLVALUE DUP1 ISZERO PUSH2 0x1CC JUMPI PUSH1 0x0 DUP1 REVERT JUMPDEST POP PUSH2 0x1D5 PUSH2 0x2FB JUMP JUMPDEST STOP JUMPDEST CALLVALUE DUP1 ISZERO PUSH2 0x1E3 JUMPI PUSH1 0x0 DUP1 REVERT JUMPDEST POP PUSH2 0x1EC PUSH2 0x38F JUMP JUMPDEST PUSH1 0x40 MLOAD PUSH2 0x1F9 SWAP2 SWAP1 PUSH2 0xC22 JUMP JUMPDEST PUSH1 0x40 MLOAD DUP1 SWAP2 SUB SWAP1 RETURN JUMPDEST CALLVALUE DUP1 ISZERO PUSH2 0x20E JUMPI PUSH1 0x0 DUP1 REVERT JUMPDEST POP PUSH2 0x217 PUSH2 0x3B5 JUMP JUMPDEST PUSH1 0x40 MLOAD PUSH2 0x224 SWAP2 SWAP1 PUSH2 0xC73 JUMP JUMPDEST PUSH1 0x40 MLOAD DUP1 SWAP2 SUB SWAP1 RETURN JUMPDEST PUSH2 0x235 PUSH2 0x443 JUMP JUMPDEST PUSH1 0x40 MLOAD PUSH2 0x242 SWAP2 SWAP1 PUSH2 0xC3D JUMP JUMPDEST PUSH1 0x40 MLOAD DUP1 SWAP2 SUB SWAP1 RETURN JUMPDEST CALLVALUE DUP1 ISZERO PUSH2 0x257 JUMPI PUSH1 0x0 DUP1 REVERT JUMPDEST POP PUSH2 0x260 PUSH2 0x751 JUMP JUMPDEST PUSH1 0x40 MLOAD PUSH2 0x26D SWAP2 SWAP1 PUSH2 0xC95 JUMP JUMPDEST PUSH1 0x40 MLOAD DUP1 SWAP2 SUB SWAP1 RETURN JUMPDEST CALLVALUE DUP1 ISZERO PUSH2 0x282 JUMPI PUSH1 0x0 DUP1 REVERT JUMPDEST POP PUSH2 0x28B PUSH2 0x757 JUMP JUMPDEST STOP JUMPDEST PUSH1 0x2 SLOAD DUP2 JUMP JUMPDEST PUSH1 0x1 SLOAD DUP2 JUMP JUMPDEST PUSH1 0x7 PUSH1 0x20 MSTORE DUP1 PUSH1 0x0 MSTORE PUSH1 0x40 PUSH1 0x0 KECCAK256 PUSH1 0x0 SWAP2 POP SWAP1 POP SLOAD DUP2 JUMP JUMPDEST PUSH1 0x4 PUSH1 0x0 SWAP1 SLOAD SWAP1 PUSH2 0x100 EXP SWAP1 DIV PUSH1 0xFF AND DUP2 JUMP JUMPDEST PUSH1 0x9 PUSH1 0x0 SWAP1 SLOAD SWAP1 PUSH2 0x100 EXP SWAP1 DIV PUSH1 0xFF AND DUP2 JUMP JUMPDEST PUSH1 0x0 DUP1 SLOAD SWAP1 PUSH2 0x100 EXP SWAP1 DIV PUSH20 0xFFFFFFFFFFFFFFFFFFFFFFFFFFFFFFFFFFFFFFFF AND DUP2 JUMP JUMPDEST PUSH1 0x2 SLOAD NUMBER GT ISZERO PUSH2 0x30A JUMPI PUSH1 0x0 DUP1 REVERT JUMPDEST PUSH1 0x0 DUP1 SLOAD SWAP1 PUSH2 0x100 EXP SWAP1 DIV PUSH20 0xFFFFFFFFFFFFFFFFFFFFFFFFFFFFFFFFFFFFFFFF AND PUSH20 0xFFFFFFFFFFFFFFFFFFFFFFFFFFFFFFFFFFFFFFFF AND CALLER PUSH20 0xFFFFFFFFFFFFFFFFFFFFFFFFFFFFFFFFFFFFFFFF AND EQ PUSH2 0x362 JUMPI PUSH1 0x0 DUP1 REVERT JUMPDEST PUSH1 0x3 PUSH1 0x4 PUSH1 0x0 PUSH2 0x100 EXP DUP2 SLOAD DUP2 PUSH1 0xFF MUL NOT AND SWAP1 DUP4 PUSH1 0x3 DUP2 GT ISZERO PUSH2 0x388 JUMPI PUSH2 0x387 PUSH2 0xE69 JUMP JUMPDEST JUMPDEST MUL OR SWAP1 SSTORE POP JUMP JUMPDEST PUSH1 0x6 PUSH1 0x0 SWAP1 SLOAD SWAP1 PUSH2 0x100 EXP SWAP1 DIV PUSH20 0xFFFFFFFFFFFFFFFFFFFFFFFFFFFFFFFFFFFFFFFF AND DUP2 JUMP JUMPDEST PUSH1 0x3 DUP1 SLOAD PUSH2 0x3C2 SWAP1 PUSH2 0xE08 JUMP JUMPDEST DUP1 PUSH1 0x1F ADD PUSH1 0x20 DUP1 SWAP2 DIV MUL PUSH1 0x20 ADD PUSH1 0x40 MLOAD SWAP1 DUP2 ADD PUSH1 0x40 MSTORE DUP1 SWAP3 SWAP2 SWAP1 DUP2 DUP2 MSTORE PUSH1 0x20 ADD DUP3 DUP1 SLOAD PUSH2 0x3EE SWAP1 PUSH2 0xE08 JUMP JUMPDEST DUP1 ISZERO PUSH2 0x43B JUMPI DUP1 PUSH1 0x1F LT PUSH2 0x410 JUMPI PUSH2 0x100 DUP1 DUP4 SLOAD DIV MUL DUP4 MSTORE SWAP2 PUSH1 0x20 ADD SWAP2 PUSH2 0x43B JUMP JUMPDEST DUP3 ADD SWAP2 SWAP1 PUSH1 0x0 MSTORE PUSH1 0x20 PUSH1 0x0 KECCAK256 SWAP1 JUMPDEST DUP2 SLOAD DUP2 MSTORE SWAP1 PUSH1 0x1 ADD SWAP1 PUSH1 0x20 ADD DUP1 DUP4 GT PUSH2 0x41E JUMPI DUP3 SWAP1 SUB PUSH1 0x1F AND DUP3 ADD SWAP2 JUMPDEST POP POP POP POP POP DUP2 JUMP JUMPDEST PUSH1 0x0 DUP1 PUSH1 0x0 SWAP1 SLOAD SWAP1 PUSH2 0x100 EXP SWAP1 DIV PUSH20 0xFFFFFFFFFFFFFFFFFFFFFFFFFFFFFFFFFFFFFFFF AND PUSH20 0xFFFFFFFFFFFFFFFFFFFFFFFFFFFFFFFFFFFFFFFF AND CALLER PUSH20 0xFFFFFFFFFFFFFFFFFFFFFFFFFFFFFFFFFFFFFFFF AND EQ ISZERO PUSH2 0x49F JUMPI PUSH1 0x0 DUP1 REVERT JUMPDEST PUSH1 0x1 SLOAD NUMBER LT ISZERO PUSH2 0x4AE JUMPI PUSH1 0x0 DUP1 REVERT JUMPDEST PUSH1 0x2 SLOAD NUMBER GT ISZERO PUSH2 0x4BD JUMPI PUSH1 0x0 DUP1 REVERT JUMPDEST PUSH1 0x1 PUSH1 0x3 DUP2 GT ISZERO PUSH2 0x4D1 JUMPI PUSH2 0x4D0 PUSH2 0xE69 JUMP JUMPDEST JUMPDEST PUSH1 0x4 PUSH1 0x0 SWAP1 SLOAD SWAP1 PUSH2 0x100 EXP SWAP1 DIV PUSH1 0xFF AND PUSH1 0x3 DUP2 GT ISZERO PUSH2 0x4F3 JUMPI PUSH2 0x4F2 PUSH2 0xE69 JUMP JUMPDEST JUMPDEST EQ PUSH2 0x4FD JUMPI PUSH1 0x0 DUP1 REVERT JUMPDEST PUSH1 0x0 CALLVALUE PUSH1 0x7 PUSH1 0x0 CALLER PUSH20 0xFFFFFFFFFFFFFFFFFFFFFFFFFFFFFFFFFFFFFFFF AND PUSH20 0xFFFFFFFFFFFFFFFFFFFFFFFFFFFFFFFFFFFFFFFF AND DUP2 MSTORE PUSH1 0x20 ADD SWAP1 DUP2 MSTORE PUSH1 0x20 ADD PUSH1 0x0 KECCAK256 SLOAD PUSH2 0x54A SWAP2 SWAP1 PUSH2 0xCCC JUMP JUMPDEST SWAP1 POP PUSH1 0x5 SLOAD DUP2 GT PUSH2 0x55A JUMPI PUSH1 0x0 DUP1 REVERT JUMPDEST DUP1 PUSH1 0x7 PUSH1 0x0 CALLER PUSH20 0xFFFFFFFFFFFFFFFFFFFFFFFFFFFFFFFFFFFFFFFF AND PUSH20 0xFFFFFFFFFFFFFFFFFFFFFFFFFFFFFFFFFFFFFFFF AND DUP2 MSTORE PUSH1 0x20 ADD SWAP1 DUP2 MSTORE PUSH1 0x20 ADD PUSH1 0x0 KECCAK256 DUP2 SWAP1 SSTORE POP PUSH1 0x7 PUSH1 0x0 PUSH1 0x6 PUSH1 0x0 SWAP1 SLOAD SWAP1 PUSH2 0x100 EXP SWAP1 DIV PUSH20 0xFFFFFFFFFFFFFFFFFFFFFFFFFFFFFFFFFFFFFFFF AND PUSH20 0xFFFFFFFFFFFFFFFFFFFFFFFFFFFFFFFFFFFFFFFF AND PUSH20 0xFFFFFFFFFFFFFFFFFFFFFFFFFFFFFFFFFFFFFFFF AND DUP2 MSTORE PUSH1 0x20 ADD SWAP1 DUP2 MSTORE PUSH1 0x20 ADD PUSH1 0x0 KECCAK256 SLOAD DUP2 GT PUSH2 0x689 JUMPI PUSH2 0x67E PUSH1 0x8 SLOAD DUP3 PUSH2 0x617 SWAP2 SWAP1 PUSH2 0xCCC JUMP JUMPDEST PUSH1 0x7 PUSH1 0x0 PUSH1 0x6 PUSH1 0x0 SWAP1 SLOAD SWAP1 PUSH2 0x100 EXP SWAP1 DIV PUSH20 0xFFFFFFFFFFFFFFFFFFFFFFFFFFFFFFFFFFFFFFFF AND PUSH20 0xFFFFFFFFFFFFFFFFFFFFFFFFFFFFFFFFFFFFFFFF AND PUSH20 0xFFFFFFFFFFFFFFFFFFFFFFFFFFFFFFFFFFFFFFFF AND DUP2 MSTORE PUSH1 0x20 ADD SWAP1 DUP2 MSTORE PUSH1 0x20 ADD PUSH1 0x0 KECCAK256 SLOAD PUSH2 0xB50 JUMP JUMPDEST PUSH1 0x5 DUP2 SWAP1 SSTORE POP PUSH2 0x749 JUMP JUMPDEST PUSH2 0x701 DUP2 PUSH1 0x8 SLOAD PUSH1 0x7 PUSH1 0x0 PUSH1 0x6 PUSH1 0x0 SWAP1 SLOAD SWAP1 PUSH2 0x100 EXP SWAP1 DIV PUSH20 0xFFFFFFFFFFFFFFFFFFFFFFFFFFFFFFFFFFFFFFFF AND PUSH20 0xFFFFFFFFFFFFFFFFFFFFFFFFFFFFFFFFFFFFFFFF AND PUSH20 0xFFFFFFFFFFFFFFFFFFFFFFFFFFFFFFFFFFFFFFFF AND DUP2 MSTORE PUSH1 0x20 ADD SWAP1 DUP2 MSTORE PUSH1 0x20 ADD PUSH1 0x0 KECCAK256 SLOAD PUSH2 0x6FC SWAP2 SWAP1 PUSH2 0xCCC JUMP JUMPDEST PUSH2 0xB50 JUMP JUMPDEST PUSH1 0x5 DUP2 SWAP1 SSTORE POP CALLER PUSH1 0x6 PUSH1 0x0 PUSH2 0x100 EXP DUP2 SLOAD DUP2 PUSH20 0xFFFFFFFFFFFFFFFFFFFFFFFFFFFFFFFFFFFFFFFF MUL NOT AND SWAP1 DUP4 PUSH20 0xFFFFFFFFFFFFFFFFFFFFFFFFFFFFFFFFFFFFFFFF AND MUL OR SWAP1 SSTORE POP JUMPDEST PUSH1 0x1 SWAP2 POP POP SWAP1 JUMP JUMPDEST PUSH1 0x5 SLOAD DUP2 JUMP JUMPDEST PUSH1 0x3 DUP1 DUP2 GT ISZERO PUSH2 0x76A JUMPI PUSH2 0x769 PUSH2 0xE69 JUMP JUMPDEST JUMPDEST PUSH1 0x4 PUSH1 0x0 SWAP1 SLOAD SWAP1 PUSH2 0x100 EXP SWAP1 DIV PUSH1 0xFF AND PUSH1 0x3 DUP2 GT ISZERO PUSH2 0x78C JUMPI PUSH2 0x78B PUSH2 0xE69 JUMP JUMPDEST JUMPDEST EQ DUP1 PUSH2 0x799 JUMPI POP PUSH1 0x2 SLOAD NUMBER GT JUMPDEST PUSH2 0x7A2 JUMPI PUSH1 0x0 DUP1 REVERT JUMPDEST PUSH1 0x0 DUP1 SLOAD SWAP1 PUSH2 0x100 EXP SWAP1 DIV PUSH20 0xFFFFFFFFFFFFFFFFFFFFFFFFFFFFFFFFFFFFFFFF AND PUSH20 0xFFFFFFFFFFFFFFFFFFFFFFFFFFFFFFFFFFFFFFFF AND CALLER PUSH20 0xFFFFFFFFFFFFFFFFFFFFFFFFFFFFFFFFFFFFFFFF AND EQ DUP1 PUSH2 0x83B JUMPI POP PUSH1 0x0 PUSH1 0x7 PUSH1 0x0 CALLER PUSH20 0xFFFFFFFFFFFFFFFFFFFFFFFFFFFFFFFFFFFFFFFF AND PUSH20 0xFFFFFFFFFFFFFFFFFFFFFFFFFFFFFFFFFFFFFFFF AND DUP2 MSTORE PUSH1 0x20 ADD SWAP1 DUP2 MSTORE PUSH1 0x20 ADD PUSH1 0x0 KECCAK256 SLOAD GT JUMPDEST PUSH2 0x844 JUMPI PUSH1 0x0 DUP1 REVERT JUMPDEST PUSH1 0x0 DUP1 PUSH1 0x3 DUP1 DUP2 GT ISZERO PUSH2 0x85A JUMPI PUSH2 0x859 PUSH2 0xE69 JUMP JUMPDEST JUMPDEST PUSH1 0x4 PUSH1 0x0 SWAP1 SLOAD SWAP1 PUSH2 0x100 EXP SWAP1 DIV PUSH1 0xFF AND PUSH1 0x3 DUP2 GT ISZERO PUSH2 0x87C JUMPI PUSH2 0x87B PUSH2 0xE69 JUMP JUMPDEST JUMPDEST EQ ISZERO PUSH2 0x8CC JUMPI CALLER SWAP2 POP PUSH1 0x7 PUSH1 0x0 CALLER PUSH20 0xFFFFFFFFFFFFFFFFFFFFFFFFFFFFFFFFFFFFFFFF AND PUSH20 0xFFFFFFFFFFFFFFFFFFFFFFFFFFFFFFFFFFFFFFFF AND DUP2 MSTORE PUSH1 0x20 ADD SWAP1 DUP2 MSTORE PUSH1 0x20 ADD PUSH1 0x0 KECCAK256 SLOAD SWAP1 POP PUSH2 0xAC0 JUMP JUMPDEST PUSH1 0x0 DUP1 SLOAD SWAP1 PUSH2 0x100 EXP SWAP1 DIV PUSH20 0xFFFFFFFFFFFFFFFFFFFFFFFFFFFFFFFFFFFFFFFF AND PUSH20 0xFFFFFFFFFFFFFFFFFFFFFFFFFFFFFFFFFFFFFFFF AND CALLER PUSH20 0xFFFFFFFFFFFFFFFFFFFFFFFFFFFFFFFFFFFFFFFF AND EQ DUP1 ISZERO PUSH2 0x93A JUMPI POP PUSH1 0x0 ISZERO ISZERO PUSH1 0x9 PUSH1 0x0 SWAP1 SLOAD SWAP1 PUSH2 0x100 EXP SWAP1 DIV PUSH1 0xFF AND ISZERO ISZERO EQ JUMPDEST ISZERO PUSH2 0x987 JUMPI PUSH1 0x0 DUP1 SLOAD SWAP1 PUSH2 0x100 EXP SWAP1 DIV PUSH20 0xFFFFFFFFFFFFFFFFFFFFFFFFFFFFFFFFFFFFFFFF AND SWAP2 POP PUSH1 0x5 SLOAD SWAP1 POP PUSH1 0x1 PUSH1 0x9 PUSH1 0x0 PUSH2 0x100 EXP DUP2 SLOAD DUP2 PUSH1 0xFF MUL NOT AND SWAP1 DUP4 ISZERO ISZERO MUL OR SWAP1 SSTORE POP PUSH2 0xABF JUMP JUMPDEST PUSH1 0x6 PUSH1 0x0 SWAP1 SLOAD SWAP1 PUSH2 0x100 EXP SWAP1 DIV PUSH20 0xFFFFFFFFFFFFFFFFFFFFFFFFFFFFFFFFFFFFFFFF AND PUSH20 0xFFFFFFFFFFFFFFFFFFFFFFFFFFFFFFFFFFFFFFFF AND CALLER PUSH20 0xFFFFFFFFFFFFFFFFFFFFFFFFFFFFFFFFFFFFFFFF AND EQ ISZERO PUSH2 0xA78 JUMPI PUSH1 0x6 PUSH1 0x0 SWAP1 SLOAD SWAP1 PUSH2 0x100 EXP SWAP1 DIV PUSH20 0xFFFFFFFFFFFFFFFFFFFFFFFFFFFFFFFFFFFFFFFF AND SWAP2 POP PUSH1 0x5 SLOAD PUSH1 0x7 PUSH1 0x0 PUSH1 0x6 PUSH1 0x0 SWAP1 SLOAD SWAP1 PUSH2 0x100 EXP SWAP1 DIV PUSH20 0xFFFFFFFFFFFFFFFFFFFFFFFFFFFFFFFFFFFFFFFF AND PUSH20 0xFFFFFFFFFFFFFFFFFFFFFFFFFFFFFFFFFFFFFFFF AND PUSH20 0xFFFFFFFFFFFFFFFFFFFFFFFFFFFFFFFFFFFFFFFF AND DUP2 MSTORE PUSH1 0x20 ADD SWAP1 DUP2 MSTORE PUSH1 0x20 ADD PUSH1 0x0 KECCAK256 SLOAD PUSH2 0xA71 SWAP2 SWAP1 PUSH2 0xD22 JUMP JUMPDEST SWAP1 POP PUSH2 0xABE JUMP JUMPDEST CALLER SWAP2 POP PUSH1 0x7 PUSH1 0x0 CALLER PUSH20 0xFFFFFFFFFFFFFFFFFFFFFFFFFFFFFFFFFFFFFFFF AND PUSH20 0xFFFFFFFFFFFFFFFFFFFFFFFFFFFFFFFFFFFFFFFF AND DUP2 MSTORE PUSH1 0x20 ADD SWAP1 DUP2 MSTORE PUSH1 0x20 ADD PUSH1 0x0 KECCAK256 SLOAD SWAP1 POP JUMPDEST JUMPDEST JUMPDEST PUSH1 0x0 PUSH1 0x7 PUSH1 0x0 DUP5 PUSH20 0xFFFFFFFFFFFFFFFFFFFFFFFFFFFFFFFFFFFFFFFF AND PUSH20 0xFFFFFFFFFFFFFFFFFFFFFFFFFFFFFFFFFFFFFFFF AND DUP2 MSTORE PUSH1 0x20 ADD SWAP1 DUP2 MSTORE PUSH1 0x20 ADD PUSH1 0x0 KECCAK256 DUP2 SWAP1 SSTORE POP DUP2 PUSH20 0xFFFFFFFFFFFFFFFFFFFFFFFFFFFFFFFFFFFFFFFF AND PUSH2 0x8FC DUP3 SWAP1 DUP2 ISZERO MUL SWAP1 PUSH1 0x40 MLOAD PUSH1 0x0 PUSH1 0x40 MLOAD DUP1 DUP4 SUB DUP2 DUP6 DUP9 DUP9 CALL SWAP4 POP POP POP POP ISZERO DUP1 ISZERO PUSH2 0xB4B JUMPI RETURNDATASIZE PUSH1 0x0 DUP1 RETURNDATACOPY RETURNDATASIZE PUSH1 0x0 REVERT JUMPDEST POP POP POP JUMP JUMPDEST PUSH1 0x0 DUP2 DUP4 GT PUSH2 0xB61 JUMPI DUP3 SWAP1 POP PUSH2 0xB65 JUMP JUMPDEST DUP2 SWAP1 POP JUMPDEST SWAP3 SWAP2 POP POP JUMP JUMPDEST PUSH1 0x0 DUP2 CALLDATALOAD SWAP1 POP PUSH2 0xB7A DUP2 PUSH2 0xEF1 JUMP JUMPDEST SWAP3 SWAP2 POP POP JUMP JUMPDEST PUSH1 0x0 PUSH1 0x20 DUP3 DUP5 SUB SLT ISZERO PUSH2 0xB96 JUMPI PUSH2 0xB95 PUSH2 0xEC7 JUMP JUMPDEST JUMPDEST PUSH1 0x0 PUSH2 0xBA4 DUP5 DUP3 DUP6 ADD PUSH2 0xB6B JUMP JUMPDEST SWAP2 POP POP SWAP3 SWAP2 POP POP JUMP JUMPDEST PUSH2 0xBB6 DUP2 PUSH2 0xD68 JUMP JUMPDEST DUP3 MSTORE POP POP JUMP JUMPDEST PUSH2 0xBC5 DUP2 PUSH2 0xD7A JUMP JUMPDEST DUP3 MSTORE POP POP JUMP JUMPDEST PUSH2 0xBD4 DUP2 PUSH2 0xDC3 JUMP JUMPDEST DUP3 MSTORE POP POP JUMP JUMPDEST PUSH1 0x0 PUSH2 0xBE5 DUP3 PUSH2 0xCB0 JUMP JUMPDEST PUSH2 0xBEF DUP2 DUP6 PUSH2 0xCBB JUMP JUMPDEST SWAP4 POP PUSH2 0xBFF DUP2 DUP6 PUSH1 0x20 DUP7 ADD PUSH2 0xDD5 JUMP JUMPDEST PUSH2 0xC08 DUP2 PUSH2 0xECC JUMP JUMPDEST DUP5 ADD SWAP2 POP POP SWAP3 SWAP2 POP POP JUMP JUMPDEST PUSH2 0xC1C DUP2 PUSH2 0xDB9 JUMP JUMPDEST DUP3 MSTORE POP POP JUMP JUMPDEST PUSH1 0x0 PUSH1 0x20 DUP3 ADD SWAP1 POP PUSH2 0xC37 PUSH1 0x0 DUP4 ADD DUP5 PUSH2 0xBAD JUMP JUMPDEST SWAP3 SWAP2 POP POP JUMP JUMPDEST PUSH1 0x0 PUSH1 0x20 DUP3 ADD SWAP1 POP PUSH2 0xC52 PUSH1 0x0 DUP4 ADD DUP5 PUSH2 0xBBC JUMP JUMPDEST SWAP3 SWAP2 POP POP JUMP JUMPDEST PUSH1 0x0 PUSH1 0x20 DUP3 ADD SWAP1 POP PUSH2 0xC6D PUSH1 0x0 DUP4 ADD DUP5 PUSH2 0xBCB JUMP JUMPDEST SWAP3 SWAP2 POP POP JUMP JUMPDEST PUSH1 0x0 PUSH1 0x20 DUP3 ADD SWAP1 POP DUP2 DUP2 SUB PUSH1 0x0 DUP4 ADD MSTORE PUSH2 0xC8D DUP2 DUP5 PUSH2 0xBDA JUMP JUMPDEST SWAP1 POP SWAP3 SWAP2 POP POP JUMP JUMPDEST PUSH1 0x0 PUSH1 0x20 DUP3 ADD SWAP1 POP PUSH2 0xCAA PUSH1 0x0 DUP4 ADD DUP5 PUSH2 0xC13 JUMP JUMPDEST SWAP3 SWAP2 POP POP JUMP JUMPDEST PUSH1 0x0 DUP2 MLOAD SWAP1 POP SWAP2 SWAP1 POP JUMP JUMPDEST PUSH1 0x0 DUP3 DUP3 MSTORE PUSH1 0x20 DUP3 ADD SWAP1 POP SWAP3 SWAP2 POP POP JUMP JUMPDEST PUSH1 0x0 PUSH2 0xCD7 DUP3 PUSH2 0xDB9 JUMP JUMPDEST SWAP2 POP PUSH2 0xCE2 DUP4 PUSH2 0xDB9 JUMP JUMPDEST SWAP3 POP DUP3 PUSH32 0xFFFFFFFFFFFFFFFFFFFFFFFFFFFFFFFFFFFFFFFFFFFFFFFFFFFFFFFFFFFFFFFF SUB DUP3 GT ISZERO PUSH2 0xD17 JUMPI PUSH2 0xD16 PUSH2 0xE3A JUMP JUMPDEST JUMPDEST DUP3 DUP3 ADD SWAP1 POP SWAP3 SWAP2 POP POP JUMP JUMPDEST PUSH1 0x0 PUSH2 0xD2D DUP3 PUSH2 0xDB9 JUMP JUMPDEST SWAP2 POP PUSH2 0xD38 DUP4 PUSH2 0xDB9 JUMP JUMPDEST SWAP3 POP DUP3 DUP3 LT ISZERO PUSH2 0xD4B JUMPI PUSH2 0xD4A PUSH2 0xE3A JUMP JUMPDEST JUMPDEST DUP3 DUP3 SUB SWAP1 POP SWAP3 SWAP2 POP POP JUMP JUMPDEST PUSH1 0x0 PUSH2 0xD61 DUP3 PUSH2 0xD99 JUMP JUMPDEST SWAP1 POP SWAP2 SWAP1 POP JUMP JUMPDEST PUSH1 0x0 PUSH2 0xD73 DUP3 PUSH2 0xD99 JUMP JUMPDEST SWAP1 POP SWAP2 SWAP1 POP JUMP JUMPDEST PUSH1 0x0 DUP2 ISZERO ISZERO SWAP1 POP SWAP2 SWAP1 POP JUMP JUMPDEST PUSH1 0x0 DUP2 SWAP1 POP PUSH2 0xD94 DUP3 PUSH2 0xEDD JUMP JUMPDEST SWAP2 SWAP1 POP JUMP JUMPDEST PUSH1 0x0 PUSH20 0xFFFFFFFFFFFFFFFFFFFFFFFFFFFFFFFFFFFFFFFF DUP3 AND SWAP1 POP SWAP2 SWAP1 POP JUMP JUMPDEST PUSH1 0x0 DUP2 SWAP1 POP SWAP2 SWAP1 POP JUMP JUMPDEST PUSH1 0x0 PUSH2 0xDCE DUP3 PUSH2 0xD86 JUMP JUMPDEST SWAP1 POP SWAP2 SWAP1 POP JUMP JUMPDEST PUSH1 0x0 JUMPDEST DUP4 DUP2 LT ISZERO PUSH2 0xDF3 JUMPI DUP1 DUP3 ADD MLOAD DUP2 DUP5 ADD MSTORE PUSH1 0x20 DUP2 ADD SWAP1 POP PUSH2 0xDD8 JUMP JUMPDEST DUP4 DUP2 GT ISZERO PUSH2 0xE02 JUMPI PUSH1 0x0 DUP5 DUP5 ADD MSTORE JUMPDEST POP POP POP POP JUMP JUMPDEST PUSH1 0x0 PUSH1 0x2 DUP3 DIV SWAP1 POP PUSH1 0x1 DUP3 AND DUP1 PUSH2 0xE20 JUMPI PUSH1 0x7F DUP3 AND SWAP2 POP JUMPDEST PUSH1 0x20 DUP3 LT DUP2 EQ ISZERO PUSH2 0xE34 JUMPI PUSH2 0xE33 PUSH2 0xE98 JUMP JUMPDEST JUMPDEST POP SWAP2 SWAP1 POP JUMP JUMPDEST PUSH32 0x4E487B7100000000000000000000000000000000000000000000000000000000 PUSH1 0x0 MSTORE PUSH1 0x11 PUSH1 0x4 MSTORE PUSH1 0x24 PUSH1 0x0 REVERT JUMPDEST PUSH32 0x4E487B7100000000000000000000000000000000000000000000000000000000 PUSH1 0x0 MSTORE PUSH1 0x21 PUSH1 0x4 MSTORE PUSH1 0x24 PUSH1 0x0 REVERT JUMPDEST PUSH32 0x4E487B7100000000000000000000000000000000000000000000000000000000 PUSH1 0x0 MSTORE PUSH1 0x22 PUSH1 0x4 MSTORE PUSH1 0x24 PUSH1 0x0 REVERT JUMPDEST PUSH1 0x0 DUP1 REVERT JUMPDEST PUSH1 0x0 PUSH1 0x1F NOT PUSH1 0x1F DUP4 ADD AND SWAP1 POP SWAP2 SWAP1 POP JUMP JUMPDEST PUSH1 0x4 DUP2 LT PUSH2 0xEEE JUMPI PUSH2 0xEED PUSH2 0xE69 JUMP JUMPDEST JUMPDEST POP JUMP JUMPDEST PUSH2 0xEFA DUP2 PUSH2 0xD56 JUMP JUMPDEST DUP2 EQ PUSH2 0xF05 JUMPI PUSH1 0x0 DUP1 REVERT JUMPDEST POP JUMP INVALID LOG2 PUSH5 0x6970667358 0x22 SLT KECCAK256 PUSH9 0x943D011C18F6F32233 PUSH23 0xE1F075564C5DE24ACAFB5DEB732D827608842F75D46473 PUSH16 0x6C634300080700330000000000000000 "
				},
				"gasEstimates": {
					"creation": {
						"codeDepositCost": "780400",
						"executionCost": "infinite",
						"totalCost": "infinite"
					},
					"external": {
						"auctionState()": "2627",
						"bids(address)": "2859",
						"cancelAuction()": "28723",
						"endBlock()": "2430",
						"finalizeAuction()": "infinite",
						"highestBidder()": "2536",
						"highestBindingBid()": "2517",
						"ipfsHash()": "infinite",
						"owner()": "2622",
						"ownerFinalized()": "2560",
						"placeBid()": "infinite",
						"startBlock()": "2452"
					},
					"internal": {
						"min(uint256,uint256)": "64"
					}
				},
				"methodIdentifiers": {
					"auctionState()": "7fb45099",
					"bids(address)": "62ea82db",
					"cancelAuction()": "8fa8b790",
					"endBlock()": "083c6323",
					"finalizeAuction()": "f77282ab",
					"highestBidder()": "91f90157",
					"highestBindingBid()": "f5b56c56",
					"ipfsHash()": "c623674f",
					"owner()": "8da5cb5b",
					"ownerFinalized()": "8b7b097f",
					"placeBid()": "ecfc7ecc",
					"startBlock()": "48cd4cb1"
				}
			},
			"storageLayout": {
				"storage": [
					{
						"astId": 3,
						"contract": "contracts/Project 2 - The Auction Smart Contract/Auction.sol:Auction",
						"label": "owner",
						"offset": 0,
						"slot": "0",
						"type": "t_address_payable"
					},
					{
						"astId": 5,
						"contract": "contracts/Project 2 - The Auction Smart Contract/Auction.sol:Auction",
						"label": "startBlock",
						"offset": 0,
						"slot": "1",
						"type": "t_uint256"
					},
					{
						"astId": 7,
						"contract": "contracts/Project 2 - The Auction Smart Contract/Auction.sol:Auction",
						"label": "endBlock",
						"offset": 0,
						"slot": "2",
						"type": "t_uint256"
					},
					{
						"astId": 9,
						"contract": "contracts/Project 2 - The Auction Smart Contract/Auction.sol:Auction",
						"label": "ipfsHash",
						"offset": 0,
						"slot": "3",
						"type": "t_string_storage"
					},
					{
						"astId": 17,
						"contract": "contracts/Project 2 - The Auction Smart Contract/Auction.sol:Auction",
						"label": "auctionState",
						"offset": 0,
						"slot": "4",
						"type": "t_enum(State)14"
					},
					{
						"astId": 19,
						"contract": "contracts/Project 2 - The Auction Smart Contract/Auction.sol:Auction",
						"label": "highestBindingBid",
						"offset": 0,
						"slot": "5",
						"type": "t_uint256"
					},
					{
						"astId": 21,
						"contract": "contracts/Project 2 - The Auction Smart Contract/Auction.sol:Auction",
						"label": "highestBidder",
						"offset": 0,
						"slot": "6",
						"type": "t_address_payable"
					},
					{
						"astId": 25,
						"contract": "contracts/Project 2 - The Auction Smart Contract/Auction.sol:Auction",
						"label": "bids",
						"offset": 0,
						"slot": "7",
						"type": "t_mapping(t_address,t_uint256)"
					},
					{
						"astId": 27,
						"contract": "contracts/Project 2 - The Auction Smart Contract/Auction.sol:Auction",
						"label": "bidIncrement",
						"offset": 0,
						"slot": "8",
						"type": "t_uint256"
					},
					{
						"astId": 30,
						"contract": "contracts/Project 2 - The Auction Smart Contract/Auction.sol:Auction",
						"label": "ownerFinalized",
						"offset": 0,
						"slot": "9",
						"type": "t_bool"
					}
				],
				"types": {
					"t_address": {
						"encoding": "inplace",
						"label": "address",
						"numberOfBytes": "20"
					},
					"t_address_payable": {
						"encoding": "inplace",
						"label": "address payable",
						"numberOfBytes": "20"
					},
					"t_bool": {
						"encoding": "inplace",
						"label": "bool",
						"numberOfBytes": "1"
					},
					"t_enum(State)14": {
						"encoding": "inplace",
						"label": "enum Auction.State",
						"numberOfBytes": "1"
					},
					"t_mapping(t_address,t_uint256)": {
						"encoding": "mapping",
						"key": "t_address",
						"label": "mapping(address => uint256)",
						"numberOfBytes": "32",
						"value": "t_uint256"
					},
					"t_string_storage": {
						"encoding": "bytes",
						"label": "string",
						"numberOfBytes": "32"
					},
					"t_uint256": {
						"encoding": "inplace",
						"label": "uint256",
						"numberOfBytes": "32"
					}
				}
			},
			"userdoc": {
				"kind": "user",
				"methods": {},
				"version": 1
			}
		}
	}
}